S01900004D6F746F72436F6E74726F6C426F6172642E7372656331
S11300000C944A000C9467000C9467000C946700ED
S11300100C9467000C9467000C9467000C94EA013C
S11300200C9476020C9467000C9467000C9467009F
S11300300C9467000C94CF0B0C9467000C94020C86
S11300400C9467000C9410010C94BB030C9467008F
S11300500C9467000C9467000C9467000C94670080
S11300600C9467000C9467000C9467000C94670070
S11300700C9467000C9467000C9467000C94670060
S11300800C94E50C0C94090D0C9467000C94670017
S11300900C94670011241FBECFEFD8E0DEBFCDBFA4
S11300A012E0A0E0B1E0EEE4F0E202C005900D92AF
S11300B0AA35B107D9F722E0AAE5B2E001C01D9242
S11300C0A83CB207E1F70E94C4050C9425100C94D7
S11300D0000080E480937C00EAE7F0E086E080831F
S11300E08081806880830895ECE7F0E09081907CC3
S11300F08770892B8083EAE7F0E0808180648083C5
S1130100808186FDFDCF809178002091790090E078
S1130110922B089580917C00807C803C61F0ECE718
S1130120F0E08081806C808385E090E00E94C00CC8
S113013080E00E94740008950E948A0080E00E947A
S11301407400815891408F3F910510F081E008952B
S113015082E00895CF93C82F63E083E00E94E80E05
S113016060E070E088E790E00E94C20760E070E021
S113017084E190E00E94C90760E070E08AEA90E0C0
S11301800E94D007C23071F018F4CC2331F01DC0A6
S1130190C33081F0C63099F018C08CEA90E00E9418
S11301A05F0F13C081E00E94A70B85E590E00E94D9
S11301B05F0F0BC084E490E00E945F0F06C00E94B2
S11301C0DC0B80E090E00E94E90B86E091E09F93D5
S11301D08F930E94CF0D0E949C00C82F1F928F9373
S11301E087E191E09F938F930E94CF0D0F900F9022
S11301F00F900F900F900F90C23081F480E391E044
S11302009F938F930E94CF0D63E080E00E94E80EDD
S113021088EE93E00E94C00C0F900F90CF91089548
S11302201F920F920FB60F9211248F939F93809178
S113023062028F5F809362029091620280916102F8
S113024098130EC0809165029091660290936402A7
S11302508093630210926202109266021092650209
S11302609F918F910F900FBE0F901F9018956091E2
S11302706702709168028091690290916A02089500
S113028060936702709368028093690290936A0294
S113029008958DB38F738DBB8DB18F738DB98EB16E
S11302A0806C8EB9109267021092680210926902F3
S11302B010926A0288E180936102EAE6F0E08081AC
S11302C080658083109269008DB3806C8DBB089526
S11302D08DB38F738DBB10926702109268021092D7
S11302E0690210926A0210926602109265021092DC
S11302F0640210926302109262028DB3806C8DBB13
S113030008958091630290916402209161022831E2
S113031059F59C012C5F3F4F2930310518F42AE729
S1130320209361024CE3489F9001499F300D1124B2
S1130330332314F42D5F3F4F359527953595279535
S113034080915F029091600299230CF40396959535
S1130350879595958795280F391F309360022093D0
S11303605F02822F932F0895209161022A3779F535
S11303709C01205B3F4F213A310518F028E120937E
S113038061029C01220F331F820F931F880F991F54
S1130390880F991F9C01992314F42D5F3F4F3595C5
S11303A027953595279580915F0290916002992356
S11303B00CF403969595879595958795280F391F85
S11303C03093600220935F02822F932F08958FEF62
S11303D09FEF08951F920F920FB60F9211248F93DF
S11303E09F93AF93BF938CB186FF3CC08823ECF4FA
S11303F08091670290916802A0916902B0916A02AB
S11304000196A11DB11D8093670290936802A09389
S11304106902B0936A028091650290916602019626
S1130420909366028093650258C080916702909110
S11304306802A0916902B0916A020197A109B10909
S11304408093670290936802A0936902B0936A0252
S11304508091650290916602019790936602809361
S113046065023BC08823ECF4809167029091680296
S1130470A0916902B0916A020197A109B109809320
S1130480670290936802A0936902B0936A02809114
S113049065029091660201979093660280936502CB
S11304A01CC08091670290916802A0916902B0918A
S11304B06A020196A11DB11D8093670290936802A0
S11304C0A0936902B0936A028091650290916602DA
S11304D001969093660280936502BF91AF919F91BC
S11304E08F910F900FBE0F901F9018951F920F922F
S11304F00FB60F9211248F939F93AF93BF938CB138
S11305008823E4F586FF1DC08091670290916802FC
S1130510A0916902B0916A020197A109B10980937F
S1130520670290936802A0936902B0936A02809173
S1130530650290916602019790936602809365022A
S113054058C08091670290916802A0916902B091AD
S11305506A020196A11DB11D8093670290936802FF
S1130560A0936902B0936A02809165029091660239
S1130570019690936602809365023BC086FF1DC07E
S11305808091670290916802A0916902B0916A0219
S11305900196A11DB11D8093670290936802A093F8
S11305A06902B0936A028091650290916602019695
S11305B090936602809365021CC0809167029091BB
S11305C06802A0916902B0916A020197A109B10978
S11305D08093670290936802A0936902B0936A02C1
S11305E080916502909166020197909366028093D0
S11305F06502BF91AF919F918F910F900FBE0F90A5
S11306001F901895FC018481089542E050E061E058
S113061070E003960E942203089545E050E061E0F3
S113062070E003960E942203862F089544E050E070
S113063061E070E003960E9422030895FC01838127
S113064090E00895CF92DF92EF92FF92CF93DF93E1
S1130650141615069CF47723A4F0EA01C61BD70BE5
S11306602196C530D10514F0C4E0D0E0DD2314F4A4
S1130670C0E0D0E01C161D0634F02DC0C4E0D0E06C
S113068002C0C4E0D0E0DC01A60FB71F9E012150D8
S11306903109220F331F220F331F220F331FE0E0D3
S11306A0F0E0C12CD12C76014D9150E0022E02C015
S11306B0440F551F0A94E2F7052E000C660B770BC6
S11306C0C42AD52AE62AF72A319628503109EC178C
S11306D0FD0754F303C0C12CD12C7601C701B60128
S11306E0DF91CF91FF90EF90DF90CF900895883005
S11306F080F4EEEDF0E0408121E030E0B90102C089
S1130700660F771F8A95E2F7CB0180958423808357
S11307100895EFEDF0E04081885021E030E0B90128
S113072002C0660F771F8A95E2F7CB018095842378
S113073080830895883078F4EEEDF0E0408121E084
S113074030E0B90102C0660F771F8A95E2F7CB014A
S1130750842B80830895EFEDF0E04081885021E000
S113076030E0B90102C0660F771F8A95E2F7CB012A
S1130770842B808308951F920F920FB60F92112439
S11307802F933F934F935F936F937F938F939F9395
S1130790AF93BF93CF93EF93FF93C091ED008091FC
S11307A0EC00807F803FB1F18091EC0082958F70E6
S11307B090E1899F900111242093ED009091EE0027
S11307C096FF09C0EEEEF0E0908110821092EF00E7
S11307D00E949A0323C090916E029F5F90936E02D1
S11307E0E82FE695E695E695F0E0E459FD4F908113
S11307F0482F477021E030E002C0220F331F4A9592
S1130800E2F7292B2083EEEEF0E0908110820E9423
S1130810770304C0EAEDF0E080818083C093ED00AB
S1130820FF91EF91CF91BF91AF919F918F917F9164
S11308306F915F914F913F912F910F900FBE0F9049
S11308401F9018959C01332722953295307F3227CB
S1130850207F32272093ED009C0121503109223062
S1130860310540F480916F0220E4829FC00111247D
S11308708F630FC00397029750F480916F0220E4B6
S1130880829FC001112420916B02822B02C08FE34E
S113089090E01092F4001092F5001092F000109283
S11308A0F100282F2295220F207E2093F200887FCA
S11308B09770969587959695879596958795809345
S11308C0F30080EE8093F6008FE78093F70008959D
S11308D0DF92EF92FF920F931F93CF93DF93E8ED94
S11308E0F0E090819160908340936F0220936B02BB
S11308F02FEF31EE94E0215030409040E1F700C0FA
S113090000008093E2007093E3006093E40080EBC6
S11309108093DB008FEF8093E500ECE6F2E0118238
S11309201082C0E0D0E00FEE10E00F2EFEEEEF2EAE
S1130930F12CF02D6894DD24D7F8C53060F4F7016C
S113094080811082CE010E942204F801D0828C2F73
S11309500E949A0302C0F80110822196CF30D1057B
S113096061F710926E0282E08093D800DF91CF91FC
S11309701F910F91FF90EF90DF9008959B01AC01C0
S113098063E174E08EE190E00E94680408951F938F
S1130990CF93DF93009709F483C020916E02222342
S11309A009F481C01092ED0020916C0220FD25C055
S11309B021E030E0ADEEB0E0122FA901429552954E
S11309C0507F5427407F54274C9323FB662760F9BC
S11309D070E0FB01E459FD4F408150E0E22FE770E5
S11309E002C055954795EA95E2F740FD07C02F5F91
S11309F03F4F2F30310501F759C010E02091EF002F
S1130A002F70FC0122833091F2004091F300329563
S1130A103695377050E0440F551F440F551F440F4F
S1130A20551F432B51834083222391F03396215049
S1130A3030E02C5F3F4F280F391F0B96AAEFB0E030
S1130A404C914193E217F30719F08E179F07C1F7F2
S1130A50F89480916E02815080936E027894812F75
S1130A6090E00E942204812F0E949A0313FBFF2727
S1130A70F0F9CF2F80E0D82FC459DD4F28811770AB
S1130A8081E090E002C0880F991F1A95E2F78095E3
S1130A908223888380E88093EF0080E090E008C0A0
S1130AA082E090E005C081E090E002C081E090E047
S1130AB0DF91CF911F91089580B180958F70089533
S1130AC0CF92DF92EF92FF920F931F93CF93DF9316
S1130AD06C018FE591E09F938F930E94CF0DF601F7
S1130AE081818F9380818F938EE691E09F938F9382
S1130AF00E94CF0DF60182811F928F9385E791E0CA
S1130B009F938F930E94CF0D8DE791E09F938F93D6
S1130B100E94CF0DF60182812DB73EB7245F3F4F6F
S1130B200FB6F8943EBF0FBE2DBF8823E1F07601C7
S1130B3033E0E30EF11CC0E0D0E003E811E0F7017C
S1130B4081917F011F928F931F930F930E94CF0D6A
S1130B502196F601828190E00F900F900F900F90F4
S1130B60C817D90764F387E891E09F938F930E9495
S1130B70CF0D0F900F90DF91CF911F910F91FF90A8
S1130B80EF90DF90CF900895CF93DF93CDB7DEB78A
S1130B902B970FB6F894DEBF0FBECDBF80EF81B99F
S1130BA082B90E94560C2FEF81EE94E021508040D0
S1130BB09040E1F700C0000012B863E080E00E94BA
S1130BC0E80E789460E07BE480E090E00E94930D6E
S1130BD063E081E00E94E80E8AE992E00E94C00C82
S1130BE00E945C05F82EC82ED12C1F928F938BE99E
S1130BF091E09F938F930E94CF0D8AEF90E00E9423
S1130C00C00CB60184E090E00E94BE0463E082E080
S1130C100E94E80E0E9449010E9469008F2D0E94E3
S1130C20AA009FE088E10FB6F894A895809360002D
S1130C300FBE909360000E94680884EF91E00E94C8
S1130C40C00C60E080E00E94E80E60E081E00E9459
S1130C50E80E60E083E00E94E80E0F900F900F9082
S1130C600F900F2EF8E2CF2ED12CE12CF12CF02D89
S1130C70CE0101960E94C704892BC9F463E083E086
S1130C800E94E80E0E947A0CA70196010E948C0F24
S1130C90C9010E94100FCE0101960E946005CE0189
S1130CA001960E94700660E083E00E94E80E0E94B4
S1130CB0CB0880FF09C063E082E00E94E80E60E098
S1130CC081E00E94E80E08C063E081E00E94E80E23
S1130CD060E082E00E94E80E0E94DA08A895C8CF7E
S1130CE0CF92DF92EF92FF92CF93DF93EC010E94B9
S1130CF01E039F938F9383EA91E09F938F930E94A7
S1130D00CF0DCE010E941E030F900F900F900F90F5
S1130D108A30910509F49EC05CF483309105E1F1B9
S1130D208430910509F473C0892B09F0BBC00CC051
S1130D30803F910509F485C08F3F910509F496C061
S1130D400C9709F0AFC080C0CE010E940203C82FE7
S1130D501F928F9381EB91E09F938F930E94CF0D0D
S1130D600F900F900F900F90C13061F40E94CB0848
S1130D7082600E94C8080E9437010E94D7070E941F
S1130D80B408B0C0C111AEC00E94CB088D7F0E94D0
S1130D90C8080E94B408A6C0CE010E9405039F9310
S1130DA08F937F936F938EEB91E09F938F930E9429
S1130DB0CF0D0E94CB080F900F900F900F900F90C3
S1130DC00F9081FD8FC0CE010E940503992324F466
S1130DD0615E7F4F8F4F9F4F6B017C01689414F8C5
S1130DE0F594E794D794C7941694D1F7DF92CF92F1
S1130DF082ED91E09F938F930E94CF0D8C2D9D2DBA
S1130E000E94A2070F900F900F900F906BC0CE011D
S1130E100E940D03209100013091010140910201D3
S1130E2050910301A82FB0E00E94DC0F20E43EE7BC
S1130E3045E050E00E948C0FCA01B9010E94D70717
S1130E4051C00E94BE084EC060E070E0CB010E9419
S1130E50400148C0CE010E941603609300017093C4
S1130E60010180930201909303013CC08EEE91E056
S1130E709F938F930E94CF0D62E080E00E94E80E62
S1130E800E947A0C28E230E040E050E00E948C0F8F
S1130E90C9010E94100F60E080E00E94E80E0F90EC
S1130EA00F9020C08B811F928F9385EF91E09F93C9
S1130EB08F930E94CF0D62E080E00E94E80E0E94B2
S1130EC07A0C28E230E040E050E00E948C0FC90127
S1130ED00E94100F60E080E00E94E80E0F900F90D7
S1130EE00F900F90DF91CF91FF90EF90DF90CF9014
S1130EF00895811524E0920714F08FEF93E0BC016C
S1130F0061308CEF780714F461E07CEF61157105B2
S1130F1021F080919E0280FD07C060E070E083E0D4
S1130F200E94AA0B73980895772334F472997298E7
S1130F3071956195710902C0729B729A83E00E9457
S1130F40AA0B0895CF93DF93EC010E947A0C60936F
S1130F508B0270938C0280938D0290938E02809109
S1130F609E0280FD05C080E090E00E94790707C0E2
S1130F70D0937102C0937002CE010E947907DF9171
S1130F80CF910895009721F0909395028093940255
S1130F900895009721F09093750280937402089548
S1130FA0009721F090939302809392020895CF9238
S1130FB0DF92EF92FF926B017C01FF92EF92DF923E
S1130FC06F938AE092E09F938F930E94CF0D80915C
S1130FD07A0290917B028C199D090E940A0F0F904E
S1130FE00F900F900F900F900F908536910540F061
S1130FF0109276021092770210927802109279027F
S1131000C0927A02D0927B02E0927C02F0927D023E
S1131010FF90EF90DF90CF900895CF93DF93EC0192
S1131020DF93CF9382E292E09F938F930E94CF0D40
S1131030D0937F02C0937E020F900F900F900F9079
S1131040CD37D105C8F481E080938A028DE790E022
S1131050BE010E94640F41E09E0136952795281732
S1131060390708F040E08DE790E0BE010E94640F6C
S1131070640F6093910215C010928A029E01AFEA38
S1131080B7E40E94CD0FC81BD90BD695C7958C0F1A
S11310909D1F929582958F7089279F7089278093D1
S11310A09102809191021F928F9380918A021F92E4
S11310B08F938AE392E09F938F930E94CF0D0F90BA
S11310C00F900F900F900F900F90DF91CF91089594
S11310D073986B9A6A9A729A8098749A6D9A83E05C
S11310E08BB980E094E0A0E0B0E08093800290931C
S11310F08102A0938202B093830288E893E19093E3
S113110099028093980210927A0210927B021092B4
S11311107C0210927D02109273021092720210925D
S11311207102109270028CE890E090939502809383
S1131130940284E190E0909375028093740284E6B3
S113114090E0909393028093920210928602109200
S1131150870210928802109289028AEF90E00E941E
S11311600D080E944901089580919E028160809338
S11311709E0260E080E00E94E80E089580E090E026
S11311800E94790780919E028E7F80939E0208952B
S113119080939E02089580919E02089529B186B19C
S11311A090E08095909586958170922F909592709D
S11311B0892B08954F925F926F927F928F929F92A4
S11311C0AF92BF92CF92DF92EF92FF920F931F9351
S11311D0CF93DF9300D000D0CDB7DEB780919E02CD
S11311E081FD9DC210929F020E9437016B017C0118
S11311F080915A0290915B02A0915C02B0915D02D1
S1131200C816D906EA06FB06C1F0FF92EF92DF92F8
S1131210CF928EE192E09F938F930E94CF0DC09264
S11312205A02D0925B02E0925C02F0925D020F904F
S11312300F900F900F900F900F900E947A0CC09017
S11312408B02D0908C02E0908D02F0908E02DC0133
S1131250CB018C199D09AE09BF09833E9440A105B9
S1131260B10520F0109271021092700264990AC0C4
S113127010927102109270020E94BE0861E080E038
S11312800E94E80E80919E0281FFF9C180919F0225
S1131290882309F4F4C180918A02882309F46FC079
S11312A06091910270E080917202909173020E94A9
S11312B0640F892B09F0C6C080917A0290917B0259
S11312C0A0917C02B0917D024091860250918702E8
S11312D06091880270918902481759076A077B0751
S11312E02CF57C018D01E41AF50A060B170BA801F5
S11312F0970165E070E080E090E00E94DE0EC0900F
S11313008602D0908702E0908802F0908902DC0186
S1131310CB018C0D9D1DAE1DBF1D80938602909345
S11313208702A0938802B09389028CC08417950722
S1131330A607B7070CF086C09A01AB01281B390B2E
S11313404A0B5B0B65E070E080E090E00E94DE0EEB
S1131350C0908602D0908702E0908802F0908902C3
S113136097018601061B170B280B390B0093860285
S113137010938702209388023093890263C080917E
S11313807A0290917B02A0917C02B0917D024091FF
S113139086025091870260918802709189024817F1
S11313A059076A077B0734F57C018D01E41AF50AB5
S11313B0060B170BA80197016091910270E080E081
S11313C090E00E94DE0EC0908602D0908702E090EA
S11313D08802F0908902DC01CB018C0D9D1DAE1DAD
S11313E0BF1D8093860290938702A0938802B093D6
S11313F0890228C084179507A607B7071CF59A0128
S1131400AB01281B390B4A0B5B0B6091910270E016
S113141080E090E00E94DE0EC0908602D0908702A9
S1131420E0908802F090890297018601061B170B51
S1131430280B390B009386021093870220938802AD
S1131440309389020E9437014B015C01809186022E
S113145090918702A0918802B0918902750164017C
S1131460C81AD90AEA0AFB0A20919A0230919B020F
S113147040919C0250919D0229833A834B835C8363
S1131480C0929A02D0929B02E0929C02F0929D023A
S1131490C6010E940A0F0597A0F0809176029091F0
S11314A07702A0917802B09179028C0D9D1DAE1D3A
S11314B0BF1D8093760290937702A0937802B09335
S11314C0790280917A0290917B02A401481B590B06
S11314D0CA010E940A0F049728F410927102109214
S11314E0700290C08091760290917702A091780268
S11314F0B0917902813053E09507A105B1056CF0F4
S113150080E093E0A0E0B0E08093760290937702CD
S1131510A0937802B093790211C081159D4FAF4F0B
S1131520BF4F64F480E09DEFAFEFBFEF809376028E
S113153090937702A0937802B0937902A0917402F9
S1131540B091750220917602309177024091780231
S1131550509179020E94DC0F24E130E040E050E039
S11315600E94AE0F29013A01A0919402B091950214
S1131570A70196010E94DC0F24E130E040E050E036
S11315800E94AE0F420E531E641E751EA7019601E3
S113159089819A81AB81BC81281B390B4A0B5B0B77
S11315A0A0919202B09193020E94DC0F24E130E0FA
S11315B040E050E00E94AE0F420E531E641E751EA2
S11315C091E8491691E059066104710434F0412C04
S11315D0512C3201689447F85394A0E84A16AEEFB0
S11315E05A06AFEF6A067A064CF40F2EF0E84F2E37
S11315F0FEEF5F2E66246A94762CF02D50927102D1
S11316004092700280918402909185029C01220F85
S1131610331F220F331F220F331F820F931F6AE0E1
S113162070E00E94780F7B010E9481016AE070E003
S11316300E94780FE60EF71EF0928502E092840273
S1131640809171028F93809170028F939F928F92F9
S113165083E592E09F938F930E94CF0D8091720255
S11316609091730201969093730280937202109288
S11316709F020F900F900F900F900F900F900E9469
S1131680CE08F82E80FF27C080919E0282FF03C0FF
S11316908B7F80939E0280917A0290917B02A0912D
S11316A07C02B0917D02BB2344F410927A02109222
S11316B07B0210927C0210927D02809170029091C4
S11316C07102992344F4109271021092700280E026
S11316D090E00E947907F1FE18C00E946801809191
S11316E09E0282FF03C08B7F80939E0280917002D2
S11316F0909171021816190644F410927102109216
S1131700700280E090E00E947907809170029091CD
S113171071029195819591090E94790703C0649B98
S1131720A7CDB4CD0F900F900F900F90DF91CF9174
S11317301F910F91FF90EF90DF90CF90BF90AF90EB
S11317409F908F907F906F905F904F9008958093BB
S11317505E0208957370843071F08530B1F0833087
S1131760E9F4E0E9F0E08081806880837093990077
S1131770609398000895E0E9F0E0808180628083BE
S113178070939B0060939A000895E0E9F0E08081F3
S11317908860808370939D0060939C0008951F92DD
S11317A00F920FB60F92112444980F900FBE0F9012
S11317B01F901895449A0895EFE6F0E080818460C4
S11317C080833C9A87E791E090938B0080938A0012
S11317D00895853B9105ACF48230910514F482E0C0
S11317E090E0AC01440F551F9C01992314F42F5F22
S11317F03F4F35952795240F351F30938B00209349
S11318008A0008951F920F920FB60F9211242F93FE
S11318103F934F935F936F937F938F939F93AF9374
S1131820BF93EF93FF938091A0029091A102A091A6
S1131830A202B091A3020196A11DB11D8093A00242
S11318409093A102A093A202B093A3028091A0025C
S11318509091A102A091A202B091A3028370992752
S1131860AA27BB27892B8A2B8B2B51F48091A002AA
S11318709091A102A091A202B091A3020E94100F24
S113188081E080939F020E94DA0BFF91EF91BF9158
S1131890AF919F918F917F916F915F914F913F9104
S11318A02F910F900FBE0F901F90189583E484BD65
S11318B081E080936E009BE19093810093E090938C
S11318C0800020E137E23093890020938800109251
S11318D085001092840080936F0090939000809311
S11318E091001092A0021092A1021092A2021092F2
S11318F0A3020895CF92DF92EF92FF922091840089
S1131900309185008091A0029091A102A091A20241
S1131910B091A302880F991FAA1FBB1F880F991F9C
S1131920AA1FBB1F880F991FAA1FBB1F6C017D0133
S1131930CC0CDD1CEE1CFF1CCC0CDD1CEE1CFF1CB7
S1131940C80ED91EEA1EFB1E36952795A3E1B3E8FF
S11319500E94CD0F0024880F991F001C880F991F27
S1131960001C892F902DA7019601280F391F411DB6
S1131970511DCA01B901FF90EF90DF90CF900895F7
S11319808F929F92AF92BF92CF92DF92EF92FF928B
S11319906C010E947A0C4B015C01E12CF12C0E9439
S11319A07A0CDC01CB0188199909AA09BB098C15A9
S11319B09D05AE05BF0598F3FF90EF90DF90CF90A3
S11319C0BF90AF909F908F9008951F920F920FB683
S11319D00F9211248F93EF93FF938091B50281317D
S11319E020F080E18093B5020CC0E091B50281E063
S11319F08E0F8093B502F0E08091CE00EA54FD4F43
S1131A008083FF91EF918F910F900FBE0F901F90E5
S1131A1018951F920F920FB60F9211248F939F93D4
S1131A20EF93FF93E091C60281E08E0F8093C6028C
S1131A30F0E0EC55FD4F80818093CE009091C6027A
S1131A408091B402981720F48091C602813148F045
S1131A50E9ECF0E080818F7D80831092B4021092D3
S1131A60C602FF91EF919F918F910F900FBE0F903F
S1131A701F901895AF92BF92CF92DF92EF92FF9290
S1131A801F93CF93DF931F92CDB7DEB75C01162F60
S1131A908091B402882329F0E9ECF0E0808180622F
S1131AA080831123A9F16894CC24C4F8D12C0F2E7F
S1131AB0F9ECEF2EF12CF02D8091B4028F30E0F789
S1131AC08091B402212F30E040E050E0B601681B61
S1131AD07109072E000C880B990B0E94DE0E698396
S1131AE049818091B40290E050E0B5018C559D4F3E
S1131AF00E94E70F99818091B402890F8093B40208
S1131B008981181BF7018081806280831111D4CFF1
S1131B100F90DF91CF911F91FF90EF90DF90CF90C6
S1131B20BF90AF9008959B01AC011092B502109242
S1131B30B4021092C6021092C80060E472E48FE00E
S1131B4090E00E948C0F215031093093CD002093F6
S1131B50CC0086E08093CA0088E98093C900089588
S1131B60CF93DF931F92CDB7DEB789838A3019F400
S1131B708DE00E94B00D61E0CE0101960E943A0D05
S1131B800F90DF91CF910895FC0101900020E9F7B7
S1131B903197BF01681B790B0E943A0D08952F926B
S1131BA03F924F925F926F927F928F929F92AF92E9
S1131BB0BF92CF92DF92EF92FF920F931F93CF9336
S1131BC0DF93CDB7DEB72B970FB6F894DEBF0FBE09
S1131BD0CDBFFE01B096E190F1906F01F701B080A6
S1131BE0BB2009F4D2C000E010E00F2EF0E14F2E2C
S1131BF0F7E25F2E612C712CF02DF5E2BF16D1F0C7
S1131C008B2D0E94B00D2CE5B212B7C00F5F1F4F91
S1131C10F701E00FF11F80818A3029F08C3539F407
S1131C200E94B00DAAC08AE00E94B00DA6C0853201
S1131C3009F0A3C00F5F1F4FF701E00FF11F808170
S1131C40843609F475C038F4883509F45EC08336E7
S1131C5009F488C08FC08C3621F0833709F479C029
S1131C6089C0C60104969B878A87F601808091808B
S1131C70A280B3808114F0E89F06A104B104BCF1F2
S1131C80C501B401A30192010E94AE0F49015A019A
S1131C90C62ED72E282E392E4AE0BE016F5F7F4F05
S1131CA0C4010E94F00FCE0101960E94C40D8C2C39
S1131CB09D2CA22CB32C28EE821623E09206A104BC
S1131CC0B1041CF480E30E94B00D84E688169104EC
S1131CD0A104B1041CF480E30E94B00D9AE08916BB
S1131CE09104A104B1041CF480E30E94B00D4AE005
S1131CF0BE016F5F7F4FC4010E94F00FCE010196B9
S1131D000E94C40DCA84DB8438C05601E4E0AE0EE0
S1131D10B11C40E1BE016F5F7F4FF601808191816C
S1131D200E94F00FCE0101960E94C40D650125C0EA
S1131D30F6014AE0BE016F5F7F4F80819181F2E03E
S1131D40CF0ED11C0E94F00FCE0101960E94C40D4B
S1131D5014C0F6018081918122E0C20ED11C0E9440
S1131D60C40D0BC0F601808192E0C90ED11C0E9403
S1131D70B00D03C08FE30E94B00D0F5F1F4FF7013A
S1131D80E00FF11FB080B11038CF2B960FB6F89446
S1131D90DEBF0FBECDBFDF91CF911F910F91FF909A
S1131DA0EF90DF90CF90BF90AF909F908F907F90F7
S1131DB06F905F904F903F902F9008956217730734
S1131DC08407950714F49B01AC01CA01B901089575
S1131DD08430F8F46430E8F49FEF960F923018F4EE
S1131DE093E0961B692F880F23E030E0082E02C091
S1131DF0220F331F0A94E2F720959091C7022923FA
S1131E0070E002C0660F771F8A95E2F7622B609339
S1131E10C702089599231CF4919581959109089519
S1131E20EF92FF920F931F93CF93DF937C018091E6
S1131E30C702811102C012B83BC0E4E0F0E0C0E088
S1131E40D0E001E010E08091C70290E00C2E02C0C7
S1131E50959587950A94E2F7282F237069F0622FED
S1131E6070E0660F771F6F5F7F4FC7010E94640F9A
S1131E70892B79F0233069F092B198010E2E02C0BB
S1131E80220F331F0A94E2F7822F8095892382B9A7
S1131E900AC022B1C8010E2E02C0880F991F0A94ED
S1131EA0E2F7822B82B922963196E830F10559F691
S1131EB0DF91CF911F910F91FF90EF900895909330
S1131EC00501809304010895AA1BBB1B51E107C0BF
S1131ED0AA1FBB1FA617B70710F0A61BB70B881FB6
S1131EE0991F5A95A9F780959095BC01CD01089545
S1131EF097FB072E16F4009407D077FD09D00E94B3
S1131F00640F07FC05D03EF4909581959F4F08958A
S1131F10709561957F4F0895A1E21A2EAA1BBB1BF1
S1131F20FD010DC0AA1FBB1FEE1FFF1FA217B307A1
S1131F30E407F50720F0A21BB30BE40BF50B661FB7
S1131F40771F881F991F1A9469F76095709580957B
S1131F5090959B01AC01BD01CF010895052E97FB1F
S1131F601EF400940E94C50F57FD07D00E948C0FE9
S1131F7007FC03D04EF40C94C50F50954095309552
S1131F8021953F4F4F4F5F4F0895909580957095E1
S1131F9061957F4F8F4F9F4F0895A29FB001B39FCC
S1131FA0C001A39F700D811D1124911DB29F700D5E
S1131FB0811D1124911D08950E94CD0FA59F900DA0
S1131FC0B49F900DA49F800D911D11240895FB01D1
S1131FD0DC0102C001900D9241505040D8F70895A1
S1131FE0BB274A3031F4992322F4BDE290958195C0
S1131FF09F4F0C94FC0FBB27FB015527AA27880F82
S1132000991FAA1FA41710F0A41B83955051B9F768
S1132010A05DAA3308F0A95DA193009779F7B111E7
S1132020B1931192CB010C941510DC01FC01672FC4
S113203071917723E1F7329704C07C916D9370839B
S11120406291AE17BF07C8F30895F894FFCF5E
S113204E0100000064005245562E2031206669724C
S113205E6D776172650A00446574656374696E67B1
S113206E20626F617264207265763A2025640A00DC
S113207E2A2A2A5741524E494E472A2A2A20526565
S113208E762E2031206669726D77617265206F6ECF
S113209E205265762E203220626F6172640A002D02
S11320AE43414E204D4553534147452D0A00494463
S11320BE3D25580A00444C433D25640A004461748E
S11320CE613A00202558000A2D454E442043414EC6
S11320DE204D4553534147452D0A006164723D25F9
S11320EE580A007061636B65742049443D25640A87
S11320FE006D6F6465207365742025640A00505763
S113210E4D2066726F6D207061636B65743D25643E
S113211E0A0053657474696E672050574D20746FAE
S113212E20256420287363616C6564290A00457256
S113213E726F720A00556E6B6E6F776E2043414E4E
S113214E20636F64652025640A0073657474696E78
S113215E6720746172676574207020746F20256C1B
S113216E0A0073657474696E6720746172676574AE
S113217E207620746F20256C0A00736C6F77203DD7
S113218E2025642C207467745F696E63203D2025BE
S10D219E640A0025642025640A0089
S9030000FC
