:100000000C944A000C9467000C9467000C946700F1
:100010000C9467000C9467000C9467000C941E020B
:100020000C94AA020C9467000C9467000C9467006F
:100030000C9467000C94D20C0C9467000C94030D84
:100040000C9467000C9410010C9451040C946700FC
:100050000C9467000C9467000C9467000C94670084
:100060000C9467000C9467000C9467000C94670074
:100070000C9467000C9467000C9467000C94670064
:100080000C94030E0C94270E0C9467000C946700DC
:100090000C94670011241FBECFEFD8E0DEBFCDBFA8
:1000A00012E0A0E0B1E0EAEAF2E202C005900D92AF
:1000B000AC35B107D9F722E0ACE5B2E001C01D9242
:1000C000A73CB207E1F70E94CC060C9453110C94A4
:1000D000000080E480937C00EAE7F0E086E0808323
:1000E0008081806880830895ECE7F0E09081907CC7
:1000F0008770892B8083EAE7F0E0808180648083C9
:10010000808186FDFDCF809178002091790090E07C
:10011000922B089580917C00807C803C61F0ECE71C
:10012000F0E08081806C808385E090E00E94AF0DDC
:1001300080E00E94740008950E948A0080E00E947E
:100140007400815891408F3F910510F081E008952F
:1001500082E00895CF93C82F63E083E00E940610E9
:1001600060E070E088E790E00E94D30860E070E013
:1001700084E190E00E94DA0860E070E08AEA90E0B2
:100180000E94E108C23071F018F4CC2331F01DC098
:10019000C33081F0C63099F018C08CEA90E00E941C
:1001A0007D1013C081E00E94AA0C85E590E00E94BA
:1001B0007D100BC084E490E00E947D1006C00E9478
:1001C000DD0C80E090E00E94EA0C87E091E09F93D4
:1001D0008F930E94ED0E0E949C00C82F1F928F9358
:1001E00088E191E09F938F930E94ED0E0F900F9006
:1001F0000F900F900F900F90C23081F481E391E047
:100200009F938F930E94ED0E63E080E00E940610A2
:1002100088EE93E00E94AF0D0F900F90CF9108955C
:100220001F920F920FB60F9211248F939F9380917C
:1002300060028F5F809360029091600280915F0204
:1002400098130EC0809163029091640290936202B1
:100250008093610210926002109264021092630215
:100260009F918F910F900FBE0F901F9018956091E6
:10027000650270916602809167029091680208950C
:1002800060936502709366028093670290936802A0
:100290000895CF92DF92EF92FF929B01AC01C09044
:1002A0000001D0900101E0900201F090030160E4B0
:1002B0007EE785E090E00E948210A70196010E94EF
:1002C000BA10CA01B901FF90EF90DF90CF90089566
:1002D0009B01AC01609100017091010180910201CC
:1002E000909103010E94821020E43EE745E050E037
:1002F0000E94BA10CA01B90108958DB38F738DBBE6
:100300008DB18F738DB98EB1806C8EB910926502EC
:1003100010926602109267021092680288E1809340
:100320005F02EAE6F0E080818065808310926900D8
:100330008DB3806C8DBB08958DB38F738DBB109280
:100340006502109266021092670210926802109283
:100350006402109263021092620210926102109283
:1003600060028DB3806C8DBB089580916102909185
:10037000620220915F02283159F59C012C5F3F4FAA
:100380002930310518F42AE720935F024CE3489F97
:100390009001499F300D1124332314F42D5F3F4FFA
:1003A000359527953595279580915D0290915E0250
:1003B00099230CF403969595879595958795280F25
:1003C000391F30935E0220935D02822F932F089590
:1003D00020915F022A3779F59C01205B3F4F213A3B
:1003E000310518F028E120935F029C01220F331F92
:1003F000820F931F880F991F880F991F9C019923C3
:1004000014F42D5F3F4F35952795359527958091AD
:100410005D0290915E0299230CF403969595879561
:1004200095958795280F391F30935E0220935D02C2
:10043000822F932F08958FEF9FEF08951F920F92B1
:100440000FB60F9211248F939F93AF93BF938CB1EC
:1004500086FF3CC08823ECF480916502909166028F
:10046000A0916702B09168020196A11DB11D809311
:10047000650290936602A0936702B0936802809130
:1004800063029091640201969093640280936302E8
:1004900058C08091650290916602A0916702B09168
:1004A00068020197A109B1098093650290936602E1
:1004B000A0936702B09368028091630290916402F6
:1004C000019790936402809363023BC08823ECF40D
:1004D0008091650290916602A0916702B0916802D6
:1004E0000197A109B1098093650290936602A093D8
:1004F0006702B09368028091630290916402019751
:1005000090936402809363021CC080916502909175
:100510006602A0916702B09168020196A11DB11D0B
:100520008093650290936602A0936702B09368027D
:10053000809163029091640201969093640280938B
:100540006302BF91AF919F918F910F900FBE0F905B
:100550001F9018951F920F920FB60F9211248F9330
:100560009F93AF93BF938CB18823E4F586FF1DC0A2
:100570008091650290916602A0916702B091680235
:100580000197A109B1098093650290936602A09337
:100590006702B093680280916302909164020197B0
:1005A000909364028093630258C080916502909199
:1005B0006602A0916702B09168020196A11DB11D6B
:1005C0008093650290936602A0936702B0936802DD
:1005D00080916302909164020196909364028093EB
:1005E00063023BC086FF1DC0809165029091660248
:1005F000A0916702B09168020196A11DB11D809380
:10060000650290936602A0936702B093680280919E
:100610006302909164020196909364028093630256
:100620001CC08091650290916602A0916702B09112
:1006300068020197A109B10980936502909366024F
:10064000A0936702B0936802809163029091640264
:1006500001979093640280936302BF91AF919F9141
:100660008F910F900FBE0F901F901895BF92CF9251
:10067000DF92EF92FF920F931F93CF93DF93EC01E2
:10068000B22E6701780181E00E948D0399838883EF
:1006900088E08A838E010D5F1F4F66EFC8010E94BC
:1006A0009D03C80FD91FBB829C012F5F3F4FB7012D
:1006B000A601C8010E94B003DF91CF911F910F9155
:1006C000FF90EF90DF90CF90BF90089548E050E00A
:1006D00064E070E003960E94B80308950E946603E8
:1006E0000895FC018481089542E050E061E070E0EB
:1006F00003960E94B803089545E050E061E070E081
:1007000003960E94B803862F089544E050E061E00C
:1007100070E003960E94B80308956F7090E4699F9B
:10072000B00111244F73642B8170382F330F330FB6
:1007300020E0CB01822B932B0895CF93DF93EC0124
:1007400068830E94610689830E945E068A8383E033
:1007500090E0DF91CF910895FC01838190E00895AE
:10076000FC01E20FF31F708361835283438308957A
:10077000CF92DF92EF92FF92CF93DF93141615067C
:100780009CF47723A4F0EA01C61BD70B2196C53051
:10079000D10514F0C4E0D0E0DD2314F4C0E0D0E0D3
:1007A0001C161D0634F02DC0C4E0D0E002C0C4E029
:1007B000D0E0DC01A60FB71F9E0121503109220FA6
:1007C000331F220F331F220F331FE0E0F0E0C12C54
:1007D000D12C76014D9150E0022E02C0440F551FDE
:1007E0000A94E2F7052E000C660B770BC42AD52A73
:1007F000E62AF72A319628503109EC17FD0754F301
:1008000003C0C12CD12C7601C701B601DF91CF9175
:10081000FF90EF90DF90CF900895883080F4EEED58
:10082000F0E0408121E030E0B90102C0660F771F9F
:100830008A95E2F7CB018095842380830895EFEDBC
:10084000F0E04081885021E030E0B90102C0660F3D
:10085000771F8A95E2F7CB018095842380830895E2
:10086000883078F4EEEDF0E0408121E030E0B9012D
:1008700002C0660F771F8A95E2F7CB01842B808335
:100880000895EFEDF0E04081885021E030E0B901BB
:1008900002C0660F771F8A95E2F7CB01842B808315
:1008A00008951F920F920FB60F9211242F933F932A
:1008B0004F935F936F937F938F939F93AF93BF9368
:1008C000CF93EF93FF93C091ED008091EC00807F78
:1008D000803FB1F18091EC0082958F7090E1899F0B
:1008E000900111242093ED009091EE0096FF09C035
:1008F000EEEEF0E0908110821092EF000E94300442
:1009000023C090916C029F5F90936C02E82FE69554
:10091000E695E695F0E0E659FD4F9081482F477047
:1009200021E030E002C0220F331F4A95E2F7292B65
:100930002083EEEEF0E0908110820E940D0404C04E
:10094000EAEDF0E080818083C093ED00FF91EF91AC
:10095000CF91BF91AF919F918F917F916F915F9157
:100960004F913F912F910F900FBE0F901F901895B0
:100970009C01332722953295307F3227207F322702
:100980002093ED009C01215031092230310540F4C3
:1009900080916D0220E4829FC00111248F630FC0FB
:1009A0000397029750F480916D0220E4829FC0016A
:1009B000112420916902822B02C08FE390E01092F3
:1009C000F4001092F5001092F0001092F100282F20
:1009D0002295220F207E2093F200887F97709695B3
:1009E000879596958795969587958093F30080EEE9
:1009F0008093F6008FE78093F7000895DF92EF92DF
:100A0000FF920F931F93CF93DF93E8EDF0E0908177
:100A10009160908340936D02209369022FEF31EE35
:100A200094E0215030409040E1F700C000008093F6
:100A3000E2007093E3006093E40080EB8093DB00BE
:100A40008FEF8093E500EAE6F2E011821082C0E0C9
:100A5000D0E00FEE10E00F2EFEEEEF2EF12CF02D79
:100A60006894DD24D7F8C53060F4F70180811082E6
:100A7000CE010E94B804F801D0828C2F0E9430046D
:100A800002C0F80110822196CF30D10561F7109293
:100A90006C0282E08093D800DF91CF911F910F917B
:100AA000FF90EF90DF9008951092ED008091EF009D
:100AB000807C99F021E030E0ADEEB0E0EFEEF0E0C8
:100AC000822FA90142955295507F5427407F542789
:100AD0004C939081907C19F4089580E008952F5FE5
:100AE0003F4F2F30310561F78FEF08959B01AC0127
:100AF00063E174E08EE190E00E94FE040895CF93DC
:100B0000DF93EC010E9454058F3FF1F190E1899F42
:100B1000900111242093ED00EEEEF0E09081108220
:100B20009A819F709093EF009A81992369F0FE015A
:100B3000339690E0AAEFB0E021912C939F5F2A8139
:100B4000921710F49830C1F71092F0001092F10053
:100B500098819295990F907E9093F2002881398127
:100B6000287F3770369527953695279536952795A2
:100B70002093F300EFEEF0E09081906490830E9468
:100B8000300480E090E002C082E090E0DF91CF91FD
:100B900008951F93CF93DF93009709F483C02091AA
:100BA0006C02222309F481C01092ED0020916A02A8
:100BB00020FD25C021E030E0ADEEB0E0122FA9010C
:100BC00042955295507F5427407F54274C9323FBE6
:100BD000662760F970E0FB01E659FD4F408150E067
:100BE000E22FE77002C055954795EA95E2F740FD80
:100BF00007C02F5F3F4F2F30310501F759C010E07C
:100C00002091EF002F70FC0122833091F20040917F
:100C1000F30032953695377050E0440F551F440F5E
:100C2000551F440F551F432B51834083222391F0BE
:100C30003396215030E02C5F3F4F280F391F0B9621
:100C4000AAEFB0E04C914193E217F30719F08E1729
:100C50009F07C1F7F89480916C02815080936C02D9
:100C60007894812F90E00E94B804812F0E94300474
:100C700013FBFF27F0F9CF2F80E0D82FC659DD4FA7
:100C80002881177081E090E002C0880F991F1A95A3
:100C9000E2F780958223888380E88093EF0080E0EC
:100CA00090E008C082E090E005C081E090E002C0E2
:100CB00081E090E0DF91CF911F91089580916902CA
:100CC000089580916D02089580B180958F70089588
:100CD000CF92DF92EF92FF920F931F93CF93DF9308
:100CE0006C0180E691E09F938F930E94ED0EF601D8
:100CF00081818F9380818F938FE691E09F938F9373
:100D00000E94ED0EF60182811F928F9386E791E09B
:100D10009F938F930E94ED0E8EE791E09F938F93A8
:100D20000E94ED0EF60182812DB73EB7245F3F4F42
:100D30000FB6F8943EBF0FBE2DBF8823E1F07601B9
:100D400033E0E30EF11CC0E0D0E004E811E0F7016D
:100D500081917F011F928F931F930F930E94ED0E3D
:100D60002196F601828190E00F900F900F900F90E6
:100D7000C817D90764F388E891E09F938F930E9486
:100D8000ED0E0F900F90DF91CF911F910F91FF907B
:100D9000EF90DF90CF900895CF93DF93CDB7DEB77C
:100DA0002B970FB6F894DEBF0FBECDBF80EF81B991
:100DB00082B90E94640D2FEF81EE94E021508040B3
:100DC0009040E1F700C0000012B863E080E00E94AC
:100DD0000610789460E07BE480E090E00E94B10E21
:100DE00063E081E00E9406108AE992E00E94AF0D64
:100DF0000E946406F82EC82ED12C1F928F938CE986
:100E000091E09F938F930E94ED0E8AEF90E00E94F5
:100E1000AF0DB60184E090E00E94760563E082E0C9
:100E20000E9406100E947D010E9469008F2D0E9481
:100E3000AA009FE088E10FB6F894A895809360001F
:100E40000FBE909360000E94790984EF91E00E94A8
:100E5000AF0D60E080E00E94061060E081E00E943B
:100E6000061060E083E00E9406100F900F900F9034
:100E70000F900F2EF8E2CF2ED12CE12CF12CF02D7B
:100E8000CE0101960E94C905892BC9F463E083E075
:100E90000E9406100E94880DA70196010E94BA10B8
:100EA000C9010E942E10CE0101960E946806CE0153
:100EB00001960E94780760E083E00E9406100E947D
:100EC000DC0980FF09C063E082E00E94061060E058
:100ED00081E00E94061008C063E081E00E940610D5
:100EE00060E082E00E9406100E94EB09A895C8CF3E
:100EF000CF92DF92EF92FF92CF93DF93EC010E94AB
:100F0000AC039F938F9384EA91E09F938F930E9409
:100F1000ED0ECE010E94AC030F900F900F900F903A
:100F20008A30910509F497C064F48330910509F47F
:100F300042C08430910509F479C0892B09F0C3C0FF
:100F400012C0803F910509F47DC024F40C9709F488
:100F50007CC0B9C0843F910509F489C08F3F9105D9
:100F600009F495C0B0C0CE010E947103C82F1F9232
:100F70008F9382EB91E09F938F930E94ED0E0F90E1
:100F80000F900F900F90C13061F40E94DC098260D5
:100F90000E94D9090E9437010E94E8080E94C509F1
:100FA000B2C0C111B0C00E94DC098D7F0E94D90976
:100FB0000E94C509A8C0CE010E9474039F938F931D
:100FC0007F936F938FEB91E09F938F930E94ED0E31
:100FD0000E94DC090F900F900F900F900F900F90D0
:100FE00081FD91C0CE010E947403992324F4615EB7
:100FF0007F4F8F4F9F4F6B017C01689414F8F594DD
:10100000E794D794C7941694D1F7DF92CF9283EDEB
:1010100091E09F938F930E94ED0E8C2D9D2D0E9449
:10102000B3080F900F900F900F906DC0CE010E94EB
:101030007C03682F70E080E090E00E9468010E94CD
:10104000E80861C00E94CF095EC060E070E0CB019B
:101050000E94400158C0CE010E94850360930001A8
:101060007093010180930201909303014CC0CE0163
:101070000E946E03665F7F4F8F4F9F4F24E130E0E9
:1010800040E050E00E94BA10209304013CC08FEE73
:1010900091E09F938F930E94ED0E62E080E00E94AA
:1010A00006100E94880D28E230E040E050E00E94E7
:1010B000BA10C9010E942E1060E080E00E94061064
:1010C0000F900F9020C08B811F928F9386EF91E03D
:1010D0009F938F930E94ED0E62E080E00E940610C5
:1010E0000E94880D28E230E040E050E00E94BA10F3
:1010F000C9010E942E1060E080E00E9406100F904F
:101100000F900F900F90DF91CF91FF90EF90DF90B5
:10111000CF900895811524E0920714F08FEF93E0AB
:10112000BC0161308CEF780714F461E07CEF61154D
:10113000710521F080919C0280FD07C060E070E0A5
:1011400083E00E94AD0C73980895772334F472996C
:10115000729871956195710902C0729B729A83E0D1
:101160000E94AD0C0895CF93DF93EC010E94880D8F
:101170006093890270938A0280938B0290938C0211
:1011800080919C0280FD05C080E090E00E948A086A
:1011900007C0D0936F02C0936E02CE010E948A08EE
:1011A000DF91CF910895009721F09093930280935F
:1011B00092020895009721F0909373028093720237
:1011C0000895009721F090939102809390020895E2
:1011D000CF92DF92EF92FF926B017C01FF92EF9230
:1011E000DF926F938BE092E09F938F930E94ED0EBE
:1011F00080917802909179028C199D090E942810A3
:101200000F900F900F900F900F900F9085369105D3
:1012100040F01092740210927502109276021092B1
:101220007702C0927802D0927902E0927A02F0922C
:101230007B02FF90EF90DF90CF900895CF93DF93E4
:10124000EC01DF93CF9383E292E09F938F930E9410
:10125000ED0ED0937D02C0937C020F900F900F9003
:101260000F90CD37D105C8F481E0809388028DE7D7
:1012700090E0BE010E94921041E09E0136952795B4
:101280002817390708F040E08DE790E0BE010E9482
:101290009210640F60938F0215C0109288029E0115
:1012A000AFEAB7E40E94FB10C81BD90BD695C795CF
:1012B0008C0F9D1F929582958F7089279F7089272B
:1012C00080938F0280918F021F928F93809188026A
:1012D0001F928F938BE392E09F938F930E94ED0E6A
:1012E0000F900F900F900F900F900F90DF91CF9174
:1012F000089573986B9A6A9A729A8098749A6D9A04
:1013000083E08BB980E094E0A0E0B0E080937E02BF
:1013100090937F02A0938002B093810288E893E1CA
:10132000909397028093960210927802109279021D
:1013300010927A0210927B02109271021092700247
:1013400010926F0210926E028CE890E090939302DC
:101350008093920284E190E09093730280937202F2
:1013600084E690E090939102809390021092840220
:101370001092850210928602109287028AEF90E006
:101380000E941E090E947D01089580919C02816047
:1013900080939C0260E080E00E940610089580E047
:1013A00090E00E948A0880919C028E7F80939C022C
:1013B000089580939C02089580919C02089529B11C
:1013C00086B190E08095909586958170922F90954A
:1013D0009270892B08954F925F926F927F928F92B5
:1013E0009F92AF92BF92CF92DF92EF92FF920F93B4
:1013F0001F93CF93DF93CDB7DEB72F970FB6F89437
:10140000DEBF0FBECDBF80919C0281FD1BC010923C
:101410009D020E94880D0091890210918A022091FC
:101420008B0230918C02DC01CB01801B910BA20B53
:10143000B30B833E9440A105B10520F010926F02DA
:1014400010926E0290919E0280910401981798F07C
:101450000E9437010E9449017B018C0124E041E098
:1014600062E0CE0101960E943603CE0101960E94F1
:101470007F0510929E0264990AC010926F0210922A
:101480006E020E94CF0961E080E00E940610809108
:101490009C0281FFF9C180919D02882309F4F4C167
:1014A00080918802882309F46FC060918F0270E0F8
:1014B00080917002909171020E949210892B09F024
:1014C000C6C08091780290917902A0917A02B09181
:1014D0007B02409184025091850260918602709156
:1014E0008702481759076A077B072CF56C017D01B5
:1014F000C41AD50AE60AF70AA701960165E070E06A
:1015000080E090E00E94FC0F00918402109185021F
:101510002091860230918702DC01CB01800F911F60
:10152000A21FB31F8093840290938502A09386022A
:10153000B09387028CC084179507A607B7070CF0F5
:1015400086C09A01AB01281B390B4A0B5B0B65E087
:1015500070E080E090E00E94FC0F00918402109106
:101560008502209186023091870268017901C61AAE
:10157000D70AE80AF90AC0928402D0928502E09262
:101580008602F092870263C080917802909179027E
:10159000A0917A02B0917B02409184025091850221
:1015A0006091860270918702481759076A077B0786
:1015B00034F57C018D01E41AF50A060B170BA8011E
:1015C000970160918F0270E080E090E00E94FC0F34
:1015D0000091840210918502209186023091870249
:1015E000DC01CB01800F911FA21FB31F80938402E7
:1015F00090938502A0938602B093870228C0841737
:101600009507A607B7071CF59A01AB01281B390BF4
:101610004A0B5B0B60918F0270E080E090E00E94CB
:10162000FC0F009184021091850220918602309176
:10163000870268017901C61AD70AE80AF90AC09236
:101640008402D0928502E0928602F09287020E9484
:1016500037014B015C018091840290918502A09139
:101660008602B091870275016401C81AD90AEA0A94
:10167000FB0A009198021091990220919A023091F0
:101680009B020C871D872E873F87C0929802D092BD
:101690009902E0929A02F0929B02C6010E942810E1
:1016A0000597A0F08091740290917502A091760246
:1016B000B09177028C0D9D1DAE1DBF1D80937402ED
:1016C00090937502A0937602B0937702809178028E
:1016D000909179029401281B390BC9010E942810AE
:1016E000049728F410926F0210926E0290C08091BD
:1016F000740290917502A0917602B09177028130C8
:1017000033E09307A105B1056CF080E093E0A0E021
:10171000B0E08093740290937502A0937602B09328
:10172000770211C081159D4FAF4FBF4F64F480E029
:101730009DEFAFEFBFEF8093740290937502A0937B
:101740007602B0937702A0917202B0917302209159
:1017500074023091750240917602509177020E9496
:101760000A1124E130E040E050E00E94DC10290141
:101770003A01A0919202B0919302A70196010E94B2
:101780000A1124E130E040E050E00E94DC10420EFB
:10179000531E641E751EA70196018C859D85AE851E
:1017A000BF85281B390B4A0B5B0BA0919002B091AF
:1017B00091020E940A1124E130E040E050E00E94D2
:1017C000DC10420E531E641E751E91E8491691E00E
:1017D00059066104710434F0412C512C3201689493
:1017E00047F85394A0E84A16AEEF5A06AFEF6A06E0
:1017F0007A064CF40F2EF0E84F2EFEEF5F2E662493
:101800006A94762CF02D50926F0240926E02809175
:101810008202909183029C01220F331F220F331FFB
:10182000220F331F820F931F0AE010E0B8010E94BD
:10183000A6107B010E94B501B8010E94A610E60E19
:10184000F71EF0928302E092820280916F028F93E2
:1018500080916E028F939F928F9284E592E09F9386
:101860008F930E94ED0E809170029091710201960B
:10187000909371028093700210929D020F900F90CE
:101880000F900F900F900F900E94DF09F82E80FFAD
:1018900027C080919C0282FF03C08B7F80939C02B3
:1018A0008091780290917902A0917A02B0917B02A6
:1018B000BB2344F4109278021092790210927A02BB
:1018C00010927B0280916E0290916F02992344F4F2
:1018D00010926F0210926E0280E090E00E948A08DF
:1018E000F1FE18C00E949C0180919C0282FF03C0FF
:1018F0008B7F80939C0280916E0290916F021816EC
:10190000190644F410926F0210926E0280E090E08B
:101910000E948A0880916E0290916F029195819544
:1019200091090E948A082F960FB6F894DEBF0FBE69
:10193000CDBFDF91CF911F910F91FF90EF90DF907E
:10194000CF90BF90AF909F908F907F906F905F905F
:101950004F90089580935C0208957370843071F005
:101960008530B1F08330E9F4E0E9F0E0808180680F
:10197000808370939900609398000895E0E9F0E007
:1019800080818062808370939B0060939A000895A9
:10199000E0E9F0E080818860808370939D0060932F
:1019A0009C0008951F920F920FB60F921124449835
:1019B0000F900FBE0F901F901895EFE6F0E080811A
:1019C000846080833C9A87E791E090938B008093BA
:1019D0008A000895853B9105ACF48230910514F49A
:1019E00082E090E0AC01440F551F9C01992314F450
:1019F0002F5F3F4F35952795240F351F30938B0070
:101A000020938A0008951F920F920FB60F9211240F
:101A10002F933F934F935F936F937F938F939F93F6
:101A2000AF93BF93EF93FF9380919F029091A00299
:101A3000A091A102B091A2020196A11DB11D8093B7
:101A40009F029093A002A093A102B093A202809162
:101A50009E028F5F80939E0280919F029091A002D0
:101A6000A091A102B091A20287709927AA27BB2753
:101A7000892B8A2B8B2B51F480919F029091A0028D
:101A8000A091A102B091A2020E942E1080919F020B
:101A90009091A002A091A102B091A20280FD03C08A
:101AA00081E080939D02FF91EF91BF91AF919F9153
:101AB0008F917F916F915F914F913F912F910F90F7
:101AC0000FBE0F901F90189583E484BD81E0809332
:101AD0006E009BE19093810093E09093800028E852
:101AE00033E1309389002093880010928500109292
:101AF000840080936F0090939000809391001092E7
:101B00009F021092A0021092A1021092A2020895C8
:101B10000F931F9380919F029091A002A091A10228
:101B2000B091A202880F991FAA1FBB1F880F991F8F
:101B3000AA1FBB1FAC01BD01440F551F661F771FB5
:101B4000440F551F661F771F8C019D01040F151F41
:101B5000261F371FC901B8011F910F910895CF9219
:101B6000DF92EF92FF920F931F93C0909F02D0904D
:101B7000A002E090A102F090A202CC0CDD1CEE1CB1
:101B8000FF1CCC0CDD1CEE1CFF1CB701A601440F92
:101B9000551F661F771F440F551F661F771FC40E02
:101BA000D51EE61EF71EA0E0B0E040919F025091C6
:101BB000A0026091A1027091A202440F551F661FFE
:101BC000771F440F551F661F771F8A019B01000F67
:101BD000111F221F331F000F111F221F331F400F21
:101BE000511F621F731F4C195D096E097F09481749
:101BF00059076A077B07C8F21F910F91FF90EF907A
:101C0000DF90CF9008951F920F920FB60F9211247C
:101C10008F93EF93FF938091B402813120F080E1A4
:101C20008093B4020CC0E091B40281E08E0F8093E7
:101C3000B402F0E08091CE00EB54FD4F8083FF9121
:101C4000EF918F910F900FBE0F901F9018951F92DC
:101C50000F920FB60F9211248F939F93EF93FF93E0
:101C6000E091C50281E08E0F8093C502F0E0ED5552
:101C7000FD4F80818093CE009091C5028091B30288
:101C8000981720F48091C502813148F0E9ECF0E02A
:101C900080818F7D80831092B3021092C502FF91E4
:101CA000EF919F918F910F900FBE0F901F901895FD
:101CB000AF92BF92CF92DF92EF92FF921F93CF939A
:101CC000DF931F92CDB7DEB75C01162F8091B30270
:101CD000882329F0E9ECF0E0808180628083112381
:101CE000A9F16894CC24C4F8D12C0F2EF9ECEF2E76
:101CF000F12CF02D8091B3028F30E0F78091B30288
:101D0000212F30E040E050E0B601681B7109072E3A
:101D1000000C880B990B0E94FC0F6983498180910C
:101D2000B30290E050E0B5018D559D4F0E94151112
:101D300099818091B302890F8093B3028981181B26
:101D4000F7018081806280831111D4CF0F90DF91E1
:101D5000CF911F91FF90EF90DF90CF90BF90AF9009
:101D600008959B01AC011092B4021092B30210923C
:101D7000C5021092C80060E472E48FE090E00E9417
:101D8000BA10215031093093CD002093CC0086E069
:101D90008093CA0088E98093C9000895CF93DF93A8
:101DA0001F92CDB7DEB789838A3019F48DE00E9487
:101DB000CE0E61E0CE0101960E94580E0F90DF9189
:101DC000CF910895FC0101900020E9F73197BF0100
:101DD000681B790B0E94580E08952F923F924F92E4
:101DE0005F926F927F928F929F92AF92BF92CF92AB
:101DF000DF92EF92FF920F931F93CF93DF93CDB7B4
:101E0000DEB72B970FB6F894DEBF0FBECDBFFE0135
:101E1000B096E190F1906F01F701B080BB2009F41A
:101E2000D2C000E010E00F2EF0E14F2EF7E25F2E5F
:101E3000612C712CF02DF5E2BF16D1F08B2D0E9494
:101E4000CE0E2CE5B212B7C00F5F1F4FF701E00FA7
:101E5000F11F80818A3029F08C3539F40E94CE0E32
:101E6000AAC08AE00E94CE0EA6C0853209F0A3C0A7
:101E70000F5F1F4FF701E00FF11F8081843609F4D7
:101E800075C038F4883509F45EC0833609F488C01B
:101E90008FC08C3621F0833709F479C089C0C60120
:101EA00004969B878A87F60180809180A280B38008
:101EB0008114F0E89F06A104B104BCF1C501B4018E
:101EC000A30192010E94DC1049015A01C62ED72EAF
:101ED000282E392E4AE0BE016F5F7F4FC4010E9459
:101EE0001E11CE0101960E94E20E8C2C9D2CA22C7C
:101EF000B32C28EE821623E09206A104B1041CF450
:101F000080E30E94CE0E84E688169104A104B104F9
:101F10001CF480E30E94CE0E9AE089169104A1047D
:101F2000B1041CF480E30E94CE0E4AE0BE016F5F54
:101F30007F4FC4010E941E11CE0101960E94E20E45
:101F4000CA84DB8438C05601E4E0AE0EB11C40E127
:101F5000BE016F5F7F4FF601808191810E941E114B
:101F6000CE0101960E94E20E650125C0F6014AE00D
:101F7000BE016F5F7F4F80819181F2E0CF0ED11C57
:101F80000E941E11CE0101960E94E20E14C0F601BD
:101F90008081918122E0C20ED11C0E94E20E0BC012
:101FA000F601808192E0C90ED11C0E94CE0E03C0C2
:101FB0008FE30E94CE0E0F5F1F4FF701E00FF11F5E
:101FC000B080B11038CF2B960FB6F894DEBF0FBE9D
:101FD000CDBFDF91CF911F910F91FF90EF90DF90D8
:101FE000CF90BF90AF909F908F907F906F905F90B9
:101FF0004F903F902F9008956217730784079507BD
:1020000014F49B01AC01CA01B90108958430F8F4BD
:102010006430E8F49FEF960F923018F493E0961B2B
:10202000692F880F23E030E0082E02C0220F331FF3
:102030000A94E2F720959091C602292370E002C02D
:10204000660F771F8A95E2F7622B6093C6020895A8
:1020500099231CF49195819591090895EF92FF922F
:102060000F931F93CF93DF937C018091C602811160
:1020700002C012B83BC0E4E0F0E0C0E0D0E001E014
:1020800010E08091C60290E00C2E02C095958795D5
:102090000A94E2F7282F237069F0622F70E0660F30
:1020A000771F6F5F7F4FC7010E949210892B79F0D5
:1020B000233069F092B198010E2E02C0220F331F17
:1020C0000A94E2F7822F8095892382B90AC022B14F
:1020D000C8010E2E02C0880F991F0A94E2F7822BC6
:1020E00082B922963196E830F10559F6DF91CF9109
:1020F0001F910F91FF90EF900895909306018093A8
:1021000005010895DB018F939F930E940A11BF91EF
:10211000AF91A29F800D911DA39F900DB29F900D36
:1021200011240895AA1BBB1B51E107C0AA1FBB1FA6
:10213000A617B70710F0A61BB70B881F991F5A9553
:10214000A9F780959095BC01CD01089597FB072EC6
:1021500016F4009407D077FD09D00E94921007FC76
:1021600005D03EF4909581959F4F089570956195A7
:102170007F4F0895A1E21A2EAA1BBB1BFD010DC0C3
:10218000AA1FBB1FEE1FFF1FA217B307E407F50727
:1021900020F0A21BB30BE40BF50B661F771F881F03
:1021A000991F1A9469F760957095809590959B0199
:1021B000AC01BD01CF010895052E97FB1EF40094DC
:1021C0000E94F31057FD07D00E94BA1007FC03D0FD
:1021D0004EF40C94F31050954095309521953F4F57
:1021E0004F4F5F4F089590958095709561957F4F03
:1021F0008F4F9F4F0895A29FB001B39FC001A39F2F
:10220000700D811D1124911DB29F700D811D11242F
:10221000911D08950E94FB10A59F900DB49F900DF5
:10222000A49F800D911D11240895FB01DC0102C0C3
:1022300001900D9241505040D8F70895BB274A3085
:1022400031F4992322F4BDE2909581959F4F0C942F
:102250002A11BB27FB015527AA27880F991FAA1F00
:10226000A41710F0A41B83955051B9F7A05DAA33B1
:1022700008F0A95DA193009779F7B111B19311927C
:10228000CB010C944311DC01FC01672F7191772382
:10229000E1F7329704C07C916D9370836291AE1721
:0A22A000BF07C8F30895F894FFCFBC
:1022AA00010000000564005245562E20312066695F
:1022BA00726D776172650A00446574656374696E4C
:1022CA006720626F617264207265763A2025640A1B
:1022DA00002A2A2A5741524E494E472A2A2A205270
:1022EA0065762E2031206669726D77617265206F7E
:1022FA006E205265762E203220626F6172640A0067
:10230A002D43414E204D4553534147452D0A00491F
:10231A00443D25580A00444C433D25640A00446163
:10232A0074613A00202558000A2D454E4420434145
:10233A004E204D4553534147452D0A006164723D75
:10234A0025580A007061636B65742049443D256411
:10235A000A006D6F6465207365742025640A005055
:10236A00574D2066726F6D207061636B65743D25F1
:10237A00640A0053657474696E672050574D20745F
:10238A006F20256420287363616C6564290A0045FF
:10239A0072726F720A00556E6B6E6F776E204341D0
:1023AA004E20636F64652025640A0073657474693E
:1023BA006E6720746172676574207020746F2025BF
:1023CA006C0A0073657474696E672074617267655C
:1023DA0074207620746F20256C0A00736C6F772046
:1023EA003D2025642C207467745F696E63203D204C
:0C23FA0025640A0025642025640A000008
:00000001FF
