:100000000C944A000C9467000C9467000C946700F1
:100010000C9467000C9467000C9467000C94EA0140
:100020000C9476020C9467000C9467000C946700A3
:100030000C9467000C9467000C9467000C94690B97
:100040000C9467000C9410010C94BB030C94670093
:100050000C9467000C9467000C9467000C94670084
:100060000C9467000C9467000C9467000C94670074
:100070000C9467000C9467000C9467000C94670064
:100080000C94500C0C94740C0C9467000C94670046
:100090000C94670011241FBECFEFD8E0DEBFCDBFA8
:1000A00011E0A0E0B1E0E8E2FFE102C005900D92AE
:1000B000A43DB107D9F722E0A4EDB1E001C01D9243
:1000C000A234B207E1F70E945F050C94920F0C94E2
:1000D000000080E480937C00EAE7F0E086E0808323
:1000E0008081806880830895ECE7F0E09081907CC7
:1000F0008770892B8083EAE7F0E0808180648083C9
:10010000808186FDFDCF809178002091790090E07C
:10011000922B089580917C00807C803C61F0ECE71C
:10012000F0E08081806C808385E090E00E942B0C61
:1001300080E00E94740008950E948A0080E00E947E
:100140007400815891408F3F910510F081E008952F
:1001500082E00895CF93C82F63E083E00E94530E9E
:1001600060E070E088E790E00E94F40660E070E0F4
:1001700084E190E00E94FB0660E070E08AEA90E093
:100180000E940207C23071F018F4CC2331F01DC078
:10019000C33081F0C63099F018C08CEA90E00E941C
:1001A000CC0E13C081E00E941C0B85E590E00E94FC
:1001B000CC0E0BC084E490E00E94CC0E06C00E94DE
:1001C000440B80E090E00E94510B86E091E09F9309
:1001D0008F930E943A0D0E949C00C82F1F928F930C
:1001E00087E191E09F938F930E943A0D0F900F90BB
:1001F0000F900F900F900F90C23081F080E391E04C
:100200009F938F930E943A0D63E080E00E94530E0B
:1002100088EE93E00E942B0C0F900F90CF910895E1
:100220001F920F920FB60F9211248F939F9380917C
:10023000DC018F5F8093DC019091DC018091DB0118
:1002400098130EC08091DF019091E0019093DE0140
:100250008093DD011092DC011092E0011092DF0129
:100260009F918F910F900FBE0F901F9018956091E6
:10027000E1017091E2018091E3019091E401089520
:100280006093E1017093E2018093E3019093E401B4
:1002900008958DB38F738DBB8DB18F738DB98EB172
:1002A000806C8EB91092E1011092E2011092E3018C
:1002B0001092E40188E18093DB01EAE6F0E08081BE
:1002C00080658083109269008DB3806C8DBB08952A
:1002D0008DB38F738DBB1092E1011092E2011092E9
:1002E000E3011092E4011092E0011092DF011092FC
:1002F000DE011092DD011092DC018DB3806C8DBBAC
:1003000008958091DD019091DE012091DB0128317B
:1003100059F59C012C5F3F4F2930310518F42AE72D
:100320002093DB014CE3489F9001499F300D11243D
:10033000332314F42D5F3F4F359527953595279539
:100340008091D9019091DA0199230CF40396959547
:10035000879595958795280F391F3093DA0120935B
:10036000D901822F932F08952091DB012A3779F547
:100370009C01205B3F4F213A310518F028E1209382
:10038000DB019C01220F331F820F931F880F991FDF
:10039000880F991F9C01992314F42D5F3F4F3595C9
:1003A0002795359527958091D9019091DA01992368
:1003B0000CF403969595879595958795280F391F89
:1003C0003093DA012093D901822F932F08958FEF74
:1003D0009FEF08951F920F920FB60F9211248F93E3
:1003E0009F93AF93BF938CB186FF3CC08823ECF4FE
:1003F0008091E1019091E201A091E301B091E401CB
:100400000196A11DB11D8093E1019093E201A0939B
:10041000E301B093E4018091DF019091E001019646
:100420009093E0018093DF0158C08091E1019091A9
:10043000E201A091E301B091E4010197A109B109A2
:100440008093E1019093E201A093E301B093E40172
:100450008091DF019091E00101979093E0018093FA
:10046000DF013BC08823ECF48091E1019091E2012F
:10047000A091E301B091E4010197A109B109809332
:10048000E1019093E201A093E301B093E401809134
:10049000DF019091E00101979093E0018093DF01EB
:1004A0001CC08091E1019091E201A091E301B09123
:1004B000E4010196A11DB11D8093E1019093E20139
:1004C000A093E301B093E4018091DF019091E001FA
:1004D00001969093E0018093DF01BF91AF919F91CE
:1004E0008F910F900FBE0F901F9018951F920F9233
:1004F0000FB60F9211248F939F93AF93BF938CB13C
:100500008823E4F586FF1DC08091E1019091E2010E
:10051000A091E301B091E4010197A109B109809391
:10052000E1019093E201A093E301B093E401809193
:10053000DF019091E00101979093E0018093DF014A
:1005400058C08091E1019091E201A091E301B09146
:10055000E4010196A11DB11D8093E1019093E20198
:10056000A093E301B093E4018091DF019091E00159
:1005700001969093E0018093DF013BC086FF1DC090
:100580008091E1019091E201A091E301B091E40139
:100590000196A11DB11D8093E1019093E201A0930A
:1005A000E301B093E4018091DF019091E0010196B5
:1005B0009093E0018093DF011CC08091E101909154
:1005C000E201A091E301B091E4010197A109B10911
:1005D0008093E1019093E201A093E301B093E401E1
:1005E0008091DF019091E00101979093E001809369
:1005F000DF01BF91AF919F918F910F900FBE0F9030
:100600001F901895FC018481089542E050E061E05C
:1006100070E003960E942203089545E050E061E0F7
:1006200070E003960E942203862F089544E050E074
:1006300061E070E003960E9422030895FC0183812B
:1006400090E00895CF92DF92EF92FF92CF93DF93E5
:10065000141615069CF47723A4F0EA01C61BD70BE9
:100660002196C530D10514F0C4E0D0E0DD2314F4A8
:10067000C0E0D0E01C161D0634F02DC0C4E0D0E070
:1006800002C0C4E0D0E0DC01A60FB71F9E012150DC
:100690003109220F331F220F331F220F331FE0E0D7
:1006A000F0E0C12CD12C76014D9150E0022E02C019
:1006B000440F551F0A94E2F7052E000C660B770BCA
:1006C000C42AD52AE62AF72A319628503109EC1790
:1006D000FD0754F303C0C12CD12C7601C701B6012C
:1006E000DF91CF91FF90EF90DF90CF900895883009
:1006F00080F4EEEDF0E0408121E030E0B90102C08D
:10070000660F771F8A95E2F7CB018095842380835B
:100710000895EFEDF0E04081885021E030E0B9012C
:1007200002C0660F771F8A95E2F7CB01809584237C
:1007300080830895883078F4EEEDF0E0408121E088
:1007400030E0B90102C0660F771F8A95E2F7CB014E
:10075000842B80830895EFEDF0E04081885021E004
:1007600030E0B90102C0660F771F8A95E2F7CB012E
:10077000842B808308951F920F920FB60F9211243D
:100780002F933F934F935F936F937F938F939F9399
:10079000AF93BF93CF93EF93FF93C091ED00809100
:1007A000EC00807F803FB1F18091EC0082958F70EA
:1007B00090E1899F900111242093ED009091EE002B
:1007C00096FF09C0EEEEF0E0908110821092EF00EB
:1007D0000E949A0323C09091E8019F5F9093E801E3
:1007E000E82FE695E695E695F0E0EA51FE4F908118
:1007F000482F477021E030E002C0220F331F4A9596
:10080000E2F7292B2083EEEEF0E0908110820E9427
:10081000770304C0EAEDF0E080818083C093ED00AF
:10082000FF91EF91CF91BF91AF919F918F917F9168
:100830006F915F914F913F912F910F900FBE0F904D
:100840001F9018959C01332722953295307F3227CF
:10085000207F32272093ED009C0121503109223066
:10086000310540F48091E90120E4829FC001112408
:100870008F630FC00397029750F48091E90120E441
:10088000829FC00111242091E501822B02C08FE3D9
:1008900090E01092F4001092F5001092F000109287
:1008A000F100282F2295220F207E2093F200887FCE
:1008B0009770969587959695879596958795809349
:1008C000F30080EE8093F6008FE78093F7000895A1
:1008D000DF92EF92FF920F931F93CF93DF93E8ED98
:1008E000F0E09081916090834093E9012093E501CD
:1008F0002FEF31EE94E0215030409040E1F700C0FE
:1009000000008093E2007093E3006093E40080EBCA
:100910008093DB008FEF8093E500E6EEF1E011823B
:100920001082C0E0D0E00FEE10E00F2EFEEEEF2EB2
:10093000F12CF02D6894DD24D7F8C53060F4F70170
:1009400080811082CE010E942204F801D0828C2F77
:100950000E949A0302C0F80110822196CF30D1057F
:1009600061F71092E80182E08093D800DF91CF9187
:100970001F910F91FF90EF90DF9008959B01AC01C4
:1009800063E174E08EE190E00E94680408951F9393
:10099000CF93DF93009709F483C02091E8012223CD
:1009A00009F481C01092ED002091E60120FD25C0E0
:1009B00021E030E0ADEEB0E0122FA9014295529552
:1009C000507F5427407F54274C9323FB662760F9C0
:1009D00070E0FB01EA51FE4F408150E0E22FE770EA
:1009E00002C055954795EA95E2F740FD07C02F5F95
:1009F0003F4F2F30310501F759C010E02091EF0033
:100A00002F70FC0122833091F2004091F300329567
:100A10003695377050E0440F551F440F551F440F53
:100A2000551F432B51834083222391F0339621504D
:100A300030E02C5F3F4F280F391F0B96AAEFB0E034
:100A40004C914193E217F30719F08E179F07C1F7F6
:100A5000F8948091E80181508093E8017894812F87
:100A600090E00E942204812F0E949A0313FBFF272B
:100A7000F0F9CF2F80E0D82FCA51DE4F28811770B0
:100A800081E090E002C0880F991F1A95E2F78095E7
:100A90008223888380E88093EF0080E090E008C0A4
:100AA00082E090E005C081E090E002C081E090E04B
:100AB000DF91CF911F9108958091E5010895CF9323
:100AC000DF93CDB7DEB72B970FB6F894DEBF0FBE1E
:100AD000CDBF80EF81B982B90E94C50B2FEF81EEA7
:100AE00094E0215080409040E1F700C0000012B82F
:100AF00063E080E00E94530E789460E07BE480E045
:100B000090E00E94FE0C63E081E00E94530E8AE9AF
:100B100092E00E942B0C0E945C05F82EC82ED12C6E
:100B20001F928F938FE591E09F938F930E943A0DD0
:100B30008AEF90E00E942B0CB60184E090E00E94C6
:100B4000BE0463E082E00E94530E0E9449010E94AD
:100B500069008F2D0E94AA009FE088E10FB6F894EB
:100B6000A895809360000FBE909360000E949A0742
:100B700084EF91E00E942B0C60E080E00E94530E15
:100B800060E081E00E94530E60E083E00E94530E1B
:100B90000F900F900F900F900F2EF8E2CF2ED12CC8
:100BA000E12CF12CF02DCE0101960E94C704892B77
:100BB000A9F463E083E00E94530E0E94E90BA701B1
:100BC00096010E94F90EC9010E947B0ECE0101968A
:100BD0000E94070660E083E00E94530E0E94FD071A
:100BE00080FF09C063E082E00E94530E60E081E074
:100BF0000E94530E08C063E081E00E94530E60E043
:100C000082E00E94530E0E944F08A895CCCFCF934C
:100C1000DF93EC010E941E038A30910509F470C035
:100C20005CF48330910579F18430910509F445C075
:100C3000892B09F08DC00CC0803F910509F457C085
:100C40008F3F910509F468C00C9709F081C052C02C
:100C5000CE010E940203813061F40E94FD07826090
:100C60000E94FA070E9437010E9409070E94E607C6
:100C70008FC081118DC00E94FD078D7F0E94FA07F1
:100C80000E94E60785C00E94FD0781FD81C0CE015C
:100C90000E940503992324F4615E7F4F8F4F9F4F7D
:100CA000DC01CB01689414F8B595A79597958795C5
:100CB0001694D1F70E9409086BC0CE010E940D0363
:100CC00020910001309101014091020150910301F6
:100CD000A82FB0E00E94490F20E43EE745E050E035
:100CE0000E94F90ECA01B9010E94090751C00E9471
:100CF000F0074EC060E070E0CB010E94400148C0A8
:100D0000CE010E941603609300017093010180934D
:100D10000201909303013CC087E691E09F938F937B
:100D20000E943A0D62E080E00E94530E0E94E90B9F
:100D300028E230E040E050E00E94F90EC9010E9434
:100D40007B0E60E080E00E94530E0F900F9020C059
:100D50008B811F928F938EE691E09F938F930E94D9
:100D60003A0D62E080E00E94530E0E94E90B28E2F7
:100D700030E040E050E00E94F90EC9010E947B0E75
:100D800060E080E00E94530E0F900F900F900F9044
:100D9000DF91CF910895811524E0920714F08FEF31
:100DA00093E0BC0161308CEF780714F461E07CEFD4
:100DB0006115710521F08091180280FD07C060E087
:100DC00070E083E00E941F0B73980895772334F43A
:100DD0007299729871956195710902C0729B729AAD
:100DE00083E00E941F0B0895009721F090930F025B
:100DF00080930E020895009721F09093EF01809365
:100E0000EE010895009721F090930D0280930C025B
:100E10000895CF92DF92EF92FF926B017C01FF92D7
:100E2000EF92DF926F9383E891E09F938F930E94FC
:100E30003A0D8091F4019091F5018C199D090E9461
:100E4000750E0F900F900F900F900F900F908536AA
:100E5000910540F01092F0011092F1011092F20110
:100E60001092F301C092F401D092F501E092F601E4
:100E7000F092F701FF90EF90DF90CF900895CF931D
:100E8000DF93EC01DF93CF938BE991E09F938F93F6
:100E90000E943A0DD093F901C093F8010F900F9082
:100EA0000F900F90CD37D105C8F481E080930402F4
:100EB0008DE790E0BE010E94D10E41E09E01369583
:100EC00027952817390708F040E08DE790E0BE012C
:100ED0000E94D10E640F60930B0215C010920402A1
:100EE0009E01AFEAB7E40E943A0FC81BD90BD69512
:100EF000C7958C0F9D1F929582958F7089279F7043
:100F0000892780930B0280910B021F928F9380910F
:100F100004021F928F9383EB91E09F938F930E9423
:100F20003A0D0F900F900F900F900F900F90DF9150
:100F3000CF91089573986B9A6A9A729A8098749A6E
:100F40006D9A83E08BB980E094E0A0E0B0E08093FC
:100F5000FA019093FB01A093FC01B093FD0188E896
:100F600093E190931302809312021092F401109275
:100F7000F5011092F6011092F7011092ED01109216
:100F8000EC011092EB011092EA018CE890E0909352
:100F90000F0280930E0284E190E09093EF01809322
:100FA000EE0184E690E090930D0280930C02109283
:100FB00000021092010210920202109203028AEFC4
:100FC00090E00E943F070E94490108958091180215
:100FD00081608093180260E080E00E94530E0895C3
:100FE00080E090E00E94CB06809118028E7F809373
:100FF00018020895809318020895809118020895A8
:1010000089B190E080959095867099279595879500
:101010000895CF93DF93EC010E94E90B60930502E2
:101020007093060280930702909308028091180241
:1010300080FD05C080E090E00E94CB062DC080912D
:10104000D801882319F0D195C195D109D093EB012E
:10105000C093EA010E94000880FF0BC02091EA01C2
:101060003091EB0133232CF41092EB011092EA0142
:101070000DC081FF0BC08091EA019091EB01181621
:10108000190624F41092EB011092EA018091EA0112
:101090009091EB010E94CB06DF91CF9108954F9282
:1010A0005F926F927F928F929F92AF92BF92CF92F8
:1010B000DF92EF92FF920F931F93CF93DF9300D0B5
:1010C00000D0CDB7DEB78091180281FD9DC210928D
:1010D00019020E9437016B017C018091D40190912B
:1010E000D501A091D601B091D701C816D906EA065C
:1010F000FB06C1F0FF92EF92DF92CF9287E991E079
:101100009F938F930E943A0DC092D401D092D50143
:10111000E092D601F092D7010F900F900F900F90B0
:101120000F900F900E94E90BC0900502D09006022C
:10113000E0900702F0900802DC01CB018C199D09B8
:10114000AE09BF09833E9440A105B10520F010927D
:10115000EB011092EA0164990AC01092EB0110921F
:10116000EA010E94F00761E080E00E94530E809146
:10117000180281FFF9C180911902882309F4F4C192
:1011800080910402882309F46FC060910B0270E023
:101190008091EC019091ED010E94D10E892B09F014
:1011A000C6C08091F4019091F501A091F601B09133
:1011B000F70140910002509101026091020270918A
:1011C0000302481759076A077B072CF57C018D013C
:1011D000E41AF50A060B170BA801970165E070E009
:1011E00080E090E00E94490EC0900002D090010281
:1011F000E0900202F0900302DC01CB018C0D9D1DFA
:10120000AE1DBF1D8093000290930102A0930202C5
:10121000B09303028CC084179507A607B7070CF09C
:1012200086C09A01AB01281B390B4A0B5B0B65E0AA
:1012300070E080E090E00E94490EC0900002D090E3
:101240000102E0900202F090030297018601061B62
:10125000170B280B390B0093000210930102209307
:1012600002023093030263C08091F4019091F50172
:10127000A091F601B091F701409100025091010256
:101280006091020270910302481759076A077B07B1
:1012900034F57C018D01E41AF50A060B170BA80141
:1012A000970160910B0270E080E090E00E94490E8F
:1012B000C0900002D0900102E0900202F090030280
:1012C000DC01CB018C0D9D1DAE1DBF1D8093000266
:1012D00090930102A0930202B093030228C08417E6
:1012E0009507A607B7071CF59A01AB01281B390B18
:1012F0004A0B5B0B60910B0270E080E090E00E9473
:10130000490EC0900002D0900102E0900202F090DD
:10131000030297018601061B170B280B390B00935C
:1013200000021093010220930202309303020E94F4
:1013300037014B015C018091000290910102A09164
:101340000202B091030275016401C81AD90AEA0ABF
:10135000FB0A20911402309115024091160250911F
:10136000170229833A834B835C83C0921402D09284
:101370001502E0921602F0921702C6010E94750E45
:101380000597A0F08091F0019091F101A091F201F8
:10139000B091F3018C0D9D1DAE1DBF1D8093F0011A
:1013A0009093F101A093F201B093F3018091F401C5
:1013B0009091F501A401481B590BCA010E94750EBA
:1013C000049728F41092EB011092EA0190C08091EA
:1013D000F0019091F101A091F201B091F3018130FF
:1013E00053E09507A105B1056CF080E093E0A0E023
:1013F000B0E08093F0019093F101A093F201B093DB
:10140000F30111C081159D4FAF4FBF4F64F480E0D1
:101410009DEFAFEFBFEF8093F0019093F101A093A8
:10142000F201B093F301A091EE01B091EF01209190
:10143000F0013091F1014091F2015091F3010E94CD
:10144000490F24E130E040E050E00E941B0F2901E9
:101450003A01A0910E02B0910F02A70196010E94DD
:10146000490F24E130E040E050E00E941B0F420EA3
:10147000531E641E751EA701960189819A81AB8156
:10148000BC81281B390B4A0B5B0BA0910C02B0915D
:101490000D020E94490F24E130E040E050E00E943C
:1014A0001B0F420E531E641E751E91E8491691E0F3
:1014B00059066104710434F0412C512C32016894B6
:1014C00047F85394A0E84A16AEEF5A06AFEF6A0603
:1014D0007A064CF40F2EF0E84F2EFEEF5F2E6624B6
:1014E0006A94762CF02D5092EB014092EA018091A3
:1014F000FE019091FF019C01220F331F220F331F29
:10150000220F331F820F931F6AE070E00E94E50EE6
:101510007B010E9481016AE070E00E94E50EE60E08
:10152000F71EF092FF01E092FE018091EB018F9394
:101530008091EA018F939F928F928CEC91E09F9320
:101540008F930E943A0D8091EC019091ED010196EC
:101550009093ED018093EC01109219020F900F907F
:101560000F900F900F900F900E940008F82E80FFB0
:1015700027C08091180282FF03C08B7F80931802DE
:101580008091F4019091F501A091F601B091F701DD
:10159000BB2344F41092F4011092F5011092F6016D
:1015A0001092F7018091EA019091EB01992344F4A4
:1015B0001092EB011092EA0180E090E00E94CB06CD
:1015C000F1FE18C00E9468018091180282FF03C0DA
:1015D0008B7F809318028091EA019091EB0118169D
:1015E000190644F41092EB011092EA0180E090E0B9
:1015F0000E94CB068091EA019091EB019195819533
:1016000091090E94CB0603C0649BA7CDB4CD0F9077
:101610000F900F900F90DF91CF911F910F91FF903E
:10162000EF90DF90CF90BF90AF909F908F907F9082
:101630006F905F904F9008958093D80108957370D4
:10164000843071F08530B1F08330E9F4E0E9F0E006
:1016500080818068808370939900609398000895DA
:10166000E0E9F0E080818062808370939B0060936A
:101670009A000895E0E9F0E08081886080837093AB
:101680009D0060939C000895269AE0E8F0E0808138
:101690008062808387E791E090938B0080938A003B
:1016A0000895843B910514F083EB90E01816190619
:1016B00014F081E090E09C0126503F4F63E070E021
:1016C0000E94E50E620F731F70938B0060938A0077
:1016D00008951F920F920FB60F9211242F933F93EC
:1016E0004F935F936F937F938F939F93AF93BF932A
:1016F000EF93FF9380911A0290911B02A0911C021C
:10170000B0911D020196A11DB11D80931A02909304
:101710001B02A0931C02B0931D0280911A029091AB
:101720001B02A0911C02B0911D0287709927AA2765
:10173000BB27892B8A2B8B2B51F480911A02909115
:101740001B02A0911C02B0911D020E947B0E809191
:101750001A0290911B02A0911C02B0911D0280FD03
:1017600003C081E080931902FF91EF91BF91AF9187
:101770009F918F917F916F915F914F913F912F91A9
:101780000F900FBE0F901F90189583E484BD81E0E9
:1017900080936E009BE19093810093E09093800092
:1017A00028E833E130938900209388001092850067
:1017B0001092840080936F0090939000809391002A
:1017C00010921A0210921B0210921C0210921D021B
:1017D0000895CF92DF92EF92FF9220918400309192
:1017E0008500C0901A02D0901B02E0901C02F0907D
:1017F0001D02CC0CDD1CEE1CFF1CCC0CDD1CEE1CF9
:10180000FF1CD701C601880F991FAA1FBB1F880F95
:10181000991FAA1FBB1FC80ED91EEA1EFB1E3695B4
:101820002795A3E1B3E80E943A0F0024880F991F7F
:10183000001C880F991F001C892F902DA70196016D
:10184000280F391F411D511DCA01B901FF90EF90AA
:10185000DF90CF9008958F929F92AF92BF92CF92D8
:10186000DF92EF92FF926C010E94E90B4B015C0149
:10187000E12CF12C0E94E90BDC01CB0188199909BC
:10188000AA09BB098C159D05AE05BF0598F3FF900D
:10189000EF90DF90CF90BF90AF909F908F90089582
:1018A0001F920F920FB60F9211248F93EF93FF9315
:1018B00080912F02813120F080E180932F020CC0B3
:1018C000E0912F0281E08E0F80932F02F0E0809153
:1018D000CE00E05DFD4F8083FF91EF918F910F90DF
:1018E0000FBE0F901F9018951F920F920FB60F9278
:1018F00011248F939F93EF93FF93E091400281E037
:101900008E0F80934002F0E0E25EFD4F8081809375
:10191000CE009091400280912E02981720F4809181
:101920004002813148F0E9ECF0E080818F7D8083D6
:1019300010922E0210924002FF91EF919F918F9191
:101940000F900FBE0F901F901895AF92BF92CF923D
:10195000DF92EF92FF921F93CF93DF931F92CDB749
:10196000DEB75C01162F80912E02882329F0E9EC66
:10197000F0E08081806280831123A9F16894CC24F7
:10198000C4F8D12C0F2EF9ECEF2EF12CF02D809114
:101990002E028F30E0F780912E02212F30E040E0C0
:1019A00050E0B601681B7109072E000C880B990BDB
:1019B0000E94490E6983498180912E0290E050E097
:1019C000B501825E9D4F0E94540F998180912E0235
:1019D000890F80932E028981181BF7018081806214
:1019E00080831111D4CF0F90DF91CF911F91FF9081
:1019F000EF90DF90CF90BF90AF9008959B01AC0126
:101A000010922F0210922E02109240021092C800E3
:101A100060E472E48FE090E00E94F90E21503109F9
:101A20003093CD002093CC0086E08093CA0088E9F3
:101A30008093C9000895CF93DF931F92CDB7DEB78F
:101A400089838A3019F48DE00E941B0D61E0CE017C
:101A500001960E94A50C0F90DF91CF910895FC0193
:101A600001900020E9F73197BF01681B790B0E94B4
:101A7000A50C08952F923F924F925F926F927F92A2
:101A80008F929F92AF92BF92CF92DF92EF92FF928E
:101A90000F931F93CF93DF93CDB7DEB72B970FB67E
:101AA000F894DEBF0FBECDBFFE01B096E190F1907D
:101AB0006F01F701B080BB2009F4D2C000E010E054
:101AC0000F2EF0E14F2EF7E25F2E612C712CF02DDE
:101AD000F5E2BF16D1F08B2D0E941B0D2CE5B21242
:101AE000B7C00F5F1F4FF701E00FF11F80818A30F1
:101AF00029F08C3539F40E941B0DAAC08AE00E949F
:101B00001B0DA6C0853209F0A3C00F5F1F4FF70160
:101B1000E00FF11F8081843609F475C038F48835F0
:101B200009F45EC0833609F488C08FC08C3621F07A
:101B3000833709F479C089C0C60104969B878A87D8
:101B4000F60180809180A280B3808114F0E89F0626
:101B5000A104B104BCF1C501B401A30192010E942A
:101B60001B0F49015A01C62ED72E282E392E4AE0C6
:101B7000BE016F5F7F4FC4010E945D0FCE010196D1
:101B80000E942F0D8C2C9D2CA22CB32C28EE82169B
:101B900023E09206A104B1041CF480E30E941B0D13
:101BA00084E688169104A104B1041CF480E30E9429
:101BB0001B0D9AE089169104A104B1041CF480E382
:101BC0000E941B0D4AE0BE016F5F7F4FC4010E945F
:101BD0005D0FCE0101960E942F0DCA84DB8438C0B0
:101BE0005601E4E0AE0EB11C40E1BE016F5F7F4FD5
:101BF000F601808191810E945D0FCE0101960E94C5
:101C00002F0D650125C0F6014AE0BE016F5F7F4FD1
:101C100080819181F2E0CF0ED11C0E945D0FCE0138
:101C200001960E942F0D14C0F6018081918122E05F
:101C3000C20ED11C0E942F0D0BC0F601808192E0D4
:101C4000C90ED11C0E941B0D03C08FE30E941B0D07
:101C50000F5F1F4FF701E00FF11FB080B11038CFB9
:101C60002B960FB6F894DEBF0FBECDBFDF91CF919C
:101C70001F910F91FF90EF90DF90CF90BF90AF90AA
:101C80009F908F907F906F905F904F903F902F909C
:101C90000895621773078407950714F49B01AC013C
:101CA000CA01B90108958430F8F46430E8F49FEF74
:101CB000960F923018F493E0961B692F880F23E05B
:101CC00030E0082E02C0220F331F0A94E2F720955D
:101CD00090914102292370E002C0660F771F8A9518
:101CE000E2F7622B60934102089599231CF49195C9
:101CF000819591090895EF92FF920F931F93CF93CF
:101D0000DF938C0190914102911102C012B83DC045
:101D100016950795E4E0F0E0C0E0D0E0EE24E3940F
:101D2000F12C2091410230E00C2E02C03595279510
:101D30000A94E2F7237069F0622F70E0660F771F54
:101D40006F5F7F4FC8010E94D10E892B79F023303D
:101D500069F092B197010E2E02C0220F331F0A9430
:101D6000E2F7822F8095892382B90AC022B1C70188
:101D70000E2E02C0880F991F0A94E2F7822B82B9B7
:101D800022963196E830F10561F6DF91CF911F91EF
:101D90000F91FF90EF9008959093050180930401B7
:101DA0000895AA1BBB1B51E107C0AA1FBB1FA617A2
:101DB000B70710F0A61BB70B881F991F5A95A9F7F4
:101DC00080959095BC01CD01089597FB072E16F4E0
:101DD000009407D077FD09D00E94D10E07FC05D0F2
:101DE0003EF4909581959F4F0895709561957F4F32
:101DF0000895A1E21A2EAA1BBB1BFD010DC0AA1F4C
:101E0000BB1FEE1FFF1FA217B307E407F50720F063
:101E1000A21BB30BE40BF50B661F771F881F991FDE
:101E20001A9469F760957095809590959B01AC0127
:101E3000BD01CF010895052E97FB1EF400940E946A
:101E4000320F57FD07D00E94F90E07FC03D04EF465
:101E50000C94320F50954095309521953F4F4F4F40
:101E60005F4F089590958095709561957F4F8F4F46
:101E70009F4F0895A29FB001B39FC001A39F700D13
:101E8000811D1124911DB29F700D811D1124911D82
:101E900008950E943A0FA59F900DB49F900DA49FA6
:101EA000800D911D11240895FB01DC0102C00190F9
:101EB0000D9241505040D8F70895BB274A3031F475
:101EC000992322F4BDE2909581959F4F0C94690F60
:101ED000BB27FB015527AA27880F991FAA1FA41704
:101EE00010F0A41B83955051B9F7A05DAA3308F0F8
:101EF000A95DA193009779F7B111B1931192CB012C
:101F00000C94820FDC01FC01672F71917723E1F7BC
:101F1000329704C07C916D9370836291AE17BF07B6
:081F2000C8F30895F894FFCF07
:101F28000100000064005245562E20322066697276
:101F38006D776172650A00446574656374696E67DC
:101F480020626F617264207265763A2025640A0007
:101F58002A2A2A5741524E494E472A2A2A20526590
:101F6800762E2032206669726D77617265206F6EF9
:101F7800205265762E203120626F6172640A0061FA
:101F880064723D25580A004572726F720A00556ED8
:101F98006B6E6F776E2043414E20636F646520251A
:101FA800640A0073657474696E672074617267658A
:101FB80074207020746F20256C0A0073657474692E
:101FC8006E6720746172676574207620746F2025AF
:101FD8006C0A00736C6F77203D2025642C20746791
:101FE800745F696E63203D2025640A0025642025FE
:041FF800640A000077
:00000001FF
