:100000000C944A000C9467000C9467000C946700F1
:100010000C9467000C9467000C9467000C944502E4
:100020000C94D1020C9467000C9467000C94670048
:100030000C9467000C9467000C9467000C94140BEC
:100040000C9467000C9474010C9425090C946700BF
:100050000C9467000C9467000C9467000C94670084
:100060000C9467000C9467000C9467000C94670074
:100070000C9467000C9467000C9467000C94670064
:100080000C94F70B0C941B0C0C9467000C946700F9
:100090000C94670011241FBECFEFD8E0DEBFCDBFA8
:1000A00011E0A0E0B1E0E6E7FEE102C005900D92AC
:1000B000A03DB107D9F722E0A0EDB1E001C01D924B
:1000C000AE33B207E1F70E945D030C94390F0C9434
:1000D000000080E480937C00EAE7F0E086E0808323
:1000E0008081806880830895ECE7F0E09081907CC7
:1000F0008770892B8083EAE7F0E0808180648083C9
:10010000808186FDFDCF809178002091790090E07C
:10011000922B089580917C00807C803C61F0ECE71C
:10012000F0E08081806C808385E090E00E94D20BBB
:1001300080E00E94740008950E948A0080E00E947E
:100140007400815891408F3F910510F081E008952F
:1001500082E00895CF93C82F63E083E00E94FA0DF8
:1001600060E070E088E790E00E94B60460E070E034
:1001700084E190E00E94BD0460E070E08AEA90E0D3
:100180000E94C404C23071F018F4CC2331F01DC0B9
:10019000C33081F0C63099F018C08CEA90E00E941C
:1001A000730E13C081E00E94DE0885E590E00E9496
:1001B000730E0BC084E490E00E94730E06C00E9490
:1001C000EE0A80E090E00E94FB0A82E091E09F93BB
:1001D0008F930E94E10C0E949C00C82F1F928F9366
:1001E00083E191E09F938F930E94E10C0F900F9019
:1001F0000F900F900F900F90C23081F08CE291E041
:100200009F938F930E94E10C63E080E00E94FA0DBF
:1002100088EE93E00E94D20B0F900F90CF9108953B
:10022000FC018481089542E050E061E070E00396B3
:100230000E941F010895FC01838190E00895CF92F0
:10024000DF92EF92FF92CF93DF93141615069CF482
:100250007723A4F0EA01C61BD70B2196C530D10540
:1002600014F0C4E0D0E0DD2314F4C0E0D0E01C16AC
:100270001D0634F02DC0C4E0D0E002C0C4E0D0E0E0
:10028000DC01A60FB71F9E0121503109220F331F39
:10029000220F331F220F331FE0E0F0E0C12CD12CDE
:1002A00076014D9150E0022E02C0440F551F0A9472
:1002B000E2F7052E000C660B770BC42AD52AE62A36
:1002C000F72A319628503109EC17FD0754F303C083
:1002D000C12CD12C7601C701B601DF91CF91FF90DF
:1002E000EF90DF90CF9008951F920F920FB60F926C
:1002F00011248F939F938091D8018F5F8093D801B1
:100300009091D8018091D70198130EC08091DB01A4
:100310009091DC019093DA018093D9011092D80179
:100320001092DC011092DB019F918F910F900FBE14
:100330000F901F9018956091DD017091DE01809102
:10034000DF019091E00108958DB38F738DBB8DB166
:100350008F738DB98EB1806C8EB91092DD011092C1
:10036000DE011092DF011092E00188E18093D70155
:10037000EAE6F0E0808180658083109269008DB3A9
:10038000806C8DBB08958DB38F738DBB1092DD0192
:100390001092DE011092DF011092E0011092DC0158
:1003A0001092DB011092DA011092D9011092D8015B
:1003B0008DB3806C8DBB08958091D9019091DA0145
:1003C0002091D701283159F59C012C5F3F4F2930EE
:1003D000310518F42AE72093D7014CE3489F900198
:1003E000499F300D1124332314F42D5F3F4F359571
:1003F0002795359527958091D5019091D601992320
:100400000CF403969595879595958795280F391F38
:100410003093D6012093D501822F932F08952091F8
:10042000D7012A3779F59C01205B3F4F213A3105EE
:1004300018F028E12093D7019C01220F331F820F6F
:10044000931F880F991F880F991F9C01992314F4FB
:100450002D5F3F4F35952795359527958091D5018F
:100460009091D60199230CF40396959587959595CF
:100470008795280F391F3093D6012093D501822FFD
:10048000932F08958FEF9FEF08951F920F920FB64D
:100490000F9211248F939F93AF93BF938CB186FFDC
:1004A0003CC08823ECF48091DD019091DE01A091A5
:1004B000DF01B091E0010196A11DB11D8093DD0126
:1004C0009093DE01A093DF01B093E0018091DB0106
:1004D0009091DC0101969093DC018093DB0158C080
:1004E0008091DD019091DE01A091DF01B091E001EA
:1004F0000197A109B1098093DD019093DE01A093DA
:10050000DF01B093E0018091DB019091DC01019764
:100510009093DC018093DB013BC08823ECF4809155
:10052000DD019091DE01A091DF01B091E001019722
:10053000A109B1098093DD019093DE01A093DF0151
:10054000B093E0018091DB019091DC0101979093E1
:10055000DC018093DB011CC08091DD019091DE0104
:10056000A091DF01B091E0010196A11DB11D809322
:10057000DD019093DE01A093DF01B093E001809153
:10058000DB019091DC0101969093DC018093DB010B
:10059000BF91AF919F918F910F900FBE0F901F90C1
:1005A00018951F920F920FB60F9211248F939F935D
:1005B000AF93BF938CB18823E4F586FF1DC0809173
:1005C000DD019091DE01A091DF01B091E001019782
:1005D000A109B1098093DD019093DE01A093DF01B1
:1005E000B093E0018091DB019091DC010197909341
:1005F000DC018093DB0158C08091DD019091DE0128
:10060000A091DF01B091E0010196A11DB11D809381
:10061000DD019093DE01A093DF01B093E0018091B2
:10062000DB019091DC0101969093DC018093DB016A
:100630003BC086FF1DC08091DD019091DE01A0913D
:10064000DF01B091E0010196A11DB11D8093DD0194
:100650009093DE01A093DF01B093E0018091DB0174
:100660009091DC0101969093DC018093DB011CC02A
:100670008091DD019091DE01A091DF01B091E00158
:100680000197A109B1098093DD019093DE01A09348
:10069000DF01B093E0018091DB019091DC010197D3
:1006A0009093DC018093DB01BF91AF919F918F917B
:1006B0000F900FBE0F901F901895CF93DF93CDB77B
:1006C000DEB72B970FB6F894DEBF0FBECDBF80EF1D
:1006D00081B982B90E94680B2FEF81EE94E021501E
:1006E00080409040E1F700C0000012B863E080E075
:1006F0000E94FA0D789460E07BE480E090E00E9434
:10070000A50C63E081E00E94FA0D8AE992E00E9464
:10071000D20B0E94C50AF82EC82ED12C1F928F939F
:100720008BE591E09F938F930E94E10C8AEF90E01C
:100730000E94D20BB60184E090E00E94270A63E099
:1007400082E00E94FA0D0E94A4010E9469008F2D90
:100750000E94AA009FE088E10FB6F894A8958093C4
:1007600060000FBE909360000E945C0584EF91E0F2
:100770000E94D20B60E080E00E94FA0D60E081E010
:100780000E94FA0D60E083E00E94FA0D0F900F9036
:100790000F900F900F2EF8E2CF2ED12CE12CF12CE0
:1007A000F02DCE0101960E94300A892BA9F463E056
:1007B00083E00E94FA0D0E948C0BA70196010E9413
:1007C000A00EC9010E94220ECE0101960E940504CE
:1007D00060E083E00E94FA0D0E94BF0580FF09C01F
:1007E00063E082E00E94FA0D60E081E00E94FA0D71
:1007F00008C063E081E00E94FA0D60E082E00E94A0
:10080000FA0D0E941106A895CCCFCF93DF93EC018F
:100810000E941B018330910539F11CF4892B49F0AA
:1008200059C08430910509F475C08F3F9105B1F12D
:1008300051C0CE010E941001813061F40E94BF05B9
:1008400082600E94BC050E949B010E94CB040E9412
:10085000A80560C081115EC00E94BF058D7F0E9407
:10086000BC050E94A80556C00E94BF0581FD52C06C
:10087000CE010E941301992324F4615C7F4F8F4FB6
:100880009F4FDC01CB01689415F8B595A795979516
:1008900087951694D1F70E94CB053CC083E691E082
:1008A0009F938F930E94E10C62E080E00E94FA0D1A
:1008B0000E948C0B28E230E040E050E00E94A00E45
:1008C000C9010E94220E60E080E00E94FA0D0F90A4
:1008D0000F9020C08B811F928F938AE691E09F93A7
:1008E0008F930E94E10C62E080E00E94FA0D0E946A
:1008F0008C0B28E230E040E050E00E94A00EC901DD
:100900000E94220E60E080E00E94FA0D0F900F908E
:100910000F900F90DF91CF910895811524E09207F9
:1009200014F08FEF93E0BC0161308CEF780714F482
:1009300061E07CEF6115710521F080910F0280FD6F
:1009400007C060E070E083E00E94C90A73980895D0
:10095000772334F47299729871956195710902C088
:10096000729B729A83E00E94C90A0895009721F051
:1009700090930602809305020895009721F09093CA
:10098000E6018093E5010895009721F09093040219
:10099000809303020895CF92DF92EF92FF926B0152
:1009A0007C01FF92EF92DF926F938FE791E09F932C
:1009B0008F930E94E10C8091EB019091EC018C19D6
:1009C0009D090E941C0E0F900F900F900F900F909A
:1009D0000F908536910540F01092E7011092E801E2
:1009E0001092E9011092EA01C092EB01D092EC0161
:1009F000E092ED01F092EE01FF90EF90DF90CF904A
:100A00000895CF93DF93EC01DF93CF9387E991E0D3
:100A10009F938F930E94E10CD093F001C093EF015C
:100A20000F900F900F900F90CD37D105C8F481E053
:100A30008093FB018DE790E0BE010E94780E41E0BB
:100A40009E01369527952817390708F040E08DE775
:100A500090E0BE010E94780E640F6093020215C000
:100A60001092FB019E01AFEAB7E40E94E10EC81BA1
:100A7000D90BD695C7958C0F9D1F929582958F7037
:100A800089279F70892780930202809102021F921A
:100A90008F938091FB011F928F938FEA91E09F9338
:100AA0008F930E94E10C0F900F900F900F900F907A
:100AB0000F90DF91CF91089573986B9A6A9A729A0A
:100AC0008098749A6D9A83E08BB980E094E0A0E0FE
:100AD000B0E08093F1019093F201A093F301B09301
:100AE000F40188E893E190930A028093090210923E
:100AF000EB011092EC011092ED011092EE011092B8
:100B0000E4011092E3011092E2011092E1018CE8FD
:100B100090E0909306028093050284E190E0909328
:100B2000E6018093E50184E690E0909304028093CF
:100B300003021092F7011092F8011092F90110923D
:100B4000FA018AEF90E00E9401050E94A401089535
:100B500080910F02816080930F0260E080E00E942C
:100B6000FA0D089580E090E00E948D0480910F02BC
:100B70008E7F80930F02089580930F0208958091D5
:100B80000F02089589B190E080959095867099271D
:100B9000959587950895CF93DF93EC010E948C0B78
:100BA0006093FC017093FD018093FE019093FF011F
:100BB00080910F0280FD05C080E090E00E948D04CE
:100BC0002DC08091D401882319F0D195C195D10908
:100BD000D093E201C093E1010E94C20580FF0BC0E7
:100BE0002091E1013091E20133232CF41092E201D3
:100BF0001092E1010DC081FF0BC08091E101909145
:100C0000E2011816190624F41092E2011092E10193
:100C10008091E1019091E2010E948D04DF91CF91DA
:100C200008954F925F926F927F928F929F92AF92B0
:100C3000BF92CF92DF92EF92FF920F931F93CF93C9
:100C4000DF9300D000D0CDB7DEB780910F0281FDD9
:100C50009DC2109215020E949B016B017C01809144
:100C6000D0019091D101A091D201B091D301C816C9
:100C7000D906EA06FB06C1F0FF92EF92DF92CF920F
:100C800083E991E09F938F930E94E10CC092D00181
:100C9000D092D101E092D201F092D3010F900F9047
:100CA0000F900F900F900F900E948C0BC090FC0142
:100CB000D090FD01E090FE01F090FF01DC01CB013E
:100CC0008C199D09AE09BF09833E9440A105B10569
:100CD00020F01092E2011092E10164990AC0109292
:100CE000E2011092E1010E94B20561E080E00E9401
:100CF000FA0D80910F0281FFF9C1809115028823BE
:100D000009F4F4C18091FB01882309F46FC060915C
:100D1000020270E08091E3019091E4010E94780E5C
:100D2000892B09F0C6C08091EB019091EC01A09154
:100D3000ED01B091EE014091F7015091F801609101
:100D4000F9017091FA01481759076A077B072CF5DA
:100D50007C018D01E41AF50A060B170BA801970117
:100D600065E070E080E090E00E94F00DC090F70137
:100D7000D090F801E090F901F090FA01DC01CB018C
:100D80008C0D9D1DAE1DBF1D8093F7019093F80142
:100D9000A093F901B093FA018CC084179507A607B8
:100DA000B7070CF086C09A01AB01281B390B4A0B20
:100DB0005B0B65E070E080E090E00E94F00DC09079
:100DC000F701D090F801E090F901F090FA01970155
:100DD0008601061B170B280B390B0093F7011093A4
:100DE000F8012093F9013093FA0163C08091EB017F
:100DF0009091EC01A091ED01B091EE014091F701CD
:100E00005091F8016091F9017091FA014817590762
:100E10006A077B0734F57C018D01E41AF50A060B9D
:100E2000170BA80197016091020270E080E090E04A
:100E30000E94F00DC090F701D090F801E090F90108
:100E4000F090FA01DC01CB018C0D9D1DAE1DBF1D84
:100E50008093F7019093F801A093F901B093FA0100
:100E600028C084179507A607B7071CF59A01AB01A0
:100E7000281B390B4A0B5B0B6091020270E080E08B
:100E800090E00E94F00DC090F701D090F801E09042
:100E9000F901F090FA0197018601061B170B280B48
:100EA000390B0093F7011093F8012093F901309367
:100EB000FA010E949B014B015C018091F701909126
:100EC000F801A091F901B091FA0175016401C81A05
:100ED000D90AEA0AFB0A20910B0230910C024091D8
:100EE0000D0250910E0229833A834B835C83C0929A
:100EF0000B02D0920C02E0920D02F0920E02C6019B
:100F00000E941C0E0597A0F08091E7019091E801E6
:100F1000A091E901B091EA018C0D9D1DAE1DBF1D90
:100F20008093E7019093E801A093E901B093EA016F
:100F30008091EB019091EC01A401481B590BCA016F
:100F40000E941C0E049728F41092E2011092E10115
:100F500090C08091E7019091E801A091E901B091E2
:100F6000EA01813053E09507A105B1056CF080E0FE
:100F700093E0A0E0B0E08093E7019093E801A093B4
:100F8000E901B093EA0111C081159D4FAF4FBF4FEA
:100F900064F480E09DEFAFEFBFEF8093E7019093A3
:100FA000E801A093E901B093EA01A091E501B091B5
:100FB000E6012091E7013091E8014091E90150916B
:100FC000EA010E94F00E24E130E040E050E00E948F
:100FD000C20E29013A01A0910502B0910602A701B3
:100FE00096010E94F00E24E130E040E050E00E94C3
:100FF000C20E420E531E641E751EA7019601898102
:101000009A81AB81BC81281B390B4A0B5B0BA091E9
:101010000302B09104020E94F00E24E130E040E0AF
:1010200050E00E94C20E420E531E641E751E91E8CF
:10103000491691E059066104710434F0412C512C99
:101040003201689447F85394A0E84A16AEEF5A0666
:10105000AFEF6A067A064CF40F2EF0E84F2EFEEF43
:101060005F2E66246A94762CF02D5092E201409215
:10107000E1018091F5019091F6019C01220F331F4F
:10108000220F331F220F331F820F931F6AE070E07D
:101090000E948C0E7B010E94DC016AE070E00E94DD
:1010A0008C0EE60EF71EF092F601E092F5018091AB
:1010B000E2018F938091E1018F939F928F9288EC50
:1010C00091E09F938F930E94E10C8091E3019091B6
:1010D000E40101969093E4018093E30110921502DC
:1010E0000F900F900F900F900F900F900E94C205DD
:1010F000F82E80FF27C080910F0282FF03C08B7FF4
:1011000080930F028091EB019091EC01A091ED0191
:10111000B091EE01BB2344F41092EB011092EC016C
:101120001092ED011092EE018091E1019091E201A7
:10113000992344F41092E2011092E10180E090E0E2
:101140000E948D04F1FE18C00E94C30180910F021D
:1011500082FF03C08B7F80930F028091E101909109
:10116000E2011816190644F41092E2011092E1010E
:1011700080E090E00E948D048091E1019091E20175
:101180009195819591090E948D0403C0649BA7CD20
:10119000B4CD0F900F900F900F90DF91CF911F91D2
:1011A0000F91FF90EF90DF90CF90BF90AF909F9006
:1011B0008F907F906F905F904F9008958093D401AF
:1011C0000895883080F4EEEDF0E0408121E030E0D9
:1011D000B90102C0660F771F8A95E2F7CB018095AF
:1011E000842380830895EFEDF0E04081885021E072
:1011F00030E0B90102C0660F771F8A95E2F7CB0194
:101200008095842380830895883078F4EEEDF0E0B3
:10121000408121E030E0B90102C0660F771F8A9556
:10122000E2F7CB01842B80830895EFEDF0E040815D
:10123000885021E030E0B90102C0660F771F8A951F
:10124000E2F7CB01842B808308951F920F920FB693
:101250000F9211242F933F934F935F936F937F933C
:101260008F939F93AF93BF93CF93EF93FF93C091CF
:10127000ED008091EC00807F803FB1F18091EC0027
:1012800082958F7090E1899F900111242093ED0049
:101290009091EE0096FF09C0EEEEF0E09081108292
:1012A0001092EF000E94040923C0909113029F5FE7
:1012B00090931302E82FE695E695E695F0E0EF5E51
:1012C000FD4F9081482F477021E030E002C0220F8F
:1012D000331F4A95E2F7292B2083EEEEF0E0908150
:1012E00010820E94E10804C0EAEDF0E08081808372
:1012F000C093ED00FF91EF91CF91BF91AF919F917E
:101300008F917F916F915F914F913F912F910F90AE
:101310000FBE0F901F9018959C0133272295329590
:10132000307F3227207F32272093ED009C0121500F
:1013300031092230310538F48091140220E4829F73
:10134000C00111240FC00397029750F4809114023A
:1013500020E4829FC001112420911002822B02C040
:1013600080E090E01092F4001092F5001092F000EE
:101370001092F100282F2295220F207E2093F20058
:10138000887F97709695879596958795969587957A
:101390008093F30080EE8093F6008FE78093F70050
:1013A0000895DF92EF92FF920F931F93CF93DF93F5
:1013B000E8EDF0E0908191609083409314022093D7
:1013C00010022FEF31EE94E0215030409040E1F7D1
:1013D00000C000008093E2007093E3006093E4009B
:1013E00080EB8093DB008FEF8093E500E1E1F2E09A
:1013F00011821082C0E0D0E00FEE10E00F2EFEEE62
:10140000EF2EF12CF02D6894DD24D7F8C53060F470
:10141000F70180811082CE010E948C09F801D082F0
:101420008C2F0E94040902C0F80110822196CF304F
:10143000D10561F71092130282E08093D800DF910A
:10144000CF911F910F91FF90EF90DF9008959B0136
:10145000AC0163E174E08EE190E00E94D10908954F
:101460001F93CF93DF93009709F483C02091130259
:10147000222309F481C01092ED002091110220FD79
:1014800025C021E030E0ADEEB0E0122FA901429579
:101490005295507F5427407F54274C9323FB662757
:1014A00060F970E0FB01EF5EFD4F408150E0E22FFC
:1014B000E77002C055954795EA95E2F740FD07C0F1
:1014C0002F5F3F4F2F30310501F759C010E02091B9
:1014D000EF002F70FC0122833091F2004091F30065
:1014E00032953695377050E0440F551F440F551F05
:1014F000440F551F432B51834083222391F0339691
:10150000215030E02C5F3F4F280F391F0B96AAEF78
:10151000B0E04C914193E217F30719F08E179F0743
:10152000C1F7F8948091130281508093130278944C
:10153000812F90E00E948C09812F0E94040913FBE7
:10154000FF27F0F9CF2F80E0D82FCF5EDD4F288125
:10155000177081E090E002C0880F991F1A95E2F79A
:1015600080958223888380E88093EF0080E090E07C
:1015700008C082E090E005C081E090E002C081E018
:1015800090E0DF91CF911F91089580B180958F7089
:1015900008957370843071F08530B1F08330E9F4D0
:1015A000E0E9F0E080818068808370939900609327
:1015B00098000895E0E9F0E0808180628083709374
:1015C0009B0060939A000895E0E9F0E080818860D4
:1015D000808370939D0060939C000895269AE0E8B4
:1015E000F0E080818062808387E791E090938B00B8
:1015F00080938A000895843B910514F083EB90E07A
:101600001816190614F081E090E09C0126503F4F17
:1016100063E070E00E948C0E620F731F70938B006A
:1016200060938A00089508951F920F920FB60F924B
:1016300011242F933F934F935F936F937F938F93D7
:101640009F93AF93BF93EF93FF9380911602909176
:101650001702A0911802B09119020196A11DB11DA7
:101660008093160290931702A0931802B093190268
:101670008091160290911702A0911802B091190260
:1016800083709927AA27BB27892B8A2B8B2B51F490
:101690008091160290911702A0911802B091190240
:1016A0000E94220E81E0809315020E94130BFF918D
:1016B000EF91BF91AF919F918F917F916F915F91CA
:1016C0004F913F912F910F900FBE0F901F90189543
:1016D00083E484BD81E080936E009BE19093810060
:1016E00093E09093800020E137E2309389002093CB
:1016F0008800109285001092840080936F00909370
:10170000900080939100109216021092170210928E
:101710001802109219020895CF92DF92EF92FF9271
:1017200020918400309185008091160290911702DB
:10173000A0911802B0911902880F991FAA1FBB1F10
:10174000880F991FAA1FBB1F880F991FAA1FBB1FB5
:101750006C017D01CC0CDD1CEE1CFF1CCC0CDD1CD7
:10176000EE1CFF1CC80ED91EEA1EFB1E36952795DF
:10177000A3E1B3E80E94E10E0024880F991F001C2A
:10178000880F991F001C892F902DA7019601280F03
:10179000391F411D511DCA01B901FF90EF90DF9023
:1017A000CF9008958F929F92AF92BF92CF92DF9287
:1017B000EF92FF926C010E948C0B4B015C01E12CBB
:1017C000F12C0E948C0BDC01CB0188199909AA0924
:1017D000BB098C159D05AE05BF0598F3FF90EF90F2
:1017E000DF90CF90BF90AF909F908F9008951F9201
:1017F0000F920FB60F9211248F93EF93FF93809166
:101800002B02813120F080E180932B020CC0E0910B
:101810002B0281E08E0F80932B02F0E08091CE00AE
:10182000E45DFD4F8083FF91EF918F910F900FBE8C
:101830000F901F9018951F920F920FB60F921124C0
:101840008F939F93EF93FF93E0913C0281E08E0F83
:1018500080933C02F0E0E65EFD4F80818093CE00F5
:1018600090913C0280912A02981720F480913C02CA
:10187000813148F0E9ECF0E080818F7D8083109227
:101880002A0210923C02FF91EF919F918F910F904D
:101890000FBE0F901F901895AF92BF92CF92DF921C
:1018A000EF92FF921F93CF93DF931F92CDB7DEB7D6
:1018B0005C01162F80912A02882329F0E9ECF0E0E0
:1018C0008081806280831123A9F16894CC24C4F8BC
:1018D000D12C0F2EF9ECEF2EF12CF02D80912A0255
:1018E0008F30E0F780912A02212F30E040E050E075
:1018F000B601681B7109072E000C880B990B0E941A
:10190000F00D6983498180912A0290E050E0B50191
:10191000865E9D4F0E94FB0E998180912A02890F5D
:1019200080932A028981181BF7018081806280835D
:101930001111D4CF0F90DF91CF911F91FF90EF90B5
:10194000DF90CF90BF90AF9008959B01AC011092B3
:101950002B0210922A0210923C021092C80060E4FE
:1019600072E48FE090E00E94A00E21503109309384
:10197000CD002093CC0086E08093CA0088E9809354
:10198000C9000895CF93DF931F92CDB7DEB7898347
:101990008A3019F48DE00E94C20C61E0CE010196FC
:1019A0000E944C0C0F90DF91CF910895FC010190A3
:1019B0000020E9F73197BF01681B790B0E944C0C9E
:1019C00008952F923F924F925F926F927F928F92E3
:1019D0009F92AF92BF92CF92DF92EF92FF920F93BE
:1019E0001F93CF93DF93CDB7DEB72B970FB6F89445
:1019F000DEBF0FBECDBFFE01B096E190F1906F014A
:101A0000F701B080BB2009F4D2C000E010E00F2E37
:101A1000F0E14F2EF7E25F2E612C712CF02DF5E2F4
:101A2000BF16D1F08B2D0E94C20C2CE5B212B7C0AC
:101A30000F5F1F4FF701E00FF11F80818A3029F0FF
:101A40008C3539F40E94C20CAAC08AE00E94C20CF4
:101A5000A6C0853209F0A3C00F5F1F4FF701E00F4A
:101A6000F11F8081843609F475C038F4883509F493
:101A70005EC0833609F488C08FC08C3621F083376E
:101A800009F479C089C0C60104969B878A87F6014C
:101A900080809180A280B3808114F0E89F06A10429
:101AA000B104BCF1C501B401A30192010E94C20EB0
:101AB00049015A01C62ED72E282E392E4AE0BE01E2
:101AC0006F5F7F4FC4010E94040FCE0101960E94F8
:101AD000D60C8C2C9D2CA22CB32C28EE821623E045
:101AE0009206A104B1041CF480E30E94C20C84E6B7
:101AF00088169104A104B1041CF480E30E94C20C76
:101B00009AE089169104A104B1041CF480E30E94B8
:101B1000C20C4AE0BE016F5F7F4FC4010E94040FF8
:101B2000CE0101960E94D60CCA84DB8438C05601CF
:101B3000E4E0AE0EB11C40E1BE016F5F7F4FF601E5
:101B4000808191810E94040FCE0101960E94D60CE3
:101B5000650125C0F6014AE0BE016F5F7F4F8081BD
:101B60009181F2E0CF0ED11C0E94040FCE010196AC
:101B70000E94D60C14C0F6018081918122E0C20E31
:101B8000D11C0E94D60C0BC0F601808192E0C90ED8
:101B9000D11C0E94C20C03C08FE30E94C20C0F5FD5
:101BA0001F4FF701E00FF11FB080B11038CF2B9617
:101BB0000FB6F894DEBF0FBECDBFDF91CF911F915E
:101BC0000F91FF90EF90DF90CF90BF90AF909F90DC
:101BD0008F907F906F905F904F903F902F900895DF
:101BE000621773078407950714F49B01AC01CA01BF
:101BF000B90108958430F8F46430E8F49FEF960F4B
:101C0000923018F493E0961B692F880F23E030E0A0
:101C1000082E02C0220F331F0A94E2F720959091FC
:101C20003D02292370E002C0660F771F8A95E2F714
:101C3000622B60933D02089599231CF49195819540
:101C400091090895EF92FF920F931F93CF93DF9323
:101C50008C0190913D02911102C012B83DC01695C1
:101C60000795E4E0F0E0C0E0D0E0EE24E394F12C4E
:101C700020913D0230E00C2E02C0359527950A9444
:101C8000E2F7237069F0622F70E0660F771F6F5FD5
:101C90007F4FC8010E94780E892B79F0233069F0BC
:101CA00092B197010E2E02C0220F331F0A94E2F761
:101CB000822F8095892382B90AC022B1C7010E2ED6
:101CC00002C0880F991F0A94E2F7822B82B92296EC
:101CD0003196E830F10561F6DF91CF911F910F91B8
:101CE000FF90EF9008959093010180930001089573
:101CF000AA1BBB1B51E107C0AA1FBB1FA617B70732
:101D000010F0A61BB70B881F991F5A95A9F780954D
:101D10009095BC01CD01089597FB072E16F4009411
:101D200007D077FD09D00E94780E07FC05D03EF45D
:101D3000909581959F4F0895709561957F4F089577
:101D4000A1E21A2EAA1BBB1BFD010DC0AA1FBB1FBF
:101D5000EE1FFF1FA217B307E407F50720F0A21B31
:101D6000B30BE40BF50B661F771F881F991F1A949E
:101D700069F760957095809590959B01AC01BD01C8
:101D8000CF010895052E97FB1EF400940E94D90EF2
:101D900057FD07D00E94A00E07FC03D04EF40C9410
:101DA000D90E50954095309521953F4F4F4F5F4F3D
:101DB000089590958095709561957F4F8F4F9F4FB7
:101DC0000895A29FB001B39FC001A39F700D811D14
:101DD0001124911DB29F700D811D1124911D089534
:101DE0000E94E10EA59F900DB49F900DA49F800DC1
:101DF000911D11240895FB01DC0102C001900D9298
:101E000041505040D8F70895BB274A3031F4992308
:101E100022F4BDE2909581959F4F0C94100FBB2743
:101E2000FB015527AA27880F991FAA1FA41710F096
:101E3000A41B83955051B9F7A05DAA3308F0A95DA2
:101E4000A193009779F7B111B1931192CB010C9442
:101E5000290FDC01FC01672F71917723E1F732979D
:101E600004C07C916D9370836291AE17BF07C8F375
:061E70000895F894FFCF75
:101E760064005245562E2032206669726D77617273
:101E8600650A00446574656374696E6720626F61F4
:101E96007264207265763A2025640A002A2A2A5737
:101EA60041524E494E472A2A2A205265762E203222
:101EB600206669726D77617265206F6E2052657655
:101EC6002E203120626F6172640A006164723D25C2
:101ED600580A004572726F720A00556E6B6E6F7704
:101EE6006E2043414E20636F64652025640A0073AB
:101EF600657474696E6720746172676574207020FA
:101F0600746F20256C0A0073657474696E6720749B
:101F16006172676574207620746F20256C0A0073E1
:101F26006C6F77203D2025642C207467745F696E82
:101F360063203D2025640A0025642025640A0000EC
:00000001FF
