:100000000C944A000C9467000C9467000C946700F1
:100010000C9467000C9467000C9467000C94E20148
:100020000C946E020C9467000C9467000C946700AB
:100030000C9467000C94EC0B0C9467000C941F0C50
:100040000C9467000C9408010C94B3030C946700A3
:100050000C9467000C9467000C9467000C94670084
:100060000C9467000C9467000C9467000C94670074
:100070000C9467000C9467000C9467000C94670064
:100080000C94020D0C94260D0C9467000C946700E0
:100090000C94670011241FBECFEFD8E0DEBFCDBFA8
:1000A00012E0A0E0B1E0E8E8F0E202C005900D92B5
:1000B000AA34B107D9F722E0AAE4B2E001C01D9248
:1000C000A83BB207E1F70E94BB050C9442100C94C8
:1000D000000080E480937C00EAE7F0E086E0808323
:1000E0008081806880830895ECE7F0E09081907CC7
:1000F0008770892B8083EAE7F0E0808180648083C9
:10010000808186FDFDCF809178002091790090E07C
:10011000922B089580917C00807C803C61F0ECE71C
:10012000F0E08081806C808385E090E00E94DD0CAF
:1001300080E00E94740008950E948A0080E00E947E
:100140007400815891408F3F910510F081E008952F
:1001500082E00895CF93C82F63E083E00E94050FEB
:1001600060E070E088E790E00E94990760E070E04E
:1001700084E190E00E94A00760E070E08AEA90E0ED
:100180000E94A707C23071F018F4CC2331F01DC0D3
:10019000C33081F0C63099F018C08CEA90E00E941C
:1001A0007C0F13C081E00E94C40B85E590E00E94A3
:1001B0007C0F0BC084E490E00E947C0F06C00E947C
:1001C000F90B80E090E00E94060C0E949C00C82F72
:1001D0001F928F9386E091E09F938F930E94EC0D86
:1001E0000F900F900F900F90C13081F48FE191E04C
:1001F0009F938F930E94EC0D63E080E00E94050FB7
:1002000088EE93E00E94DD0C0F900F90CF9108953F
:100210001F920F920FB60F9211248F939F9380918C
:1002200052028F5F8093520290915202809151024C
:1002300098130EC0809155029091560290935402EB
:10024000809353021092520210925602109255025D
:100250009F918F910F900FBE0F901F9018956091F6
:100260005702709158028091590290915A02089554
:1002700060935702709358028093590290935A02E8
:1002800008958DB38F738DBB8DB18F738DB98EB182
:10029000806C8EB910925702109258021092590237
:1002A00010925A0288E180935102EAE6F0E08081E0
:1002B00080658083109269008DB3806C8DBB08953A
:1002C0008DB38F738DBB109257021092580210920B
:1002D000590210925A021092560210925502109230
:1002E000540210925302109252028DB3806C8DBB57
:1002F0000895809153029091540220915102283127
:1003000059F59C012C5F3F4F2930310518F42AE73D
:10031000209351024CE3489F9001499F300D1124D6
:10032000332314F42D5F3F4F359527953595279549
:1003300080914F029091500299230CF40396959569
:10034000879595958795280F391F309350022093F4
:100350004F02822F932F0895209151022A3779F569
:100360009C01205B3F4F213A310518F028E1209392
:1003700051029C01220F331F820F931F880F991F78
:10038000880F991F9C01992314F42D5F3F4F3595D9
:1003900027953595279580914F029091500299238A
:1003A0000CF403969595879595958795280F391F99
:1003B0003093500220934F02822F932F08958FEF96
:1003C0009FEF08951F920F920FB60F9211248F93F3
:1003D0009F93AF93BF938CB186FF3CC08823ECF40E
:1003E0008091570290915802A0915902B0915A02FF
:1003F0000196A11DB11D8093570290935802A093BE
:100400005902B0935A02809155029091560201967A
:10041000909356028093550258C080915702909154
:100420005802A0915902B0915A020197A109B1094D
:100430008093570290935802A0935902B0935A02A6
:1004400080915502909156020197909356028093A5
:1004500055023BC08823ECF48091570290915802DA
:10046000A0915902B0915A020197A109B109809354
:10047000570290935802A0935902B0935A02809168
:10048000550290915602019790935602809355021F
:100490001CC08091570290915802A0915902B091CE
:1004A0005A020196A11DB11D8093570290935802E4
:1004B000A0935902B0935A0280915502909156022E
:1004C00001969093560280935502BF91AF919F91F0
:1004D0008F910F900FBE0F901F9018951F920F9243
:1004E0000FB60F9211248F939F93AF93BF938CB14C
:1004F0008823E4F586FF1DC0809157029091580231
:10050000A0915902B0915A020197A109B1098093B3
:10051000570290935802A0935902B0935A028091C7
:10052000550290915602019790935602809355027E
:1005300058C08091570290915802A0915902B091F1
:100540005A020196A11DB11D809357029093580243
:10055000A0935902B0935A0280915502909156028D
:10056000019690935602809355023BC086FF1DC0B2
:100570008091570290915802A0915902B0915A026D
:100580000196A11DB11D8093570290935802A0932C
:100590005902B0935A0280915502909156020196E9
:1005A00090935602809355021CC0809157029091FF
:1005B0005802A0915902B0915A020197A109B109BC
:1005C0008093570290935802A0935902B0935A0215
:1005D0008091550290915602019790935602809314
:1005E0005502BF91AF919F918F910F900FBE0F90C9
:1005F0001F901895FC018481089542E050E061E06D
:1006000070E003960E941A03089545E050E061E00F
:1006100070E003960E941A03862F089544E050E08C
:1006200061E070E003960E941A030895FC01838143
:1006300090E00895CF92DF92EF92FF92CF93DF93F5
:10064000141615069CF47723A4F0EA01C61BD70BF9
:100650002196C530D10514F0C4E0D0E0DD2314F4B8
:10066000C0E0D0E01C161D0634F02DC0C4E0D0E080
:1006700002C0C4E0D0E0DC01A60FB71F9E012150EC
:100680003109220F331F220F331F220F331FE0E0E7
:10069000F0E0C12CD12C76014D9150E0022E02C029
:1006A000440F551F0A94E2F7052E000C660B770BDA
:1006B000C42AD52AE62AF72A319628503109EC17A0
:1006C000FD0754F303C0C12CD12C7601C701B6013C
:1006D000DF91CF91FF90EF90DF90CF900895883019
:1006E00080F4EEEDF0E0408121E030E0B90102C09D
:1006F000660F771F8A95E2F7CB018095842380836C
:100700000895EFEDF0E04081885021E030E0B9013C
:1007100002C0660F771F8A95E2F7CB01809584238C
:1007200080830895883078F4EEEDF0E0408121E098
:1007300030E0B90102C0660F771F8A95E2F7CB015E
:10074000842B80830895EFEDF0E04081885021E014
:1007500030E0B90102C0660F771F8A95E2F7CB013E
:10076000842B808308951F920F920FB60F9211244D
:100770002F933F934F935F936F937F938F939F93A9
:10078000AF93BF93CF93EF93FF93C091ED00809110
:10079000EC00807F803FB1F18091EC0082958F70FA
:1007A00090E1899F900111242093ED009091EE003B
:1007B00096FF09C0EEEEF0E0908110821092EF00FB
:1007C0000E94920323C090915E029F5F90935E020D
:1007D000E82FE695E695E695F0E0E45AFD4F908126
:1007E000482F477021E030E002C0220F331F4A95A6
:1007F000E2F7292B2083EEEEF0E0908110820E9438
:100800006F0304C0EAEDF0E080818083C093ED00C7
:10081000FF91EF91CF91BF91AF919F918F917F9178
:100820006F915F914F913F912F910F900FBE0F905D
:100830001F9018959C01332722953295307F3227DF
:10084000207F32272093ED009C0121503109223076
:10085000310540F480915F0220E4829FC0011124A1
:100860008F630FC00397029750F480915F0220E4DA
:10087000829FC001112420915B02822B02C08FE372
:1008800090E01092F4001092F5001092F000109297
:10089000F100282F2295220F207E2093F200887FDE
:1008A0009770969587959695879596958795809359
:1008B000F30080EE8093F6008FE78093F7000895B1
:1008C000DF92EF92FF920F931F93CF93DF93E8EDA8
:1008D000F0E090819160908340935F0220935B02EF
:1008E0002FEF31EE94E0215030409040E1F700C00E
:1008F00000008093E2007093E3006093E40080EBDB
:100900008093DB008FEF8093E500ECE5F2E011824D
:100910001082C0E0D0E00FEE10E00F2EFEEEEF2EC2
:10092000F12CF02D6894DD24D7F8C53060F4F70180
:1009300080811082CE010E941A04F801D0828C2F8F
:100940000E94920302C0F80110822196CF30D10597
:1009500061F710925E0282E08093D800DF91CF9120
:100960001F910F91FF90EF90DF9008959B01AC01D4
:1009700063E174E08EE190E00E94600408951F93AB
:10098000CF93DF93009709F483C020915E02222366
:1009900009F481C01092ED0020915C0220FD25C079
:1009A00021E030E0ADEEB0E0122FA9014295529562
:1009B000507F5427407F54274C9323FB662760F9D0
:1009C00070E0FB01E45AFD4F408150E0E22FE770F8
:1009D00002C055954795EA95E2F740FD07C02F5FA5
:1009E0003F4F2F30310501F759C010E02091EF0043
:1009F0002F70FC0122833091F2004091F300329578
:100A00003695377050E0440F551F440F551F440F63
:100A1000551F432B51834083222391F0339621505D
:100A200030E02C5F3F4F280F391F0B96AAEFB0E044
:100A30004C914193E217F30719F08E179F07C1F706
:100A4000F89480915E02815080935E027894812FA9
:100A500090E00E941A04812F0E94920313FBFF274B
:100A6000F0F9CF2F80E0D82FC45ADD4F28811770BE
:100A700081E090E002C0880F991F1A95E2F78095F7
:100A80008223888380E88093EF0080E090E008C0B4
:100A900082E090E005C081E090E002C081E090E05B
:100AA000DF91CF911F91089580915B020895CF92BD
:100AB000DF92EF92FF920F931F93CF93DF936C011E
:100AC0008EE491E09F938F930E94EC0DF60181815B
:100AD0008F9380818F938DE591E09F938F930E94F8
:100AE000EC0DF60182811F928F9384E691E09F9333
:100AF0008F930E94EC0D8CE691E09F938F930E9460
:100B0000EC0DF60182812DB73EB7245F3F4F0FB643
:100B1000F8943EBF0FBE2DBF8823E1F0760133E08D
:100B2000E30EF11CC0E0D0E002E711E0F701819193
:100B30007F011F928F931F930F930E94EC0D2196BC
:100B4000F601828190E00F900F900F900F90C817E0
:100B5000D90764F386E791E09F938F930E94EC0D91
:100B60000F900F90DF91CF911F910F91FF90EF9019
:100B7000DF90CF900895CF93DF93CDB7DEB72B975B
:100B80000FB6F894DEBF0FBECDBF80EF81B982B93A
:100B90000E94730C2FEF81EE94E021508040904032
:100BA000E1F700C0000012B863E080E00E94050F8A
:100BB000789460E07BE480E090E00E94B00D63E018
:100BC00081E00E94050F8AE992E00E94DD0C0E94FC
:100BD0005405F82EC82ED12C1F928F938AE891E0ED
:100BE0009F938F930E94EC0D8AEF90E00E94DD0CA2
:100BF000B60184E090E00E94B60463E082E00E94C7
:100C0000050F0E9441010E9469008F2D0E94AA00D9
:100C10009FE088E10FB6F894A895809360000FBE1E
:100C2000909360000E943F0884EF91E00E94DD0CE9
:100C300060E080E00E94050F60E081E00E94050F07
:100C400060E083E00E94050F0F900F900F900F90CF
:100C50000F2EF8E2CF2ED12CE12CF12CF02DCE016D
:100C600001960E94BF04892BC9F463E083E00E94CF
:100C7000050F0E94970CA70196010E94A90FC901B8
:100C80000E942D0FCE0101960E945705CE010196BC
:100C90000E94670660E083E00E94050F0E94A208A0
:100CA00080FF09C063E082E00E94050F60E081E000
:100CB0000E94050F08C063E081E00E94050F60E01C
:100CC00082E00E94050F0E94F708A895C8CFCF9236
:100CD000DF92EF92FF92CF93DF93EC010E94160315
:100CE0009F938F9382E991E09F938F930E94EC0DE5
:100CF000CE010E9416030F900F900F900F908A3034
:100D0000910509F49EC05CF483309105E1F18430D3
:100D1000910509F473C0892B09F0BBC00CC0803F5A
:100D2000910509F485C08F3F910509F496C00C9791
:100D300009F0AFC080C0CE010E94FA02C82F1F92F6
:100D40008F9380EA91E09F938F930E94EC0D0F9018
:100D50000F900F900F90C13061F40E94A208826042
:100D60000E949F080E942F010E94AE070E948B08DC
:100D7000B0C0C111AEC00E94A2088D7F0E949F0822
:100D80000E948B08A6C0CE010E94FD029F938F9304
:100D90007F936F938DEA91E09F938F930E94EC0D68
:100DA0000E94A2080F900F900F900F900F900F903D
:100DB00081FD8FC0CE010E94FD02992324F4615E63
:100DC0007F4F8F4F9F4F6B017C01689414F8F5940F
:100DD000E794D794C7941694D1F7DF92CF9281EC21
:100DE00091E09F938F930E94EC0D8C2D9D2D0E947E
:100DF000B1080F900F900F900F906BC0CE010E9422
:100E000005032091000130910101409102015091B0
:100E10000301A82FB0E00E94F90F20E43EE745E06F
:100E200050E00E94A90FCA01B9010E94AE0751C04B
:100E30000E9495084EC060E070E0CB010E9438012E
:100E400048C0CE010E940E0360930001709301011F
:100E500080930201909303013CC08DED91E09F933C
:100E60008F930E94EC0D62E080E00E94050F0E94CB
:100E7000970C28E230E040E050E00E94A90FC90141
:100E80000E942D0F60E080E00E94050F0F900F90F0
:100E900020C08B811F928F9384EE91E09F938F935C
:100EA0000E94EC0D62E080E00E94050F0E94970C0A
:100EB00028E230E040E050E00E94A90FC9010E9402
:100EC0002D0F60E080E00E94050F0F900F900F90B3
:100ED0000F90DF91CF91FF90EF90DF90CF9008952A
:100EE000811524E0920714F08FEF93E0BC0161308C
:100EF0008CEF780714F461E07CEF6115710521F047
:100F000080918E0280FD07C060E070E083E00E9467
:100F1000C70B73980895772334F47299729871957A
:100F20006195710902C0729B729A83E00E94C70B9F
:100F30000895009721F0909385028093840208958C
:100F4000009721F0909365028093640208950097C2
:100F500021F090938302809382020895CF92DF92D2
:100F6000EF92FF926B017C01FF92EF92DF926F9301
:100F700089EF91E09F938F930E94EC0D80916A021C
:100F800090916B028C199D090E94270F0F900F9072
:100F90000F900F900F900F908536910540F01092B2
:100FA0006602109267021092680210926902C09263
:100FB0006A02D0926B02E0926C02F0926D02FF9096
:100FC000EF90DF90CF900895CF93DF93EC01DF9304
:100FD000CF9381E192E09F938F930E94EC0DD09389
:100FE0006F02C0936E020F900F900F900F90CD374D
:100FF000D105C8F481E080937A028DE790E0BE01CC
:101000000E94810F41E09E013695279528173907E8
:1010100008F040E08DE790E0BE010E94810F640F70
:101020006093810215C010927A029E01AFEAB7E484
:101030000E94EA0FC81BD90BD695C7958C0F9D1F30
:10104000929582958F7089279F708927809381025E
:10105000809181021F928F9380917A021F928F93C9
:1010600089E292E09F938F930E94EC0D0F900F9076
:101070000F900F900F900F90DF91CF91089573987C
:101080006B9A6A9A729A8098749A6D9A83E08BB977
:1010900080E094E0A0E0B0E0809370029093710251
:1010A000A0937202B093730288E893E1909389024F
:1010B0008093880210926A0210926B0210926C0266
:1010C00010926D02109263021092620210926102FD
:1010D000109260028CE890E09093850280938402E5
:1010E00084E190E0909365028093640284E690E04E
:1010F000909383028093820210927602109277027C
:1011000010927802109279028AEF90E00E94E40730
:101110000E944101089580918E02816080938E0229
:1011200060E080E00E94050F089580E090E00E945A
:10113000700780918E028E7F80938E020895809337
:101140008E02089580918E02089529B186B190E0B3
:101150008095909586958170922F90959270892BAD
:101160000895CF93DF93EC010E94970C60937B026C
:1011700070937C0280937D0290937E0280918E0218
:1011800080FD05C080E090E00E9470072DC0809136
:101190004E02882319F0D195C195D109D0936102EF
:1011A000C09360020E94A50880FF0BC020916002DE
:1011B0003091610233232CF410926102109260028C
:1011C0000DC081FF0BC080916002909161021816E2
:1011D000190624F41092610210926002809160025C
:1011E000909161020E947007DF91CF9108954F9214
:1011F0005F926F927F928F929F92AF92BF92CF92A7
:10120000DF92EF92FF920F931F93CF93DF9300D063
:1012100000D0CDB7DEB780918E0281FD9DC21092C5
:101220008F020E942F016B017C0180914A029091F4
:101230004B02A0914C02B0914D02C816D906EA06A5
:10124000FB06C1F0FF92EF92DF92CF928DE092E029
:101250009F938F930E94EC0DC0924A02D0924B0252
:10126000E0924C02F0924D020F900F900F900F9071
:101270000F900F900E94970CC0907B02D0907C0240
:10128000E0907D02F0907E02DC01CB018C199D097B
:10129000AE09BF09833E9440A105B10520F010922C
:1012A00061021092600264990AC010926102109269
:1012B00060020E94950861E080E00E94050F809125
:1012C0008E0281FFF9C180918F02882309F4F4C155
:1012D00080917A02882309F46FC06091810270E0E6
:1012E00080916202909163020E94810F892B09F024
:1012F000C6C080916A0290916B02A0916C02B0917D
:101300006D0240917602509177026091780270915F
:101310007902481759076A077B072CF57C018D0174
:10132000E41AF50A060B170BA801970165E070E0B7
:1013300080E090E00E94FB0EC0907602D090770291
:10134000E0907802F0907902DC01CB018C0D9D1DBC
:10135000AE1DBF1D8093760290937702A093780212
:10136000B09379028CC084179507A607B7070CF0D5
:1013700086C09A01AB01281B390B4A0B5B0B65E059
:1013800070E080E090E00E94FB0EC0907602D0906A
:101390007702E0907802F090790297018601061BAF
:1013A000170B280B390B00937602109377022093CA
:1013B00078023093790263C080916A0290916B0247
:1013C000A0916C02B0916D0240917602509177022B
:1013D0006091780270917902481759076A077B0774
:1013E00034F57C018D01E41AF50A060B170BA801F0
:1013F00097016091810270E080E090E00E94FB0E16
:10140000C0907602D0907702E0907802F090790256
:10141000DC01CB018C0D9D1DAE1DBF1D809376029E
:1014200090937702A0937802B093790228C0841732
:101430009507A607B7071CF59A01AB01281B390BC6
:101440004A0B5B0B6091810270E080E090E00E94AB
:10145000FB0EC0907602D0907702E0907802F09078
:10146000790297018601061B170B280B390B009395
:1014700076021093770220937802309379020E94CB
:101480002F014B015C018091760290917702A0912F
:101490007802B091790275016401C81AD90AEA0A82
:1014A000FB0A20918A0230918B0240918C0250916C
:1014B0008D0229833A834B835C83C0928A02D09247
:1014C0008B02E0928C02F0928D02C6010E94270FDF
:1014D0000597A0F08091660290916702A091680242
:1014E000B09169028C0D9D1DAE1DBF1D80936602DB
:1014F00090936702A0936802B093690280916A0298
:1015000090916B02A401481B590BCA010E94270F3E
:10151000049728F4109261021092600290C08091AA
:10152000660290916702A0916802B09169028130D1
:1015300053E09507A105B1056CF080E093E0A0E0D1
:10154000B0E08093660290936702A0936802B09324
:10155000690211C081159D4FAF4FBF4F64F480E009
:101560009DEFAFEFBFEF8093660290936702A09369
:101570006802B0936902A0916402B0916502209163
:1015800066023091670240916802509169020E94A0
:10159000F90F24E130E040E050E00E94CB0F290138
:1015A0003A01A0918402B0918502A70196010E94A0
:1015B000F90F24E130E040E050E00E94CB0F420EF2
:1015C000531E641E751EA701960189819A81AB8105
:1015D000BC81281B390B4A0B5B0BA0918202B09196
:1015E00083020E94F90F24E130E040E050E00E94C5
:1015F000CB0F420E531E641E751E91E8491691E0F2
:1016000059066104710434F0412C512C3201689464
:1016100047F85394A0E84A16AEEF5A06AFEF6A06B1
:101620007A064CF40F2EF0E84F2EFEEF5F2E662464
:101630006A94762CF02D5092610240926002809163
:101640007402909175029C01220F331F220F331FE9
:10165000220F331F820F931F6AE070E00E94950FE4
:101660007B010E9479016AE070E00E94950FE60E0E
:10167000F71EF0927502E0927402809161028F93DE
:10168000809160028F939F928F9282E492E09F9369
:101690008F930E94EC0D80916202909163020196FB
:1016A000909363028093620210928F020F900F90CA
:1016B0000F900F900F900F900E94A508F82E80FFBA
:1016C00027C080918E0282FF03C08B7F80938E02A1
:1016D00080916A0290916B02A0916C02B0916D02B0
:1016E000BB2344F410926A0210926B0210926C02B7
:1016F00010926D028091600290916102992344F4EE
:10170000109261021092600280E090E00E947007E7
:10171000F1FE18C00E94600180918E0282FF03C01A
:101720008B7F80938E0280916002909161021816E7
:10173000190644F4109261021092600280E090E079
:101740000E9470078091600290916102919581954D
:1017500091090E94700703C0649BA7CDB4CD0F9080
:101760000F900F900F90DF91CF911F910F91FF90ED
:10177000EF90DF90CF90BF90AF909F908F907F9031
:101780006F905F904F90089580934E02089573700C
:10179000843071F08530B1F08330E9F4E0E9F0E0B5
:1017A0008081806880837093990060939800089589
:1017B000E0E9F0E080818062808370939B00609319
:1017C0009A000895E0E9F0E080818860808370935A
:1017D0009D0060939C0008951F920F920FB60F9288
:1017E000112444980F900FBE0F901F901895449AA3
:1017F0000895EFE6F0E08081846080833C9A87E77B
:1018000091E090938B0080938A000895853B910529
:10181000ACF48230910514F482E090E0AC01440F06
:10182000551F9C01992314F42F5F3F4F3595279541
:10183000240F351F30938B0020938A0008951F9248
:101840000F920FB60F9211242F933F934F935F93F4
:101850006F937F938F939F93AF93BF93EF93FF9378
:101860008091900290919102A0919202B091930286
:101870000196A11DB11D8093900290939102A093B7
:101880009202B09393028091900290919102A09164
:101890009202B091930283709927AA27BB27892BC4
:1018A0008A2B8B2B51F48091900290919102A09100
:1018B0009202B09193020E942D0F81E080938F02DB
:1018C0000E94F70BFF91EF91BF91AF919F918F9184
:1018D0007F916F915F914F913F912F910F900FBE2C
:1018E0000F901F90189583E484BD81E080936E0073
:1018F0009BE19093810093E09093800020E137E298
:101900003093890020938800109285001092840003
:1019100080936F00909390008093910010929002BA
:101920001092910210929202109293020895CF9217
:10193000DF92EF92FF922091840030918500809198
:10194000900290919102A0919202B0919302880F1F
:10195000991FAA1FBB1F880F991FAA1FBB1F880FA3
:10196000991FAA1FBB1F6C017D01CC0CDD1CEE1C56
:10197000FF1CCC0CDD1CEE1CFF1CC80ED91EEA1E81
:10198000FB1E36952795A3E1B3E80E94EA0F0024D9
:10199000880F991F001C880F991F001C892F902DFC
:1019A000A7019601280F391F411D511DCA01B90118
:1019B000FF90EF90DF90CF9008958F929F92AF921B
:1019C000BF92CF92DF92EF92FF926C010E94970C30
:1019D0004B015C01E12CF12C0E94970CDC01CB0146
:1019E00088199909AA09BB098C159D05AE05BF0583
:1019F00098F3FF90EF90DF90CF90BF90AF909F90C3
:101A00008F9008951F920F920FB60F9211248F930B
:101A1000EF93FF938091A502813120F080E18093C4
:101A2000A5020CC0E091A50281E08E0F8093A50273
:101A3000F0E08091CE00EA55FD4F8083FF91EF9159
:101A40008F910F900FBE0F901F9018951F920F92BD
:101A50000FB60F9211248F939F93EF93FF93E09112
:101A6000B60281E08E0F8093B602F0E0EC56FD4F97
:101A700080818093CE009091B6028091A402981745
:101A800020F48091B602813148F0E9ECF0E08081E9
:101A90008F7D80831092A4021092B602FF91EF9185
:101AA0009F918F910F900FBE0F901F901895AF923E
:101AB000BF92CF92DF92EF92FF921F93CF93DF936B
:101AC0001F92CDB7DEB75C01162F8091A402882348
:101AD00029F0E9ECF0E08081806280831123A9F194
:101AE0006894CC24C4F8D12C0F2EF9ECEF2EF12CF5
:101AF000F02D8091A4028F30E0F78091A402212F75
:101B000030E040E050E0B601681B7109072E000C80
:101B1000880B990B0E94FB0E698349818091A40276
:101B200090E050E0B5018C569D4F0E9404109981C1
:101B30008091A402890F8093A4028981181BF70168
:101B40008081806280831111D4CF0F90DF91CF917B
:101B50001F91FF90EF90DF90CF90BF90AF900895CE
:101B60009B01AC011092A5021092A4021092B60241
:101B70001092C80060E472E48FE090E00E94A90F28
:101B8000215031093093CD002093CC0086E0809322
:101B9000CA0088E98093C9000895CF93DF931F920C
:101BA000CDB7DEB789838A3019F48DE00E94CD0D60
:101BB00061E0CE0101960E94570D0F90DF91CF9109
:101BC0000895FC0101900020E9F73197BF01681BDF
:101BD000790B0E94570D08952F923F924F925F927A
:101BE0006F927F928F929F92AF92BF92CF92DF922D
:101BF000EF92FF920F931F93CF93DF93CDB7DEB792
:101C00002B970FB6F894DEBF0FBECDBFFE01B09686
:101C1000E190F1906F01F701B080BB2009F4D2C0D0
:101C200000E010E00F2EF0E14F2EF7E25F2E612C66
:101C3000712CF02DF5E2BF16D1F08B2D0E94CD0D49
:101C40002CE5B212B7C00F5F1F4FF701E00FF11F75
:101C500080818A3029F08C3539F40E94CD0DAAC0DC
:101C60008AE00E94CD0DA6C0853209F0A3C00F5FA7
:101C70001F4FF701E00FF11F8081843609F475C012
:101C800038F4883509F45EC0833609F488C08FC003
:101C90008C3621F0833709F479C089C0C6010496D7
:101CA0009B878A87F60180809180A280B38081140F
:101CB000F0E89F06A104B104BCF1C501B401A30181
:101CC00092010E94CB0F49015A01C62ED72E282E11
:101CD000392E4AE0BE016F5F7F4FC4010E940D1094
:101CE000CE0101960E94E10D8C2C9D2CA22CB32CD0
:101CF00028EE821623E09206A104B1041CF480E3CE
:101D00000E94CD0D84E688169104A104B1041CF450
:101D100080E30E94CD0D9AE089169104A104B104DC
:101D20001CF480E30E94CD0D4AE0BE016F5F7F4F3F
:101D3000C4010E940D10CE0101960E94E10DCA84DB
:101D4000DB8438C05601E4E0AE0EB11C40E1BE01B8
:101D50006F5F7F4FF601808191810E940D10CE014F
:101D600001960E94E10D650125C0F6014AE0BE0121
:101D70006F5F7F4F80819181F2E0CF0ED11C0E9476
:101D80000D10CE0101960E94E10D14C0F601808174
:101D9000918122E0C20ED11C0E94E10D0BC0F60120
:101DA000808192E0C90ED11C0E94CD0D03C08FE34B
:101DB0000E94CD0D0F5F1F4FF701E00FF11FB080A4
:101DC000B11038CF2B960FB6F894DEBF0FBECDBF43
:101DD000DF91CF911F910F91FF90EF90DF90CF9007
:101DE000BF90AF909F908F907F906F905F904F903B
:101DF0003F902F900895621773078407950714F496
:101E00009B01AC01CA01B90108958430F8F4643033
:101E1000E8F49FEF960F923018F493E0961B692F29
:101E2000880F23E030E0082E02C0220F331F0A94EF
:101E3000E2F720959091B702292370E002C0660F67
:101E4000771F8A95E2F7622B6093B7020895992372
:101E50001CF49195819591090895EF92FF920F934B
:101E60001F93CF93DF937C018091B702811102C051
:101E700012B83BC0E4E0F0E0C0E0D0E001E010E0E8
:101E80008091B70290E00C2E02C0959587950A9438
:101E9000E2F7282F237069F0622F70E0660F771F3A
:101EA0006F5F7F4FC7010E94810F892B79F023302C
:101EB00069F092B198010E2E02C0220F331F0A94CE
:101EC000E2F7822F8095892382B90AC022B1C80126
:101ED0000E2E02C0880F991F0A94E2F7822B82B956
:101EE00022963196E830F10559F6DF91CF911F9196
:101EF0000F91FF90EF900895909305018093040156
:101F00000895AA1BBB1B51E107C0AA1FBB1FA61740
:101F1000B70710F0A61BB70B881F991F5A95A9F792
:101F200080959095BC01CD01089597FB072E16F47E
:101F3000009407D077FD09D00E94810F07FC05D0DF
:101F40003EF4909581959F4F0895709561957F4FD0
:101F50000895A1E21A2EAA1BBB1BFD010DC0AA1FEA
:101F6000BB1FEE1FFF1FA217B307E407F50720F002
:101F7000A21BB30BE40BF50B661F771F881F991F7D
:101F80001A9469F760957095809590959B01AC01C6
:101F9000BD01CF010895052E97FB1EF400940E9409
:101FA000E20F57FD07D00E94A90F07FC03D04EF4A3
:101FB0000C94E20F50954095309521953F4F4F4F2F
:101FC0005F4F089590958095709561957F4F8F4FE5
:101FD0009F4F0895A29FB001B39FC001A39F700DB2
:101FE000811D1124911DB29F700D811D1124911D21
:101FF00008950E94EA0FA59F900DB49F900DA49F95
:10200000800D911D11240895FB01DC0102C0019097
:102010000D9241505040D8F70895BB274A3031F413
:10202000992322F4BDE2909581959F4F0C9419104D
:10203000BB27FB015527AA27880F991FAA1FA417A2
:1020400010F0A41B83955051B9F7A05DAA3308F096
:10205000A95DA193009779F7B111B1931192CB01CA
:102060000C943210DC01FC01672F71917723E1F7AA
:10207000329704C07C916D9370836291AE17BF0755
:08208000C8F30895F894FFCFA6
:10208800010000006400446574656374696E67202C
:10209800626F617264207265763A2025640A002AAC
:1020A8002A2A5741524E494E472A2A2A20526576F3
:1020B8002E2031206669726D77617265206F6E20FF
:1020C8005265762E203220626F6172640A002D43B9
:1020D800414E204D4553534147452D0A0049443D43
:1020E80025580A00444C433D25640A004461746144
:1020F8003A00202558000A2D454E442043414E20E1
:102108004D4553534147452D0A006164723D25589A
:102118000A007061636B65742049443D25640A00B8
:102128006D6F6465207365742025640A0050574DEF
:102138002066726F6D207061636B65743D25640A5B
:102148000053657474696E672050574D20746F2072
:10215800256420287363616C6564290A00457272DE
:102168006F720A00556E6B6E6F776E2043414E207A
:10217800636F64652025640A0073657474696E670B
:1021880020746172676574207020746F20256C0A52
:102198000073657474696E67207461726765742072
:1021A8007620746F20256C0A00736C6F77203D20B1
:1021B80025642C207467745F696E63203D20256454
:0A21C8000A0025642025640A0000C7
:00000001FF
