S01900004D6F746F72436F6E74726F6C426F6172642E7372656331
S11300000C944A000C9467000C9467000C946700ED
S11300100C9467000C9467000C9467000C945F02C6
S11300200C94EB020C9467000C9467000C9467002A
S11300300C9467000C9467000C9467000C946C0B90
S11300400C9467000C9485010C947F090C94670050
S11300500C9467000C9467000C9467000C94670080
S11300600C9467000C9467000C9467000C94670070
S11300700C9467000C9467000C9467000C94670060
S11300800C94530C0C94770C0C9467000C9467003C
S11300900C94670011241FBECFEFD8E0DEBFCDBFA4
S11300A011E0A0E0B1E0EEE2FFE102C005900D92A4
S11300B0A43DB107D9F722E0A4EDB1E001C01D923F
S11300C0A234B207E1F70E947B030C94950F0C94C1
S11300D0000080E480937C00EAE7F0E086E080831F
S11300E08081806880830895ECE7F0E09081907CC3
S11300F08770892B8083EAE7F0E0808180648083C5
S1130100808186FDFDCF809178002091790090E078
S1130110922B089580917C00807C803C61F0ECE718
S1130120F0E08081806C808385E090E00E942E0C5A
S113013080E00E94740008950E948A0080E00E947A
S11301407400815891408F3F910510F081E008952B
S113015082E00895CF93C82F63E083E00E94560E97
S113016060E070E088E790E00E94100560E070E0D5
S113017084E190E00E94170560E070E08AEA90E074
S11301800E941E05C23071F018F4CC2331F01DC05A
S1130190C33081F0C63099F018C08CEA90E00E9418
S11301A0CF0E13C081E00E94380985E590E00E94DB
S11301B0CF0E0BC084E490E00E94CF0E06C00E94D4
S11301C0470B80E090E00E94540B86E091E09F93FF
S11301D08F930E943D0D0E949C00C82F1F928F9305
S11301E087E191E09F938F930E943D0D0F900F90B4
S11301F00F900F900F900F90C23081F080E391E048
S11302009F938F930E943D0D63E080E00E94560E01
S113021088EE93E00E942E0C0F900F90CF910895DA
S1130220FC018481089542E050E061E070E00396AF
S11302300E943001089545E050E061E070E00396CB
S11302400E943001862F089544E050E061E070E0A0
S113025003960E9430010895FC01838190E0089583
S1130260CF92DF92EF92FF92CF93DF93141615068D
S11302709CF47723A4F0EA01C61BD70B2196C53062
S1130280D10514F0C4E0D0E0DD2314F4C0E0D0E0E4
S11302901C161D0634F02DC0C4E0D0E002C0C4E03A
S11302A0D0E0DC01A60FB71F9E0121503109220FB7
S11302B0331F220F331F220F331FE0E0F0E0C12C65
S11302C0D12C76014D9150E0022E02C0440F551FEF
S11302D00A94E2F7052E000C660B770BC42AD52A84
S11302E0E62AF72A319628503109EC17FD0754F312
S11302F003C0C12CD12C7601C701B601DF91CF9187
S1130300FF90EF90DF90CF9008951F920F920FB659
S11303100F9211248F939F938091DC018F5F8093C0
S1130320DC019091DC018091DB0198130EC0809177
S1130330DF019091E0019093DE018093DD01109242
S1130340DC011092E0011092DF019F918F910F90D8
S11303500FBE0F901F9018956091E1017091E2011A
S11303608091E3019091E40108956093E101709319
S1130370E2018093E3019093E40108958DB38F73B8
S11303808DBB8DB18F738DB98EB1806C8EB9109287
S1130390E1011092E2011092E3011092E40188E17C
S11303A08093DB01EAE6F0E080818065808310922F
S11303B069008DB3806C8DBB08958DB38F738DBB35
S11303C01092E1011092E2011092E3011092E40113
S11303D01092E0011092DF011092DE011092DD0113
S11303E01092DC018DB3806C8DBB08958091DD018A
S11303F09091DE012091DB01283159F59C012C5F9D
S11304003F4F2930310518F42AE72093DB014CE3F0
S1130410489F9001499F300D1124332314F42D5F1C
S11304203F4F35952795359527958091D901909122
S1130430DA0199230CF403969595879595958795FC
S1130440280F391F3093DA012093D901822F932F7B
S113045008952091DB012A3779F59C01205B3F4FF9
S1130460213A310518F028E12093DB019C01220F89
S1130470331F820F931F880F991F880F991F9C01A8
S1130480992314F42D5F3F4F35952795359527957E
S11304908091D9019091DA0199230CF403969595F2
S11304A0879595958795280F391F3093DA01209306
S11304B0D901822F932F08958FEF9FEF08951F92F4
S11304C00F920FB60F9211248F939F93AF93BF9304
S11304D08CB186FF3CC08823ECF48091E1019091BB
S11304E0E201A091E301B091E4010196A11DB11DC7
S11304F08093E1019093E201A093E301B093E401BE
S11305008091DF019091E00101969093E001809346
S1130510DF0158C08091E1019091E201A091E301D3
S1130520B091E4010197A109B1098093E10190938D
S1130530E201A093E301B093E4018091DF01909183
S1130540E00101979093E0018093DF013BC0882391
S1130550ECF48091E1019091E201A091E301B0916A
S1130560E4010197A109B1098093E1019093E201AB
S1130570A093E301B093E4018091DF019091E00145
S113058001979093E0018093DF011CC08091E10109
S11305909091E201A091E301B091E4010196A11DC3
S11305A0B11D8093E1019093E201A093E301B09324
S11305B0E4018091DF019091E00101969093E001C4
S11305C08093DF01BF91AF919F918F910F900FBEE8
S11305D00F901F9018951F920F920FB60F9211242F
S11305E08F939F93AF93BF938CB18823E4F586FFD9
S11305F01DC08091E1019091E201A091E301B091CD
S1130600E4010197A109B1098093E1019093E2010A
S1130610A093E301B093E4018091DF019091E001A4
S113062001979093E0018093DF0158C08091E1012C
S11306309091E201A091E301B091E4010196A11D22
S1130640B11D8093E1019093E201A093E301B09383
S1130650E4018091DF019091E00101969093E00123
S11306608093DF013BC086FF1DC08091E101909122
S1130670E201A091E301B091E4010196A11DB11D35
S11306808093E1019093E201A093E301B093E4012C
S11306908091DF019091E00101969093E0018093B5
S11306A0DF011CC08091E1019091E201A091E3017E
S11306B0B091E4010197A109B1098093E1019093FC
S11306C0E201A093E301B093E4018091DF019091F2
S11306D0E00101979093E0018093DF01BF91AF9116
S11306E09F918F910F900FBE0F901F90189580B11E
S11306F080958F700895CF93DF93CDB7DEB72B9796
S11307000FB6F894DEBF0FBECDBF80EF81B982B9BA
S11307100E94C80B2FEF81EE94E02150804090405E
S1130720E1F700C0000012B863E080E00E94560EBA
S1130730789460E07BE480E090E00E94010D63E047
S113074081E00E94560E8AE992E00E942E0C0E94DB
S11307501F0BF82EC82ED12C1F928F938FE591E09A
S11307609F938F930E943D0D8AEF90E00E942E0C80
S1130770B60184E090E00E94810A63E082E00E9476
S1130780560E0E94BE010E9469008F2D0E94AA008D
S11307909FE088E10FB6F894A895809360000FBE9F
S11307A0909360000E94B60584EF91E00E942E0CA5
S11307B060E080E00E94560E60E081E00E94560EE8
S11307C060E083E00E94560E0F900F900F900F9000
S11307D00F2EF8E2CF2ED12CE12CF12CF02DCE01EE
S11307E001960E948A0A892BA9F463E083E00E949F
S11307F0560E0E94EC0BA70196010E94FC0EC90143
S11308000E947E0ECE0101960E94230460E083E0E4
S11308100E94560E0E94190680FF09C063E082E020
S11308200E94560E60E081E00E94560E08C063E00C
S113083081E00E94560E60E082E00E94560E0E9403
S11308406B06A895CCCFCF93DF93EC010E942C01CB
S11308508A30910509F470C05CF48330910579F114
S11308608430910509F445C0892B09F08DC00CC072
S1130870803F910509F457C08F3F910509F468C082
S11308800C9709F081C052C0CE010E941001813042
S113089061F40E94190682600E9416060E94AC014F
S11308A00E9425050E9402068FC081118DC00E94FE
S11308B019068D7F0E9416060E94020685C00E94BA
S11308C0190681FD81C0CE010E941301992324F4ED
S11308D0615E7F4F8F4F9F4FDC01CB01689414F80A
S11308E0B595A795979587951694D1F70E942506F7
S11308F06BC0CE010E941B012091000130910101C7
S11309004091020150910301A82FB0E00E944C0FC6
S113091020E43EE745E050E00E94FC0ECA01B90124
S11309200E94250551C00E940C064EC060E070E094
S1130930CB010E94B50148C0CE010E9424016093FE
S113094000017093010180930201909303013CC064
S113095087E691E09F938F930E943D0D62E080E0D3
S11309600E94560E0E94EC0B28E230E040E050E07A
S11309700E94FC0EC9010E947E0E60E080E00E948D
S1130980560E0F900F9020C08B811F928F938EE68E
S113099091E09F938F930E943D0D62E080E00E945E
S11309A0560E0E94EC0B28E230E040E050E00E943A
S11309B0FC0EC9010E947E0E60E080E00E94560E8B
S11309C00F900F900F900F90DF91CF9108958115A4
S11309D024E0920714F08FEF93E0BC0161308CEFB8
S11309E0780714F461E07CEF6115710521F08091C2
S11309F0130280FD07C060E070E083E00E94220BD8
S1130A0073980895772334F4729972987195619567
S1130A10710902C0729B729A83E00E94220B0895AE
S1130A20009721F090930A02809309020895009799
S1130A3021F09093EA018093E9010895009721F051
S1130A4090930802809307020895CF92DF92EF9269
S1130A50FF926B017C01FF92EF92DF926F9383E828
S1130A6091E09F938F930E943D0D8091EF019091AF
S1130A70F0018C199D090E94780E0F900F900F9031
S1130A800F900F900F908536910540F01092EB0176
S1130A901092EC011092ED011092EE01C092EF0160
S1130AA0D092F001E092F101F092F201FF90EF9008
S1130AB0DF90CF900895CF93DF93EC01DF93CF9332
S1130AC08BE991E09F938F930E943D0DD093F401A5
S1130AD0C093F3010F900F900F900F90CD37D10575
S1130AE0C8F481E08093FF018DE790E0BE010E948D
S1130AF0D40E41E09E01369527952817390708F052
S1130B0040E08DE790E0BE010E94D40E640F609334
S1130B10060215C01092FF019E01AFEAB7E40E94DD
S1130B203D0FC81BD90BD695C7958C0F9D1F929569
S1130B3082958F7089279F70892780930602809100
S1130B4006021F928F938091FF011F928F9383EB74
S1130B5091E09F938F930E943D0D0F900F900F9003
S1130B600F900F900F90DF91CF91089573986B9A27
S1130B706A9A729A8098749A6D9A83E08BB980E02D
S1130B8094E0A0E0B0E08093F5019093F601A09387
S1130B90F701B093F80188E893E190930E028093F3
S1130BA00D021092EF011092F0011092F1011092D7
S1130BB0F2011092E8011092E7011092E6011092FE
S1130BC0E5018CE890E090930A028093090284E1A5
S1130BD090E09093EA018093E90184E690E0909399
S1130BE00802809307021092FB011092FC011092FC
S1130BF0FD011092FE018AEF90E00E945B050E94C5
S1130C00BE0108958091130281608093130260E015
S1130C1080E00E94560E089580E090E00E94E70470
S1130C20809113028E7F80931302089580931302A0
S1130C30089580911302089589B190E0809590956C
S1130C4086709927959587950895CF93DF93EC0146
S1130C500E94EC0B609300027093010280930202E5
S1130C60909303028091130280FD05C080E090E020
S1130C700E94E7042DC08091D801882319F0D195F2
S1130C80C195D109D093E601C093E5010E941C06E9
S1130C9080FF0BC02091E5013091E60133232CF451
S1130CA01092E6011092E5010DC081FF0BC0809106
S1130CB0E5019091E6011816190624F41092E60154
S1130CC01092E5018091E5019091E6010E94E7040C
S1130CD0DF91CF9108954F925F926F927F928F929E
S1130CE09F92AF92BF92CF92DF92EF92FF920F93B7
S1130CF01F93CF93DF9300D000D0CDB7DEB78091A0
S1130D00130281FD9DC2109219020E94AC016B0175
S1130D107C018091D4019091D501A091D601B0912C
S1130D20D701C816D906EA06FB06C1F0FF92EF9276
S1130D30DF92CF9287E991E09F938F930E943D0DBC
S1130D40C092D401D092D501E092D601F092D7019D
S1130D500F900F900F900F900F900F900E94EC0B3C
S1130D60C0900002D0900102E0900202F0900302D1
S1130D70DC01CB018C199D09AE09BF09833E944067
S1130D80A105B10520F01092E6011092E5016499E5
S1130D900AC01092E6011092E5010E940C0661E07F
S1130DA080E00E94560E8091130281FFF9C1809168
S1130DB01902882309F4F4C18091FF01882309F4FE
S1130DC06FC06091060270E08091E7019091E801A4
S1130DD00E94D40E892B09F0C6C08091EF01909136
S1130DE0F001A091F101B091F2014091FB01509109
S1130DF0FC016091FD017091FE01481759076A07D3
S1130E007B072CF57C018D01E41AF50A060B170B00
S1130E10A801970165E070E080E090E00E944C0E2C
S1130E20C090FB01D090FC01E090FD01F090FE0128
S1130E30DC01CB018C0D9D1DAE1DBF1D8093FB01FC
S1130E409093FC01A093FD01B093FE018CC0841724
S1130E509507A607B7070CF086C09A01AB01281BBB
S1130E60390B4A0B5B0B65E070E080E090E00E9478
S1130E704C0EC090FB01D090FC01E090FD01F0907D
S1130E80FE0197018601061B170B280B390B0093F3
S1130E90FB011093FC012093FD013093FE0163C01C
S1130EA08091EF019091F001A091F101B091F201D4
S1130EB04091FB015091FC016091FD017091FE0194
S1130EC0481759076A077B0734F57C018D01E41A3A
S1130ED0F50A060B170BA80197016091060270E052
S1130EE080E090E00E944C0EC090FB01D090FC0189
S1130EF0E090FD01F090FE01DC01CB018C0D9D1D05
S1130F00AE1DBF1D8093FB019093FC01A093FD01D6
S1130F10B093FE0128C084179507A607B7071CF5F0
S1130F209A01AB01281B390B4A0B5B0B609106023B
S1130F3070E080E090E00E944C0EC090FB01D090E5
S1130F40FC01E090FD01F090FE0197018601061B73
S1130F50170B280B390B0093FB011093FC01209312
S1130F60FD013093FE010E94AC014B015C018091B4
S1130F70FB019091FC01A091FD01B091FE0175016E
S1130F806401C81AD90AEA0AFB0A20910F023091B7
S1130F901002409111025091120229833A834B832B
S1130FA05C83C0920F02D0921002E0921102F09280
S1130FB01202C6010E94780E0597A0F08091EB0101
S1130FC09091EC01A091ED01B091EE018C0D9D1D6D
S1130FD0AE1DBF1D8093EB019093EC01A093ED0136
S1130FE0B093EE018091EF019091F001A401481BB0
S1130FF0590BCA010E94780E049728F41092E60156
S11310001092E50190C08091EB019091EC01A091C8
S1131010ED01B091EE01813053E09507A105B105D2
S11310206CF080E093E0A0E0B0E08093EB0190935B
S1131030EC01A093ED01B093EE0111C081159D4F19
S1131040AF4FBF4F64F480E09DEFAFEFBFEF8093ED
S1131050EB019093EC01A093ED01B093EE01A0910C
S1131060E901B091EA012091EB013091EC0140914A
S1131070ED015091EE010E944C0F24E130E040E07C
S113108050E00E941E0F29013A01A0910902B0917B
S11310900A02A70196010E944C0F24E130E040E0CF
S11310A050E00E941E0F420E531E641E751EA701BF
S11310B0960189819A81AB81BC81281B390B4A0B2B
S11310C05B0BA0910702B09108020E944C0F24E12F
S11310D030E040E050E00E941E0F420E531E641E9A
S11310E0751E91E8491691E059066104710434F0C3
S11310F0412C512C3201689447F85394A0E84A16C5
S1131100AEEF5A06AFEF6A067A064CF40F2EF0E8FB
S11311104F2EFEEF5F2E66246A94762CF02D5092AB
S1131120E6014092E5018091F9019091FA019C0158
S1131130220F331F220F331F220F331F820F931FDF
S11311406AE070E00E94E80E7B010E94F6016AE00A
S113115070E00E94E80EE60EF71EF092FA01E092AB
S1131160F9018091E6018F938091E5018F939F921D
S11311708F928CEC91E09F938F930E943D0D809110
S1131180E7019091E80101969093E8018093E701CB
S1131190109219020F900F900F900F900F900F90D4
S11311A00E941C06F82E80FF27C08091130282FF44
S11311B003C08B7F809313028091EF019091F00123
S11311C0A091F101B091F201BB2344F41092EF011C
S11311D01092F0011092F1011092F2018091E50158
S11311E09091E601992344F41092E6011092E501EE
S11311F080E090E00E94E704F1FE18C00E94DD0147
S11312008091130282FF03C08B7F8093130280912D
S1131210E5019091E6011816190644F41092E601CE
S11312201092E50180E090E00E94E7048091E501DE
S11312309091E6019195819591090E94E70403C07C
S1131240649BA7CDB4CD0F900F900F900F90DF91BA
S1131250CF911F910F91FF90EF90DF90CF90BF90AF
S1131260AF909F908F907F906F905F904F90089574
S11312708093D8010895883080F4EEEDF0E0408149
S113128021E030E0B90102C0660F771F8A95E2F7CA
S1131290CB018095842380830895EFEDF0E04081B5
S11312A0885021E030E0B90102C0660F771F8A95AB
S11312B0E2F7CB018095842380830895883078F405
S11312C0EEEDF0E0408121E030E0B90102C0660FAC
S11312D0771F8A95E2F7CB01842B80830895EFED85
S11312E0F0E04081885021E030E0B90102C0660F8F
S11312F0771F8A95E2F7CB01842B808308951F9290
S11313000F920FB60F9211242F933F934F935F9335
S11313106F937F938F939F93AF93BF93CF93EF93E9
S1131320FF93C091ED008091EC00807F803FB1F18C
S11313308091EC0082958F7090E1899F9001112437
S11313402093ED009091EE0096FF09C0EEEEF0E0E0
S1131350908110821092EF000E945E0923C0909148
S113136017029F5F90931702E82FE695E695E6959E
S1131370F0E0EB5EFD4F9081482F477021E030E0B4
S113138002C0220F331F4A95E2F7292B2083EEEE89
S1131390F0E0908110820E943B0904C0EAEDF0E085
S11313A080818083C093ED00FF91EF91CF91BF9135
S11313B0AF919F918F917F916F915F914F913F91E9
S11313C02F910F900FBE0F901F9018959C013327FB
S11313D022953295307F3227207F32272093ED00EB
S11313E09C01215031092230310538F480911802D2
S11313F020E4829FC00111240FC00397029750F488
S11314008091180220E4829FC001112420911402CB
S1131410822B02C080E090E01092F4001092F5005C
S11314201092F0001092F100282F2295220F207EB6
S11314302093F200887F9770969587959695879567
S1131440969587958093F30080EE8093F6008FE75E
S11314508093F7000895DF92EF92FF920F931F930A
S1131460CF93DF93E8EDF0E0908191609083409317
S11314701802209314022FEF31EE94E021503040F3
S11314809040E1F700C000008093E2007093E30015
S11314906093E40080EB8093DB008FEF8093E500A2
S11314A0E5E1F2E011821082C0E0D0E00FEE10E03E
S11314B00F2EFEEEEF2EF12CF02D6894DD24D7F8DC
S11314C0C53060F4F70180811082CE010E94E609E4
S11314D0F801D0828C2F0E945E0902C0F8011082AC
S11314E02196CF30D10561F71092170282E08093E4
S11314F0D800DF91CF911F910F91FF90EF90DF9073
S113150008959B01AC0163E174E08EE190E00E94D8
S11315102B0A08951F93CF93DF93009709F483C098
S113152020911702222309F481C01092ED0020912A
S1131530150220FD25C021E030E0ADEEB0E0122F11
S1131540A90142955295507F5427407F54274C93CC
S113155023FB662760F970E0FB01EB5EFD4F4081E1
S113156050E0E22FE77002C055954795EA95E2F7FF
S113157040FD07C02F5F3F4F2F30310501F759C0A1
S113158010E02091EF002F70FC0122833091F200D3
S11315904091F30032953695377050E0440F551F53
S11315A0440F551F440F551F432B5183408322235F
S11315B091F03396215030E02C5F3F4F280F391FB4
S11315C00B96AAEFB0E04C914193E217F30719F0A0
S11315D08E179F07C1F7F89480911702815080936A
S11315E017027894812F90E00E94E609812F0E94CF
S11315F05E0913FBFF27F0F9CF2F80E0D82FCB5ED5
S1131600DD4F2881177081E090E002C0880F991F98
S11316101A95E2F780958223888380E88093EF000F
S113162080E090E008C082E090E005C081E090E0B6
S113163002C081E090E0DF91CF911F9108950E9454
S1131640770308957370843071F08530B1F083307E
S1131650E9F4E0E9F0E08081806880837093990088
S1131660609398000895E0E9F0E0808180628083CF
S113167070939B0060939A000895E0E9F0E0808104
S11316808860808370939D0060939C000895269ADF
S1131690E0E8F0E080818062808387E791E09093C6
S11316A08B0080938A000895843B910514F083EBAA
S11316B090E01816190614F081E090E09C01265081
S11316C03F4F63E070E00E94E80E620F731F709357
S11316D08B0060938A0008951F920F920FB60F92A9
S11316E011242F933F934F935F936F937F938F9323
S11316F09F93AF93BF93EF93FF9380911A029091BE
S11317001B02A0911C02B0911D020196A11DB11DE6
S113171080931A0290931B02A0931C02B0931D02A3
S113172080911A0290911B02A0911C02B0911D029B
S113173087709927AA27BB27892B8A2B8B2B51F4D7
S113174080911A0290911B02A0911C02B0911D027B
S11317500E947E0E80911A0290911B02A0911C029D
S1131760B0911D0280FD03C081E080931902FF91B6
S1131770EF91BF91AF919F918F917F916F915F9105
S11317804F913F912F910F900FBE0F901F9018957E
S113179083E484BD81E080936E009BE1909381009B
S11317A093E09093800028E833E1309389002093FC
S11317B08800109285001092840080936F009093AB
S11317C090008093910010921A0210921B021092C2
S11317D01C0210921D020895CF92DF92EF92FF92A5
S11317E02091840030918500C0901A02D0901B0291
S11317F0E0901C02F0901D02CC0CDD1CEE1CFF1CC2
S1131800CC0CDD1CEE1CFF1CD701C601880F991FF0
S1131810AA1FBB1F880F991FAA1FBB1FC80ED91E62
S1131820EA1EFB1E36952795A3E1B3E80E943D0FFF
S11318300024880F991F001C880F991F001C892FF2
S1131840902DA7019601280F391F411D511DCA0172
S1131850B901FF90EF90DF90CF9008958F929F92FF
S1131860AF92BF92CF92DF92EF92FF926C010E94EF
S1131870EC0B4B015C01E12CF12C0E94EC0BDC0124
S1131880CB0188199909AA09BB098C159D05AE05D8
S1131890BF0598F3FF90EF90DF90CF90BF90AF908B
S11318A09F908F9008951F920F920FB60F9211245C
S11318B08F93EF93FF9380912F02813120F080E189
S11318C080932F020CC0E0912F0281E08E0F809351
S11318D02F02F0E08091CE00E05DFD4F8083FF9108
S11318E0EF918F910F900FBE0F901F9018951F923C
S11318F00F920FB60F9211248F939F93EF93FF9340
S1131900E091400281E08E0F80934002F0E0E25EBD
S1131910FD4F80818093CE009091400280912E02F1
S1131920981720F480914002813148F0E9ECF0E00E
S113193080818F7D808310922E0210924002FF914D
S1131940EF919F918F910F900FBE0F901F9018955C
S1131950AF92BF92CF92DF92EF92FF921F93CF93F9
S1131960DF931F92CDB7DEB75C01162F80912E0254
S1131970882329F0E9ECF0E08081806280831123E0
S1131980A9F16894CC24C4F8D12C0F2EF9ECEF2ED5
S1131990F12CF02D80912E028F30E0F780912E02F1
S11319A0212F30E040E050E0B601681B7109072E9A
S11319B0000C880B990B0E944C0E6983498180911D
S11319C02E0290E050E0B501825E9D4F0E94570FB9
S11319D0998180912E02890F80932E028981181B90
S11319E0F7018081806280831111D4CF0F90DF9141
S11319F0CF911F91FF90EF90DF90CF90BF90AF9069
S1131A0008959B01AC0110922F0210922E021092A5
S1131A1040021092C80060E472E48FE090E00E94FB
S1131A20FC0E215031093093CD002093CC0086E088
S1131A308093CA0088E98093C9000895CF93DF9307
S1131A401F92CDB7DEB789838A3019F48DE00E94E6
S1131A501E0D61E0CE0101960E94A80C0F90DF914B
S1131A60CF910895FC0101900020E9F73197BF015F
S1131A70681B790B0E94A80C08952F923F924F92F5
S1131A805F926F927F928F929F92AF92BF92CF920A
S1131A90DF92EF92FF920F931F93CF93DF93CDB713
S1131AA0DEB72B970FB6F894DEBF0FBECDBFFE0195
S1131AB0B096E190F1906F01F701B080BB2009F47A
S1131AC0D2C000E010E00F2EF0E14F2EF7E25F2EBF
S1131AD0612C712CF02DF5E2BF16D1F08B2D0E94F4
S1131AE01E0D2CE5B212B7C00F5F1F4FF701E00FB8
S1131AF0F11F80818A3029F08C3539F40E941E0D43
S1131B00AAC08AE00E941E0DA6C0853209F0A3C0B7
S1131B100F5F1F4FF701E00FF11F8081843609F436
S1131B2075C038F4883509F45EC0833609F488C07A
S1131B308FC08C3621F0833709F479C089C0C6017F
S1131B4004969B878A87F60180809180A280B38067
S1131B508114F0E89F06A104B104BCF1C501B401ED
S1131B60A30192010E941E0F49015A01C62ED72ECD
S1131B70282E392E4AE0BE016F5F7F4FC4010E94B8
S1131B80600FCE0101960E94320D8C2C9D2CA22C4C
S1131B90B32C28EE821623E09206A104B1041CF4AF
S1131BA080E30E941E0D84E688169104A104B1040A
S1131BB01CF480E30E941E0D9AE089169104A1048E
S1131BC0B1041CF480E30E941E0D4AE0BE016F5F65
S1131BD07F4FC4010E94600FCE0101960E94320D16
S1131BE0CA84DB8438C05601E4E0AE0EB11C40E187
S1131BF0BE016F5F7F4FF601808191810E94600F6B
S1131C00CE0101960E94320D650125C0F6014AE01D
S1131C10BE016F5F7F4F80819181F2E0CF0ED11CB6
S1131C200E94600FCE0101960E94320D14C0F6018D
S1131C308081918122E0C20ED11C0E94320D0BC022
S1131C40F601808192E0C90ED11C0E941E0D03C0D2
S1131C508FE30E941E0D0F5F1F4FF701E00FF11F6E
S1131C60B080B11038CF2B960FB6F894DEBF0FBEFC
S1131C70CDBFDF91CF911F910F91FF90EF90DF9037
S1131C80CF90BF90AF909F908F907F906F905F9018
S1131C904F903F902F90089562177307840795071C
S1131CA014F49B01AC01CA01B90108958430F8F41D
S1131CB06430E8F49FEF960F923018F493E0961B8B
S1131CC0692F880F23E030E0082E02C0220F331F53
S1131CD00A94E2F7209590914102292370E002C012
S1131CE0660F771F8A95E2F7622B6093410208958D
S1131CF099231CF49195819591090895EF92FF928F
S1131D000F931F93CF93DF938C0190914102911114
S1131D1002C012B83DC016950795E4E0F0E0C0E0BB
S1131D20D0E0EE24E394F12C2091410230E00C2E1B
S1131D3002C0359527950A94E2F7237069F0622F63
S1131D4070E0660F771F6F5F7F4FC8010E94D40E4B
S1131D50892B79F0233069F092B197010E2E02C0DD
S1131D60220F331F0A94E2F7822F8095892382B9C8
S1131D700AC022B1C7010E2E02C0880F991F0A940F
S1131D80E2F7822B82B922963196E830F10561F6AA
S1131D90DF91CF911F910F91FF90EF900895909351
S1131DA00501809304010895AA1BBB1B51E107C0E0
S1131DB0AA1FBB1FA617B70710F0A61BB70B881FD7
S1131DC0991F5A95A9F780959095BC01CD01089566
S1131DD097FB072E16F4009407D077FD09D00E94D4
S1131DE0D40E07FC05D03EF4909581959F4F08953D
S1131DF0709561957F4F0895A1E21A2EAA1BBB1B13
S1131E00FD010DC0AA1FBB1FEE1FFF1FA217B307C2
S1131E10E407F50720F0A21BB30BE40BF50B661FD8
S1131E20771F881F991F1A9469F76095709580959C
S1131E3090959B01AC01BD01CF010895052E97FB40
S1131E401EF400940E94350F57FD07D00E94FC0E2B
S1131E5007FC03D04EF40C94350F50954095309503
S1131E6021953F4F4F4F5F4F089590958095709502
S1131E7061957F4F8F4F9F4F0895A29FB001B39FED
S1131E80C001A39F700D811D1124911DB29F700D7F
S1131E90811D1124911D08950E943D0FA59F900D51
S1131EA0B49F900DA49F800D911D11240895FB01F2
S1131EB0DC0102C001900D9241505040D8F70895C2
S1131EC0BB274A3031F4992322F4BDE290958195E1
S1131ED09F4F0C946C0FBB27FB015527AA27880F33
S1131EE0991FAA1FA41710F0A41B83955051B9F78A
S1131EF0A05DAA3308F0A95DA193009779F7B11109
S1131F00B1931192CB010C94850FDC01FC01672F76
S1131F1071917723E1F7329704C07C916D937083BC
S1111F206291AE17BF07C8F30895F894FFCF7F
S1131F2E0100000064005245562E2032206669726C
S1131F3E6D776172650A00446574656374696E67D2
S1131F4E20626F617264207265763A2025640A00FD
S1131F5E2A2A2A5741524E494E472A2A2A20526586
S1131F6E762E2032206669726D77617265206F6EEF
S1131F7E205265762E203120626F6172640A0061F0
S1131F8E64723D25580A004572726F720A00556ECE
S1131F9E6B6E6F776E2043414E20636F6465202510
S1131FAE640A0073657474696E6720746172676580
S1131FBE74207020746F20256C0A00736574746924
S1131FCE6E6720746172676574207620746F2025A5
S1131FDE6C0A00736C6F77203D2025642C20746787
S1131FEE745F696E63203D2025640A0025642025F4
S1071FFE640A00006D
S9030000FC
