:100000000C944A000C9467000C9467000C946700F1
:100010000C9467000C9467000C9467000C94A10189
:100020000C942D020C9467000C9467000C946700EC
:100030000C9467000C94790B0C9467000C94AA0B39
:100040000C9467000C94FE000C94F4030C9467006D
:100050000C9467000C9467000C9467000C94670084
:100060000C9467000C9467000C9467000C94670074
:100070000C9467000C9467000C9467000C94670064
:100080000C94AA0C0C94CE0C0C9467000C94670092
:100090000C94670011241FBECFEFD8E0DEBFCDBFA8
:1000A00012E0A0E0B1E0EAEEFFE102C005900D929F
:1000B000A43CB107D9F723E0A4ECB2E001C01D9243
:1000C000AB32B207E1F70E940B060C94F30F0C94CD
:1000D000000080E480937C00EAE7F0E086E0808323
:1000E0008081806880830895ECE7F0E09081907CC7
:1000F0008770892B8083EAE7F0E0808180648083C9
:10010000808186FDFDCF809178002091790090E07C
:10011000922B089580917C00807C803C61F0ECE71C
:10012000F0E08081806C808385E090E00E94560C36
:1001300080E00E94740008950E948A0080E00E947E
:100140007400815891408F3F910510F081E008952F
:1001500082E00895CF93C82F63E083E00E94BA0E37
:10016000C23071F018F4CC2331F01DC0C33081F0DF
:10017000C63099F018C08CEA90E00E94310F13C08D
:1001800081E00E94510B85E590E00E94310F0BC089
:1001900084E490E00E94310F06C00E94840B80E04E
:1001A00090E00E94910B87E091E09F938F930E94D3
:1001B000940D0E949C00C82F1F928F9388E191E0BC
:1001C0009F938F930E94940D0F900F900F900F901C
:1001D0000F900F90C23081F481E391E09F938F9351
:1001E0000E94940D63E080E00E94BA0E88EE93E0D6
:1001F0000E94560C0F900F90CF9108951F920F926E
:100200000FB60F9211248F939F938091C8028F5F36
:100210008093C8029091C8028091C70298130EC0C3
:100220008091CB029091CC029093CA028093C90234
:100230001092C8021092CC021092CB029F918F9123
:100240000F900FBE0F901F9018956091CD02709186
:10025000CE028091CF029091D00208956093CD029A
:100260007093CE028093CF029093D0020895CF92E4
:10027000DF92EF92FF929B01AC01C0900001D09001
:100280000101E0900201F090030160E47EE785E067
:1002900090E00E94360FA70196010E947C0FCA01D0
:1002A000B901FF90EF90DF90CF9008952091000169
:1002B0003091010140910201509103010E94360FDB
:1002C00020E43EE745E050E00E947C0FCA01B901FE
:1002D00008958DB38F738DBB8DB18F738DB98EB132
:1002E000806C8EB91092CD021092CE021092CF0285
:1002F0001092D00288E18093C702EAE6F0E08081A4
:1003000080658083109269008DB3806C8DBB0895E9
:100310008DB38F738DBB1092CD021092CE021092CE
:10032000CF021092D0021092CC021092CB02109207
:10033000CA021092C9021092C8028DB3806C8DBBA4
:1003400008951F920F920FB60F9211248F939F93CF
:10035000AF93BF938CB186FF3CC08823ECF48091AF
:10036000CD029091CE02A091CF02B091D002019621
:10037000A11DB11D8093CD029093CE02A093CF0218
:10038000B093D0028091CB029091CC0201969093D1
:10039000CC028093CB0258C08091CD029091CE02C6
:1003A000A091CF02B091D0020197A109B109809329
:1003B000CD029093CE02A093CF02B093D002809151
:1003C000CB029091CC0201979093CC028093CB0208
:1003D0003BC08823ECF48091CD029091CE02A09195
:1003E000CF02B091D0020197A109B1098093CD024B
:1003F0009093CE02A093CF02B093D0028091CB0213
:100400009091CC0201979093CC028093CB021CC0B8
:100410008091CD029091CE02A091CF02B091D002F6
:100420000196A11DB11D8093CD029093CE02A093A1
:10043000CF02B093D0028091CB029091CC02019672
:100440009093CC028093CB02BF91AF919F918F91FB
:100450000F900FBE0F901F9018951F920F920FB61E
:100460000F9211248F939F93AF93BF938CB18823E6
:10047000E4F586FF1DC08091CD029091CE02A0913F
:10048000CF02B091D0020197A109B1098093CD02AA
:100490009093CE02A093CF02B093D0028091CB0272
:1004A0009091CC0201979093CC028093CB0258C0DC
:1004B0008091CD029091CE02A091CF02B091D00256
:1004C0000196A11DB11D8093CD029093CE02A09301
:1004D000CF02B093D0028091CB029091CC020196D2
:1004E0009093CC028093CB023BC086FF1DC08091CD
:1004F000CD029091CE02A091CF02B091D002019690
:10050000A11DB11D8093CD029093CE02A093CF0286
:10051000B093D0028091CB029091CC02019690933F
:10052000CC028093CB021CC08091CD029091CE0270
:10053000A091CF02B091D0020197A109B109809397
:10054000CD029093CE02A093CF02B093D0028091BF
:10055000CB029091CC0201979093CC028093CB0276
:10056000BF91AF919F918F910F900FBE0F901F90F1
:100570001895BF92CF92DF92EF92FF920F931F9345
:10058000CF93DF93EC01B22E6701780181E00E94E6
:1005900030039983888388E08A838E010D5F1F4F23
:1005A00066EFC8010E944003C80FD91FBB829C019F
:1005B0002F5F3F4FB701A601C8010E945303DF918F
:1005C000CF911F910F91FF90EF90DF90CF90BF9050
:1005D000089548E050E064E070E003960E945B03F9
:1005E00008950E94E9020895FC018481089542E083
:1005F00050E061E070E003960E945B03089545E0DF
:1006000050E061E070E003960E945B03089545E0CE
:1006100050E061E070E003960E945B03089545E0BE
:1006200050E061E070E003960E945B03089545E0AE
:1006300050E061E070E003960E945B03089544E09F
:1006400050E061E070E003960E945B03089542E091
:1006500050E061E070E003960E945B03CB010895D7
:100660006F7090E4699FB00111244F73642B817007
:10067000382F330F330F20E0CB01822B932B0895BB
:10068000CF93DF93EC0168830E94040689830E9464
:1006900001068A8383E090E0DF91CF910895FC0109
:1006A000838190E00895FC01E20FF31F7083618362
:1006B000528343830895CF92DF92EF92FF92CF93BC
:1006C000DF93141615069CF47723A4F0EA01C61BE9
:1006D000D70B2196C530D10514F0C4E0D0E0DD235E
:1006E00014F4C0E0D0E01C161D0634F02DC0C4E0A8
:1006F000D0E002C0C4E0D0E0DC01A60FB71F9E012D
:1007000021503109220F331F220F331F220F331FB5
:10071000E0E0F0E0C12CD12C76014D9150E0022EAA
:1007200002C0440F551F0A94E2F7052E000C660B19
:10073000770BC42AD52AE62AF72A319628503109A0
:10074000EC17FD0754F303C0C12CD12C7601C7016F
:10075000B601DF91CF91FF90EF90DF90CF90089599
:10076000883080F4EEEDF0E0408121E030E0B90126
:1007700002C0660F771F8A95E2F7CB01809584232C
:1007800080830895EFEDF0E04081885021E030E073
:10079000B90102C0660F771F8A95E2F7CB018095F9
:1007A000842380830895883078F4EEEDF0E0408172
:1007B00021E030E0B90102C0660F771F8A95E2F7A9
:1007C000CB01842B80830895EFEDF0E040818850C9
:1007D00021E030E0B90102C0660F771F8A95E2F789
:1007E000CB01842B808308951F920F920FB60F9236
:1007F00011242F933F934F935F936F937F938F9326
:100800009F93AF93BF93CF93EF93FF93C091ED006E
:100810008091EC00807F803FB1F18091EC00829567
:100820008F7090E1899F900111242093ED009091A9
:10083000EE0096FF09C0EEEEF0E09081108210927B
:10084000EF000E94D30323C09091D4029F5F909346
:10085000D402E82FE695E695E695F0E0EE52FD4FDE
:100860009081482F477021E030E002C0220F331FF3
:100870004A95E2F7292B2083EEEEF0E0908110827A
:100880000E94B00304C0EAEDF0E080818083C09351
:10089000ED00FF91EF91CF91BF91AF919F918F911B
:1008A0007F916F915F914F913F912F910F900FBE6C
:1008B0000F901F9018959C01332722953295307F19
:1008C0003227207F32272093ED009C0121503109EF
:1008D0002230310540F48091D50220E4829FC0018E
:1008E00011248F630FC00397029750F48091D502B3
:1008F00020E4829FC00111242091D102822B02C0EA
:100900008FE390E01092F4001092F5001092F00046
:100910001092F100282F2295220F207E2093F200C2
:10092000887F9770969587959695879596958795E4
:100930008093F30080EE8093F6008FE78093F700BA
:100940000895DF92EF92FF920F931F93CF93DF935F
:10095000E8EDF0E09081916090834093D502209380
:10096000D1022FEF31EE94E0215030409040E1F77A
:1009700000C000008093E2007093E3006093E40005
:1009800080EB8093DB008FEF8093E500E2EDF2E0F7
:1009900011821082C0E0D0E00FEE10E00F2EFEEECC
:1009A000EF2EF12CF02D6894DD24D7F8C53060F4DB
:1009B000F70180811082CE010E945B04F801D08291
:1009C0008C2F0E94D30302C0F80110822196CF30F1
:1009D000D10561F71092D40282E08093D800DF91B4
:1009E000CF911F910F91FF90EF90DF90089510929B
:1009F000ED008091EF00807C99F021E030E0ADEED9
:100A0000B0E0EFEEF0E0822FA90142955295507FC1
:100A10005427407F54274C939081907C19F408957B
:100A200080E008952F5F3F4F2F30310561F78FEF42
:100A300008959B01AC0163E174E08EE190E00E94B7
:100A4000A1040895CF93DF93EC010E94F7048F3F38
:100A5000F1F190E1899F900111242093ED00EEEED9
:100A6000F0E0908110829A819F709093EF009A81BC
:100A7000992369F0FE01339690E0AAEFB0E021914E
:100A80002C939F5F2A81921710F49830C1F710922F
:100A9000F0001092F10098819295990F907E9093BA
:100AA000F20028813981287F377036952795369551
:100AB0002795369527952093F300EFEEF0E090818F
:100AC000906490830E94D30380E090E002C082E0B3
:100AD00090E0DF91CF9108951F93CF93DF9300971C
:100AE00009F483C02091D402222309F481C010921A
:100AF000ED002091D20220FD25C021E030E0ADEED6
:100B0000B0E0122FA90142955295507F5427407FA3
:100B100054274C9323FB662760F970E0FB01EE52EB
:100B2000FD4F408150E0E22FE77002C05595479598
:100B3000EA95E2F740FD07C02F5F3F4F2F303105A8
:100B400001F759C010E02091EF002F70FC012283C3
:100B50003091F2004091F30032953695377050E0B5
:100B6000440F551F440F551F440F551F432B5183EE
:100B70004083222391F03396215030E02C5F3F4F89
:100B8000280F391F0B96AAEFB0E04C914193E21762
:100B9000F30719F08E179F07C1F7F8948091D402DC
:100BA00081508093D4027894812F90E00E945B045E
:100BB000812F0E94D30313FBFF27F0F9CF2F80E092
:100BC000D82FCE52DD4F2881177081E090E002C00F
:100BD000880F991F1A95E2F780958223888380E811
:100BE0008093EF0080E090E008C082E090E005C0D4
:100BF00081E090E002C081E090E0DF91CF911F9111
:100C000008958091D10208958091D502089580B110
:100C100080958F700895CF93DF93CDB7DEB72B9774
:100C20000FB6F894DEBF0FBECDBF80EF81B982B999
:100C30000E940B0C2FEF81EE94E0215080409040F9
:100C4000E1F700C0000012B863E080E00E94BA0E35
:100C5000789460E07BE480E090E00E94580D63E0CF
:100C600081E00E94BA0E8AE992E00E94560C0E942E
:100C70000706F82EC82ED12C1F928F938CE991E095
:100C80009F938F930E94940D8AEF90E00E94560CE0
:100C9000B60184E090E00E94190563E082E00E94C2
:100CA000BA0E0E9469010E9469008F2D0E94AA005D
:100CB0009FE088E10FB6F894A895809360000FBE7E
:100CC000909360000E94590884EF91E00E94560CB6
:100CD00060E080E00E94BA0E60E081E00E94BA0EFF
:100CE00060E083E00E94BA0E0F900F900F900F907B
:100CF0000F2EF8E2CF2ED12CE12CF12CF02DCE01CD
:100D000001960E946C05892BA9F463E083E00E94A0
:100D1000BA0E0E942F0CA70196010E945A0FC9011A
:100D20000E94E20ECE0101960E94B30660E083E0CD
:100D30000E94BA0E0E944A0980FF09C063E082E067
:100D40000E94BA0E60E081E00E94BA0E08C063E023
:100D500081E00E94BA0E60E082E00E94BA0E0E941A
:100D60005909A895CCCFCF92DF92EF92FF920F93C3
:100D70001F93CF93DF93EC010E944F039F938F93B8
:100D800084EA91E09F938F930E94940DCE010E947C
:100D90004F030F900F900F900F908730910509F43B
:100DA00014C19CF48430910509F494C034F4009784
:100DB00031F1039709F453C053C18530910509F40B
:100DC000E6C0069709F4F2C04BC18D30910509F4D5
:100DD0000BC144F48A30910509F4BDC00C9709F4A5
:100DE000B4C03EC1843F910509F4C1C08F3F910555
:100DF00009F41AC1803F910509F032C1A3C0CE01A8
:100E00000E94F402C82F1F928F9382EB91E09F9370
:100E10008F930E94940D0F900F900F900F90C13000
:100E2000A1F40E943D090E944A0982600E9447097C
:100E30008FEB91E09F938F930E94940D0E94250168
:100E40000E940D090F900F902BC1C11129C10E9462
:100E50004A098D7F0E9447090E94330921C1CE01B2
:100E60000E94F7029F938F937F936F938CEC91E096
:100E70009F938F930E94940D0E944A090F900F90A8
:100E80000F900F900F900F9081FD0AC1CE010E942C
:100E9000F702992324F4615E7F4F8F4F9F4F6B01C0
:100EA0007C01689414F8F594E794D794C794169449
:100EB000D1F7DF92CF9280EE91E09F938F930E94C3
:100EC000940D8C2D9D2D0E94C4080F900F900F90B3
:100ED0000F90E6C0CE010E94FF02F62EE72ED82E1C
:100EE000C92E0E945601062F172FD82FC92F9F9366
:100EF0008F937F936F93CF92DF92EF92FF928CEF5D
:100F000091E09F938F930E94940D0E9425019F93DF
:100F10008F937F936F9387E292E09F938F930E94CA
:100F2000940D602F712F8D2F9C2F0E940D090E9410
:100F300033098DB79EB740960FB6F8949EBF0FBE8B
:100F40008DBFAEC00E943D09ABC060E070E0CB0138
:100F50000E942E01A5C0CE010E941F0360930001D4
:100F600070930101809302019093030199C0CE0117
:100F70000E94F102665F7F4F8F4F9F4F24E130E068
:100F800040E050E00E945A0F2093040189C085E39D
:100F900092E09F938F930E94940DCE010E940703CD
:100FA000CB010E94F3080F900F907AC080E492E08A
:100FB0009F938F930E94940DCE010E940F03CB014B
:100FC0000E94F8080F900F906BC08BE492E09F9303
:100FD0008F930E94940DCE010E941703CB010E94B3
:100FE000FD080F900F905CC0CE010E942703EC011A
:100FF000992314F4CFEFDFE7DF93CF9386E592E0F8
:101000009F938F930E94940DCE019695879592950C
:1010100082958F7089279F7089270E9402090F90FF
:101020000F900F900F903CC08DE692E09F938F93AE
:101030000E94940D62E080E00E94BA0E0E942F0C84
:1010400028E230E040E050E00E945A0FC9010E94BF
:10105000E20E60E080E00E94BA0E0F900F9020C078
:101060008B811F928F9384E792E09F938F930E94CE
:10107000940D62E080E00E94BA0E0E942F0C28E2DC
:1010800030E040E050E00E945A0FC9010E94E20E99
:1010900060E080E00E94BA0E0F900F900F900F90CA
:1010A000DF91CF911F910F91FF90EF90DF90CF9044
:1010B000089573986B9A6A9A729A8098749A6D9A46
:1010C00083E08BB980E094E0A0E0B0E08093E6029A
:1010D0009093E702A093E802B093E9028FEF93E0C8
:1010E0009093E5028093E4021092E0021092E102F4
:1010F0001092E2021092E3021092D9021092D802EA
:101100001092D7021092D6021092F9021092F802B1
:101110001092DB021092DA021092F7021092F6029D
:101120001092EC021092ED021092EE021092EF0279
:101130000E9469010895811524E0920714F08FEF51
:1011400093E0BC0161308CEF780714F461E07CEF30
:101150006115710521F08091000380FD07C060E0FA
:1011600070E083E00E94540B73980895772334F461
:101170007299729871956195710902C0729B729A09
:1011800083E00E94540B0895CF93DF93EC010E94FB
:101190002F0C6093F0027093F1028093F20290930F
:1011A000F3028091000380FD05C080E090E00E9482
:1011B0009B0816C08091E4029091E5029C01C8173B
:1011C000D9070CF49E019195819591098217930797
:1011D0000CF4C9019093D7028093D6020E949B0819
:1011E000DF91CF9108959093F9028093F8020895CA
:1011F0009093DB028093DA0208959093F702809334
:10120000F6020895811524E0920710F08FEF93E025
:101210009093E5028093E4020895CF92DF92EF92DB
:10122000FF926B017C018091E0029091E1028C19A8
:101230009D090E94DC0E8536910540F01092DC027B
:101240001092DD021092DE021092DF02C092E002E4
:10125000D092E102E092E202F092E302FF90EF907E
:10126000DF90CF9008958091000381608093000308
:1012700060E080E00E94BA0E089580E090E00E9455
:101280009B08809100038E7F8093000308958093D4
:101290000003089580910003089529B186B190E07C
:1012A0008095909586958170922F90959270892B5C
:1012B00008954F925F926F927F928F929F92AF921A
:1012C000BF92CF92DF92EF92FF920F931F93CF9333
:1012D000DF93CDB7DEB72F970FB6F894DEBF0FBE02
:1012E000CDBF8091000381FD1BC0109201030E94BD
:1012F0002F0CC090F002D090F102E090F202F0903A
:10130000F302DC01CB018C199D09AE09BF09833EB4
:101310009440A105B10520F01092D7021092D60298
:101320009091020380910401981798F00E94250182
:101330000E9437017B018C0124E041E062E0CE0194
:1013400001960E94B902CE0101960E9422051092D8
:10135000020364990AC01092D7021092D6020E942A
:101360003D0961E080E00E94BA0E8091000381FF98
:1013700040C180910103882309F43BC18091E002C0
:101380009091E102A091E202B091E3028093EC021D
:101390009093ED02A093EE02B093EF020E9425011C
:1013A0004B015C018091EC029091ED02A091EE0264
:1013B000B091EF0275016401C81AD90AEA0AFB0A62
:1013C0008091FC029091FD02A091FE02B091FF027B
:1013D000A7019601281B390B4A0B5B0B2C873D8715
:1013E0004E875F87C092FC02D092FD02E092FE021F
:1013F000F092FF028C2D9D2D0E94DC0E0597A0F02F
:101400008091DC029091DD02A091DE02B091DF02BA
:101410008C0D9D1DAE1DBF1D8093DC029093DD02DF
:10142000A093DE02B093DF028091E0029091E1028E
:10143000A401481B590BCA010E94DC0E049728F432
:101440001092D7021092D60287C08091DC02909150
:10145000DD02A091DE02B091DF02813053E09507FA
:10146000A105B1056CF080E093E0A0E0B0E08093CE
:10147000DC029093DD02A093DE02B093DF0211C084
:1014800081159D4FAF4FBF4F64F480E09DEFAFEFEC
:10149000BFEF8093DC029093DD02A093DE02B09355
:1014A000DF02A091DA02B091DB022091DC023091E0
:1014B000DD024091DE025091DF020E94AA0F24E17A
:1014C00030E040E050E00E947C0F29013A01A091F9
:1014D000F802B091F902A70196010E94AA0F24E137
:1014E00030E040E050E00E947C0F420E531E641E2C
:1014F000751EA091F602B091F7022C853D854E85B0
:101500005F850E94AA0F24E130E040E050E00E9495
:101510007C0F420E531E641E751E31E0431632E0EE
:101520005306610471042CF0412C512C3201689453
:1015300051F841144EEF54064FEF6406740644F41C
:101540000F2E412CFEEF5F2E66246A94762CF02D30
:101550005092D7024092D6024091D8025091D902BF
:101560009A01ADECBCEC0E949B0F969587959695E1
:101570008795969587959C01220F331F880F991F99
:10158000880F991F880F991F820F931F48175907BB
:1015900029F58091D7028F938091D6028F935D8534
:1015A0005F938C858F93ECEDF2E081818F93808146
:1015B0008F93DF92CF92ECEEF2E081818F93808166
:1015C0008F939F928F9289E892E09F938F930E94CE
:1015D000940D0FB6F894DEBF0FBECDBF8091D80238
:1015E0009091D90201969093D9028093D8021092DB
:1015F00001030E944D09F82E80FF20C08091E00277
:101600009091E102A091E202B091E302BB2344F485
:101610001092E0021092E1021092E2021092E302B4
:101620008091D6029091D702992344F41092D70268
:101630001092D60280E090E00E949B08F1FE11C05B
:101640000E9488018091D6029091D702181619063F
:1016500044F41092D7021092D60280E090E00E94EB
:101660009B088091D6029091D7029195819591091E
:101670000E949B082F960FB6F894DEBF0FBECDBF19
:10168000DF91CF911F910F91FF90EF90DF90CF905E
:10169000BF90AF909F908F907F906F905F904F9092
:1016A00008958093C40208957370843071F085307A
:1016B000B1F08330E9F4E0E9F0E080818068808374
:1016C00070939900609398000895E0E9F0E08081BC
:1016D0008062808370939B0060939A000895E0E994
:1016E000F0E080818860808370939D0060939C000F
:1016F00008951F920F920FB60F92112444980F90E5
:101700000FBE0F901F901895EFE6F0E08081846087
:1017100080833C9A87E791E090938B0080938A00C6
:101720000895853B9105ACF48230910514F482E074
:1017300090E0AC01440F551F9C01992314F42F5FD6
:101740003F4F35952795240F351F30938B002093FD
:101750008A0008951F920F920FB60F9211242F93B3
:101760003F934F935F936F937F938F939F93AF9329
:10177000BF93EF93FF938091030390910403A09193
:101780000503B09106030196A11DB11D80930303CB
:1017900090930403A0930503B09306038091020382
:1017A0008F5F809302038091030390910403A091C3
:1017B0000503B091060387709927AA27BB27892BB9
:1017C0008A2B8B2B51F48091030390910403A091F9
:1017D0000503B09106030E94E20E809103039091ED
:1017E0000403A0910503B091060380FD03C081E0CE
:1017F00080930103FF91EF91BF91AF919F918F91E2
:101800007F916F915F914F913F912F910F900FBEFC
:101810000F901F90189583E484BD81E080936E0043
:101820009BE19093810093E09093800028E833E15E
:1018300030938900209388001092850010928400D4
:1018400080936F0090939000809391001092030317
:1018500010920403109205031092060308950F934B
:101860001F938091030390910403A0910503B0910D
:101870000603880F991FAA1FBB1F880F991FAA1F55
:10188000BB1FAC01BD01440F551F661F771F440FDE
:10189000551F661F771F8C019D01040F151F261F02
:1018A000371FC901B8011F910F910895CF92DF92A0
:1018B000EF92FF920F931F93C0900303D090040305
:1018C000E0900503F0900603CC0CDD1CEE1CFF1C21
:1018D000CC0CDD1CEE1CFF1CB701A601440F551FEC
:1018E000661F771F440F551F661F771FC40ED51E36
:1018F000E61EF71EA0E0B0E0409103035091040300
:101900006091050370910603440F551F661F771FF2
:10191000440F551F661F771F8A019B01000F111F7F
:10192000221F331F000F111F221F331F400F511F93
:10193000621F731F4C195D096E097F09481759070B
:101940006A077B07C8F21F910F91FF90EF90DF901D
:10195000CF9008951F920F920FB60F9211248F937C
:10196000EF93FF9380911803813120F080E1809301
:1019700018030CC0E091180381E08E0F80931803C8
:10198000F0E08091CE00E75EFC4F8083FF91EF9105
:101990008F910F900FBE0F901F9018951F920F926E
:1019A0000FB60F9211248F939F93EF93FF93E091C3
:1019B000290381E08E0F80932903F0E0E95FFC4F5B
:1019C00080818093CE00909129038091170398170E
:1019D00020F480912903813148F0E9ECF0E0808126
:1019E0008F7D80831092170310922903FF91EF914E
:1019F0009F918F910F900FBE0F901F901895AF92EF
:101A0000BF92CF92DF92EF92FF921F93CF93DF931B
:101A10001F92CDB7DEB75C01162F80911703882384
:101A200029F0E9ECF0E08081806280831123A9F144
:101A30006894CC24C4F8D12C0F2EF9ECEF2EF12CA5
:101A4000F02D809117038F30E0F780911703212F3D
:101A500030E040E050E0B601681B7109072E000C31
:101A6000880B990B0E94B00E6983498180911703FE
:101A700090E050E0B501895F9C4F0E94B50F9981BD
:101A800080911703890F809317038981181BF70131
:101A90008081806280831111D4CF0F90DF91CF912C
:101AA0001F91FF90EF90DF90CF90BF90AF9008957F
:101AB0009B01AC0110921803109217031092290396
:101AC0001092C80060E472E48FE090E00E945A0F28
:101AD000215031093093CD002093CC0086E08093D3
:101AE000CA0088E98093C9000895CF93DF931F92BD
:101AF000CDB7DEB789838A3019F48DE00E94750D69
:101B000061E0CE0101960E94FF0C0F90DF91CF9112
:101B10000895FC0101900020E9F73197BF01681B8F
:101B2000790B0E94FF0C08952F923F924F925F9283
:101B30006F927F928F929F92AF92BF92CF92DF92DD
:101B4000EF92FF920F931F93CF93DF93CDB7DEB742
:101B50002B970FB6F894DEBF0FBECDBFFE01B09637
:101B6000E190F1906F01F701B080BB2009F4DFC074
:101B700000E010E00F2EF0E14F2EF7E25F2E612C17
:101B8000712CF02DF5E2BF16D1F08B2D0E94750D52
:101B90002CE5B212C4C00F5F1F4FF701E00FF11F19
:101BA00080818A3029F08C3539F40E94750DB7C0D8
:101BB0008AE00E94750DB3C0853209F0B0C00F5F96
:101BC0001F4FF701E00FF11F8081843609F482C0B6
:101BD00038F4883509F46BC0833609F495C09CC08D
:101BE0008C3621F0833709F486C096C0C60104966E
:101BF0009B878A87F60180809180A280B380BB207A
:101C00005CF4B094A09490948094811C911CA11CCD
:101C1000B11C8DE20E94750D8114F0E89F06A104AD
:101C2000B104BCF1C501B401A30192010E947C0F73
:101C300049015A01C62ED72E282E392E4AE0BE0160
:101C40006F5F7F4FC4010E94BE0FCE0101960E94BC
:101C5000890D8C2C9D2CA22CB32C28EE821623E00F
:101C60009206A104B1041CF480E30E94750D84E681
:101C700088169104A104B1041CF480E30E94750D40
:101C80009AE089169104A104B1041CF480E30E9437
:101C9000750D4AE0BE016F5F7F4FC4010E94BE0F09
:101CA000CE0101960E94890DCA84DB8438C056019A
:101CB000E4E0AE0EB11C40E1BE016F5F7F4FF60164
:101CC000808191810E94BE0FCE0101960E94890DF4
:101CD000650125C0F6014AE0BE016F5F7F4F80813C
:101CE0009181F2E0CF0ED11C0E94BE0FCE01019671
:101CF0000E94890D14C0F6018081918122E0C20EFC
:101D0000D11C0E94890D0BC0F601808192E0C90EA2
:101D1000D11C0E94750D03C08FE30E94750D0F5FEB
:101D20001F4FF701E00FF11FB080B1102BCF2B96A2
:101D30000FB6F894DEBF0FBECDBFDF91CF911F91DC
:101D40000F91FF90EF90DF90CF90BF90AF909F905A
:101D50008F907F906F905F904F903F902F9008955D
:101D6000621773078407950714F49B01AC01CA013D
:101D7000B90108958430F8F46430E8F49FEF960FC9
:101D8000923018F493E0961B692F880F23E030E01F
:101D9000082E02C0220F331F0A94E2F7209590917B
:101DA0002A03292370E002C0660F771F8A95E2F7A5
:101DB000622B60932A03089599231CF491958195D1
:101DC00091090895EF92FF920F931F93CF93DF93A2
:101DD0007C0180912A03811102C012B83BC0E4E06B
:101DE000F0E0C0E0D0E001E010E080912A0390E054
:101DF0000C2E02C0959587950A94E2F7282F237040
:101E000069F0622F70E0660F771F6F5F7F4FC70129
:101E10000E94460F892B79F0233069F092B1980126
:101E20000E2E02C0220F331F0A94E2F7822F8095F4
:101E3000892382B90AC022B1C8010E2E02C0880FC0
:101E4000991F0A94E2F7822B82B922963196E830E4
:101E5000F10559F6DF91CF911F910F91FF90EF900F
:101E6000089590930601809305010895DB018F93F7
:101E70009F930E94AA0FBF91AF91A29F800D911DC9
:101E8000A39F900DB29F900D11240895AA1BBB1B18
:101E900051E107C0AA1FBB1FA617B70710F0A61B6A
:101EA000B70B881F991F5A95A9F780959095BC018B
:101EB000CD010895A1E21A2EAA1BBB1BFD010DC086
:101EC000AA1FBB1FEE1FFF1FA217B307E407F507EA
:101ED00020F0A21BB30BE40BF50B661F771F881FC6
:101EE000991F1A9469F760957095809590959B015C
:101EF000AC01BD01CF010895052E97FB1EF400949F
:101F00000E94930F57FD07D00E945A0F07FC03D081
:101F10004EF40C94930F50954095309521953F4F7A
:101F20004F4F5F4F089590958095709561957F4FC5
:101F30008F4F9F4F0895A29FB001B39FC001A39FF1
:101F4000700D811D1124911DB29F700D811D1124F2
:101F5000911D08950E949B0FA59F900DB49F900D19
:101F6000A49F800D911D11240895FB01DC0102C086
:101F700001900D9241505040D8F70895BB274A3048
:101F800031F4992322F4BDE2909581959F4F0C94F2
:101F9000CA0FBB27FB015527AA27880F991FAA1F25
:101FA000A41710F0A41B83955051B9F7A05DAA3374
:101FB00008F0A95DA193009779F7B111B19311923F
:101FC000CB010C94E30FDC01FC01672F71917723A7
:101FD000E1F7329704C07C916D9370836291AE17E4
:0A1FE000BF07C8F30895F894FFCF7F
:101FEA00010000000564005245562E203120666922
:101FFA00726D776172650A00446574656374696E0F
:10200A006720626F617264207265763A2025640ADD
:10201A00002A2A2A5741524E494E472A2A2A205232
:10202A0065762E2031206669726D77617265206F40
:10203A006E205265762E203220626F6172640A0029
:10204A002D43414E204D4553534147452D0A0049E2
:10205A00443D25580A00444C433D25640A00446126
:10206A0074613A00202558000A2D454E4420434108
:10207A004E204D4553534147452D0A006164723D38
:10208A0025580A007061636B65742049443D2564D4
:10209A000A006D6F6465207365742025640A00491F
:1020AA006E206D6F6465207365740A0050574D2069
:1020BA0066726F6D207061636B65743D25640A00FA
:1020CA0053657474696E672050574D20746F2025CC
:1020DA006420287363616C6564290A00536574740B
:1020EA00696E672050494420746172676574207470
:1020FA006F20616E676C6520256C2028256C207422
:10210A0069636B73290A0043757272656E74203DA8
:10211A0020256C0A0073657474696E6720700A0062
:10212A0073657474696E6720690A007365747469EB
:10213A006E6720640A0053657474696E67206D6166
:10214A00782050574D20746F2025640A004572721A
:10215A006F720A00556E6B6E6F776E2043414E2088
:10216A00636F64652025640A00706F73203D202523
:10217A00642C20746172676574203D2025642C20CC
:10218A0070203D2025642C2069203D2025642C20C8
:10219A0064203D2025642C20706F776572203D20D5
:0421AA0025640A009E
:00000001FF
